{
  "abi": [
    {
      "anonymous": false,
      "inputs": [
        {
          "indexed": true,
          "internalType": "address",
          "name": "owner",
          "type": "address"
        },
        {
          "indexed": true,
          "internalType": "address",
          "name": "spender",
          "type": "address"
        },
        {
          "indexed": false,
          "internalType": "uint256",
          "name": "value",
          "type": "uint256"
        }
      ],
      "name": "Approval",
      "type": "event"
    },
    {
      "anonymous": false,
      "inputs": [
        {
          "indexed": true,
          "internalType": "bytes32",
          "name": "role",
          "type": "bytes32"
        },
        {
          "indexed": true,
          "internalType": "address",
          "name": "account",
          "type": "address"
        },
        {
          "indexed": true,
          "internalType": "address",
          "name": "sender",
          "type": "address"
        }
      ],
      "name": "RoleGranted",
      "type": "event"
    },
    {
      "anonymous": false,
      "inputs": [
        {
          "indexed": true,
          "internalType": "bytes32",
          "name": "role",
          "type": "bytes32"
        },
        {
          "indexed": true,
          "internalType": "address",
          "name": "account",
          "type": "address"
        },
        {
          "indexed": true,
          "internalType": "address",
          "name": "sender",
          "type": "address"
        }
      ],
      "name": "RoleRevoked",
      "type": "event"
    },
    {
      "anonymous": false,
      "inputs": [
        {
          "indexed": true,
          "internalType": "address",
          "name": "from",
          "type": "address"
        },
        {
          "indexed": true,
          "internalType": "address",
          "name": "to",
          "type": "address"
        },
        {
          "indexed": false,
          "internalType": "uint256",
          "name": "value",
          "type": "uint256"
        }
      ],
      "name": "Transfer",
      "type": "event"
    },
    {
      "inputs": [],
      "name": "DEFAULT_ADMIN_ROLE",
      "outputs": [
        {
          "internalType": "bytes32",
          "name": "",
          "type": "bytes32"
        }
      ],
      "stateMutability": "view",
      "type": "function"
    },
    {
      "inputs": [
        {
          "internalType": "address",
          "name": "owner",
          "type": "address"
        },
        {
          "internalType": "address",
          "name": "spender",
          "type": "address"
        }
      ],
      "name": "allowance",
      "outputs": [
        {
          "internalType": "uint256",
          "name": "",
          "type": "uint256"
        }
      ],
      "stateMutability": "view",
      "type": "function"
    },
    {
      "inputs": [
        {
          "internalType": "address",
          "name": "spender",
          "type": "address"
        },
        {
          "internalType": "uint256",
          "name": "amount",
          "type": "uint256"
        }
      ],
      "name": "approve",
      "outputs": [
        {
          "internalType": "bool",
          "name": "",
          "type": "bool"
        }
      ],
      "stateMutability": "nonpayable",
      "type": "function"
    },
    {
      "inputs": [],
      "name": "assetManagerRole",
      "outputs": [
        {
          "internalType": "bytes32",
          "name": "",
          "type": "bytes32"
        }
      ],
      "stateMutability": "view",
      "type": "function"
    },
    {
      "inputs": [
        {
          "internalType": "address",
          "name": "account",
          "type": "address"
        }
      ],
      "name": "balanceOf",
      "outputs": [
        {
          "internalType": "uint256",
          "name": "",
          "type": "uint256"
        }
      ],
      "stateMutability": "view",
      "type": "function"
    },
    {
      "inputs": [
        {
          "internalType": "address",
          "name": "account",
          "type": "address"
        },
        {
          "internalType": "uint256",
          "name": "amount",
          "type": "uint256"
        }
      ],
      "name": "burn",
      "outputs": [
        {
          "internalType": "bool",
          "name": "",
          "type": "bool"
        }
      ],
      "stateMutability": "nonpayable",
      "type": "function"
    },
    {
      "inputs": [],
      "name": "decimals",
      "outputs": [
        {
          "internalType": "uint8",
          "name": "",
          "type": "uint8"
        }
      ],
      "stateMutability": "view",
      "type": "function"
    },
    {
      "inputs": [
        {
          "internalType": "address",
          "name": "spender",
          "type": "address"
        },
        {
          "internalType": "uint256",
          "name": "subtractedValue",
          "type": "uint256"
        }
      ],
      "name": "decreaseAllowance",
      "outputs": [
        {
          "internalType": "bool",
          "name": "",
          "type": "bool"
        }
      ],
      "stateMutability": "nonpayable",
      "type": "function"
    },
    {
      "inputs": [
        {
          "internalType": "bytes32",
          "name": "role",
          "type": "bytes32"
        }
      ],
      "name": "getRoleAdmin",
      "outputs": [
        {
          "internalType": "bytes32",
          "name": "",
          "type": "bytes32"
        }
      ],
      "stateMutability": "view",
      "type": "function"
    },
    {
      "inputs": [
        {
          "internalType": "bytes32",
          "name": "role",
          "type": "bytes32"
        },
        {
          "internalType": "uint256",
          "name": "index",
          "type": "uint256"
        }
      ],
      "name": "getRoleMember",
      "outputs": [
        {
          "internalType": "address",
          "name": "",
          "type": "address"
        }
      ],
      "stateMutability": "view",
      "type": "function"
    },
    {
      "inputs": [
        {
          "internalType": "bytes32",
          "name": "role",
          "type": "bytes32"
        }
      ],
      "name": "getRoleMemberCount",
      "outputs": [
        {
          "internalType": "uint256",
          "name": "",
          "type": "uint256"
        }
      ],
      "stateMutability": "view",
      "type": "function"
    },
    {
      "inputs": [],
      "name": "governorRole",
      "outputs": [
        {
          "internalType": "bytes32",
          "name": "",
          "type": "bytes32"
        }
      ],
      "stateMutability": "view",
      "type": "function"
    },
    {
      "inputs": [
        {
          "internalType": "bytes32",
          "name": "role",
          "type": "bytes32"
        },
        {
          "internalType": "address",
          "name": "account",
          "type": "address"
        }
      ],
      "name": "grantRole",
      "outputs": [],
      "stateMutability": "nonpayable",
      "type": "function"
    },
    {
      "inputs": [
        {
          "internalType": "bytes32",
          "name": "role",
          "type": "bytes32"
        },
        {
          "internalType": "address",
          "name": "account",
          "type": "address"
        }
      ],
      "name": "hasRole",
      "outputs": [
        {
          "internalType": "bool",
          "name": "",
          "type": "bool"
        }
      ],
      "stateMutability": "view",
      "type": "function"
    },
    {
      "inputs": [
        {
          "internalType": "address",
          "name": "spender",
          "type": "address"
        },
        {
          "internalType": "uint256",
          "name": "addedValue",
          "type": "uint256"
        }
      ],
      "name": "increaseAllowance",
      "outputs": [
        {
          "internalType": "bool",
          "name": "",
          "type": "bool"
        }
      ],
      "stateMutability": "nonpayable",
      "type": "function"
    },
    {
      "inputs": [
        {
          "internalType": "string",
          "name": "name",
          "type": "string"
        },
        {
          "internalType": "string",
          "name": "symbol",
          "type": "string"
        }
      ],
      "name": "initialize",
      "outputs": [],
      "stateMutability": "nonpayable",
      "type": "function"
    },
    {
      "inputs": [
        {
          "internalType": "address",
          "name": "account",
          "type": "address"
        },
        {
          "internalType": "uint256",
          "name": "amount",
          "type": "uint256"
        }
      ],
      "name": "mint",
      "outputs": [
        {
          "internalType": "bool",
          "name": "",
          "type": "bool"
        }
      ],
      "stateMutability": "nonpayable",
      "type": "function"
    },
    {
      "inputs": [],
      "name": "name",
      "outputs": [
        {
          "internalType": "string",
          "name": "",
          "type": "string"
        }
      ],
      "stateMutability": "view",
      "type": "function"
    },
    {
      "inputs": [
        {
          "internalType": "bytes32",
          "name": "role",
          "type": "bytes32"
        },
        {
          "internalType": "address",
          "name": "account",
          "type": "address"
        }
      ],
      "name": "renounceRole",
      "outputs": [],
      "stateMutability": "nonpayable",
      "type": "function"
    },
    {
      "inputs": [
        {
          "internalType": "bytes32",
          "name": "role",
          "type": "bytes32"
        },
        {
          "internalType": "address",
          "name": "account",
          "type": "address"
        }
      ],
      "name": "revokeRole",
      "outputs": [],
      "stateMutability": "nonpayable",
      "type": "function"
    },
    {
      "inputs": [],
      "name": "symbol",
      "outputs": [
        {
          "internalType": "string",
          "name": "",
          "type": "string"
        }
      ],
      "stateMutability": "view",
      "type": "function"
    },
    {
      "inputs": [],
      "name": "totalSupply",
      "outputs": [
        {
          "internalType": "uint256",
          "name": "",
          "type": "uint256"
        }
      ],
      "stateMutability": "view",
      "type": "function"
    },
    {
      "inputs": [
        {
          "internalType": "address",
          "name": "recipient",
          "type": "address"
        },
        {
          "internalType": "uint256",
          "name": "amount",
          "type": "uint256"
        }
      ],
      "name": "transfer",
      "outputs": [
        {
          "internalType": "bool",
          "name": "",
          "type": "bool"
        }
      ],
      "stateMutability": "nonpayable",
      "type": "function"
    },
    {
      "inputs": [
        {
          "internalType": "address",
          "name": "sender",
          "type": "address"
        },
        {
          "internalType": "address",
          "name": "recipient",
          "type": "address"
        },
        {
          "internalType": "uint256",
          "name": "amount",
          "type": "uint256"
        }
      ],
      "name": "transferFrom",
      "outputs": [
        {
          "internalType": "bool",
          "name": "",
          "type": "bool"
        }
      ],
      "stateMutability": "nonpayable",
      "type": "function"
    },
    {
      "inputs": [
        {
          "internalType": "address",
          "name": "to",
          "type": "address"
        }
      ],
      "name": "transferOwnership",
      "outputs": [],
      "stateMutability": "nonpayable",
      "type": "function"
    },
    {
      "inputs": [],
      "name": "vaultRole",
      "outputs": [
        {
          "internalType": "bytes32",
          "name": "",
          "type": "bytes32"
        }
      ],
      "stateMutability": "view",
      "type": "function"
    }
  ],
  "address": "0x8BBD62533339F0e1E02b2E9229f201A3F1ffF0D9",
  "args": [],
  "solcInputHash": "0x57f8616e1b9f5e60b5dddddb3a19aaaa55edb00aeb2821c2b44dfb8838d95b70",
  "bytecode": "0x608060405234801561001057600080fd5b50611aef806100206000396000f3fe608060405234801561001057600080fd5b506004361061018e5760003560e01c80639010d07c116100de578063a9059cbb11610097578063d547741f11610071578063d547741f1461060c578063dd62ed3e14610638578063eaf896fd14610666578063f2fde38b1461066e5761018e565b8063a9059cbb146105bb578063ca15c873146105e7578063ce16489e146106045761018e565b80639010d07c146104e857806391d148541461052757806395d89b41146105535780639dc29fac1461055b578063a217fddf14610587578063a457c2d71461058f5761018e565b8063313ce5671161014b57806340c10f191161012557806340c10f191461036157806349dcd6a11461038d5780634cd88b761461039557806370a08231146104c25761018e565b8063313ce567146102eb57806336568abe1461030957806339509351146103355761018e565b806306fdde0314610193578063095ea7b31461021057806318160ddd1461025057806323b872dd1461026a578063248a9ca3146102a05780632f2ff15d146102bd575b600080fd5b61019b610694565b6040805160208082528351818301528351919283929083019185019080838360005b838110156101d55781810151838201526020016101bd565b50505050905090810190601f1680156102025780820380516001836020036101000a031916815260200191505b509250505060405180910390f35b61023c6004803603604081101561022657600080fd5b506001600160a01b03813516906020013561072a565b604080519115158252519081900360200190f35b610258610748565b60408051918252519081900360200190f35b61023c6004803603606081101561028057600080fd5b506001600160a01b0381358116916020810135909116906040013561074e565b610258600480360360208110156102b657600080fd5b50356107d5565b6102e9600480360360408110156102d357600080fd5b50803590602001356001600160a01b03166107ea565b005b6102f3610856565b6040805160ff9092168252519081900360200190f35b6102e96004803603604081101561031f57600080fd5b50803590602001356001600160a01b031661085f565b61023c6004803603604081101561034b57600080fd5b506001600160a01b0381351690602001356108c0565b61023c6004803603604081101561037757600080fd5b506001600160a01b03813516906020013561090e565b610258610961565b6102e9600480360360408110156103ab57600080fd5b8101906020810181356401000000008111156103c657600080fd5b8201836020820111156103d857600080fd5b803590602001918460018302840111640100000000831117156103fa57600080fd5b91908080601f016020809104026020016040519081016040528093929190818152602001838380828437600092019190915250929594936020810193503591505064010000000081111561044d57600080fd5b82018360208201111561045f57600080fd5b8035906020019184600183028401116401000000008311171561048157600080fd5b91908080601f016020809104026020016040519081016040528093929190818152602001838380828437600092019190915250929550610967945050505050565b610258600480360360208110156104d857600080fd5b50356001600160a01b0316610a1d565b61050b600480360360408110156104fe57600080fd5b5080359060200135610a38565b604080516001600160a01b039092168252519081900360200190f35b61023c6004803603604081101561053d57600080fd5b50803590602001356001600160a01b0316610a57565b61019b610a6f565b61023c6004803603604081101561057157600080fd5b506001600160a01b038135169060200135610ad0565b610258610b23565b61023c600480360360408110156105a557600080fd5b506001600160a01b038135169060200135610b28565b61023c600480360360408110156105d157600080fd5b506001600160a01b038135169060200135610b90565b610258600480360360208110156105fd57600080fd5b5035610ba4565b610258610bbb565b6102e96004803603604081101561062257600080fd5b50803590602001356001600160a01b0316610bc1565b6102586004803603604081101561064e57600080fd5b506001600160a01b0381358116916020013516610c1a565b610258610c45565b6102e96004803603602081101561068457600080fd5b50356001600160a01b0316610c4b565b60688054604080516020601f60026000196101006001881615020190951694909404938401819004810282018101909252828152606093909290918301828280156107205780601f106106f557610100808354040283529160200191610720565b820191906000526020600020905b81548152906001019060200180831161070357829003601f168201915b5050505050905090565b600061073e610737610c6b565b8484610c6f565b5060015b92915050565b60675490565b600061075b848484610d5b565b6107cb84610767610c6b565b6107c6856040518060600160405280602881526020016119a6602891396001600160a01b038a166000908152606660205260408120906107a5610c6b565b6001600160a01b031681526020810191909152604001600020549190610eb8565b610c6f565b5060019392505050565b60009081526097602052604090206002015490565b60008281526097602052604090206002015461080d90610808610c6b565b610a57565b6108485760405162461bcd60e51b815260040180806020018281038252602f8152602001806118a7602f913960400191505060405180910390fd5b6108528282610f4f565b5050565b606a5460ff1690565b610867610c6b565b6001600160a01b0316816001600160a01b0316146108b65760405162461bcd60e51b815260040180806020018281038252602f815260200180611a8b602f913960400191505060405180910390fd5b6108528282610fb8565b600061073e6108cd610c6b565b846107c685606660006108de610c6b565b6001600160a01b03908116825260208083019390935260409182016000908120918c168152925290205490611021565b600061091c60c95433610a57565b6109575760405162461bcd60e51b81526004018080602001828103825260368152602001806119406036913960400191505060405180910390fd5b61073e838361107b565b60c95490565b600054610100900460ff1680610980575061098061116d565b8061098e575060005460ff16155b6109c95760405162461bcd60e51b815260040180806020018281038252602e8152602001806119ce602e913960400191505060405180910390fd5b600054610100900460ff161580156109f4576000805460ff1961ff0019909116610100171660011790555b6109fc611173565b610a068383611292565b8015610a18576000805461ff00191690555b505050565b6001600160a01b031660009081526065602052604090205490565b6000828152609760205260408120610a509083611331565b9392505050565b6000828152609760205260408120610a50908361133d565b60698054604080516020601f60026000196101006001881615020190951694909404938401819004810282018101909252828152606093909290918301828280156107205780601f106106f557610100808354040283529160200191610720565b6000610ade60c95433610a57565b610b195760405162461bcd60e51b81526004018080602001828103825260368152602001806119406036913960400191505060405180910390fd5b61073e8383611352565b600081565b600061073e610b35610c6b565b846107c685604051806060016040528060258152602001611a666025913960666000610b5f610c6b565b6001600160a01b03908116825260208083019390935260409182016000908120918d16815292529020549190610eb8565b600061073e610b9d610c6b565b8484610d5b565b60008181526097602052604081206107429061144e565b60cb5490565b600082815260976020526040902060020154610bdf90610808610c6b565b6108b65760405162461bcd60e51b81526004018080602001828103825260308152602001806119766030913960400191505060405180910390fd5b6001600160a01b03918216600090815260666020908152604080832093909416825291909152205490565b60ca5490565b610c566000826107ea565b610c686000610c63610c6b565b610bc1565b50565b3390565b6001600160a01b038316610cb45760405162461bcd60e51b8152600401808060200182810382526024815260200180611a426024913960400191505060405180910390fd5b6001600160a01b038216610cf95760405162461bcd60e51b81526004018080602001828103825260228152602001806118f86022913960400191505060405180910390fd5b6001600160a01b03808416600081815260666020908152604080832094871680845294825291829020859055815185815291517f8c5be1e5ebec7d5bd14f71427d1e84f3dd0314c0f7b2291e5b200ac8c7c3b9259281900390910190a3505050565b6001600160a01b038316610da05760405162461bcd60e51b8152600401808060200182810382526025815260200180611a1d6025913960400191505060405180910390fd5b6001600160a01b038216610de55760405162461bcd60e51b81526004018080602001828103825260238152602001806118846023913960400191505060405180910390fd5b610df0838383610a18565b610e2d8160405180606001604052806026815260200161191a602691396001600160a01b0386166000908152606560205260409020549190610eb8565b6001600160a01b038085166000908152606560205260408082209390935590841681522054610e5c9082611021565b6001600160a01b0380841660008181526065602090815260409182902094909455805185815290519193928716927fddf252ad1be2c89b69c2b068fc378daa952ba7f163c4a11628f55a4df523b3ef92918290030190a3505050565b60008184841115610f475760405162461bcd60e51b81526004018080602001828103825283818151815260200191508051906020019080838360005b83811015610f0c578181015183820152602001610ef4565b50505050905090810190601f168015610f395780820380516001836020036101000a031916815260200191505b509250505060405180910390fd5b505050900390565b6000828152609760205260409020610f679082611459565b1561085257610f74610c6b565b6001600160a01b0316816001600160a01b0316837f2f8788117e7eff1d82e926ec794901d17c78024a50270940304540a733656f0d60405160405180910390a45050565b6000828152609760205260409020610fd0908261146e565b1561085257610fdd610c6b565b6001600160a01b0316816001600160a01b0316837ff6391f5c32d9c69d2a47ea670b442974b53935d1edc7fd64eb21e047a839171b60405160405180910390a45050565b600082820183811015610a50576040805162461bcd60e51b815260206004820152601b60248201527f536166654d6174683a206164646974696f6e206f766572666c6f770000000000604482015290519081900360640190fd5b6001600160a01b0382166110d6576040805162461bcd60e51b815260206004820152601f60248201527f45524332303a206d696e7420746f20746865207a65726f206164647265737300604482015290519081900360640190fd5b6110e260008383610a18565b6067546110ef9082611021565b6067556001600160a01b0382166000908152606560205260409020546111159082611021565b6001600160a01b03831660008181526065602090815260408083209490945583518581529351929391927fddf252ad1be2c89b69c2b068fc378daa952ba7f163c4a11628f55a4df523b3ef9281900390910190a35050565b303b1590565b600054610100900460ff168061118c575061118c61116d565b8061119a575060005460ff16155b6111d55760405162461bcd60e51b815260040180806020018281038252602e8152602001806119ce602e913960400191505060405180910390fd5b600054610100900460ff16158015611200576000805460ff1961ff0019909116610100171660011790555b611212600061120d610c6b565b610848565b7f6bc9af616991ee5669a4db9fdf1be40cf0f301aaa197206636e2f4b9a3c7af3b60c9557f81349814bed7dfa157b76a21259a8d40c0afbebce228b6fa6309925210da2d6d60ca557f172d99a02b0e57f8f6fa2be8cb376f24af61ff9401d1c478debdb285b6512b1f60cb558015610c68576000805461ff001916905550565b600054610100900460ff16806112ab57506112ab61116d565b806112b9575060005460ff16155b6112f45760405162461bcd60e51b815260040180806020018281038252602e8152602001806119ce602e913960400191505060405180910390fd5b600054610100900460ff1615801561131f576000805460ff1961ff0019909116610100171660011790555b611327611483565b610a068383611524565b6000610a5083836115fc565b6000610a50836001600160a01b038416611660565b6001600160a01b0382166113975760405162461bcd60e51b81526004018080602001828103825260218152602001806119fc6021913960400191505060405180910390fd5b6113a382600083610a18565b6113e0816040518060600160405280602281526020016118d6602291396001600160a01b0385166000908152606560205260409020549190610eb8565b6001600160a01b0383166000908152606560205260409020556067546114069082611678565b6067556040805182815290516000916001600160a01b038516917fddf252ad1be2c89b69c2b068fc378daa952ba7f163c4a11628f55a4df523b3ef9181900360200190a35050565b6000610742826116ba565b6000610a50836001600160a01b0384166116be565b6000610a50836001600160a01b038416611708565b600054610100900460ff168061149c575061149c61116d565b806114aa575060005460ff16155b6114e55760405162461bcd60e51b815260040180806020018281038252602e8152602001806119ce602e913960400191505060405180910390fd5b600054610100900460ff16158015611510576000805460ff1961ff0019909116610100171660011790555b8015610c68576000805461ff001916905550565b600054610100900460ff168061153d575061153d61116d565b8061154b575060005460ff16155b6115865760405162461bcd60e51b815260040180806020018281038252602e8152602001806119ce602e913960400191505060405180910390fd5b600054610100900460ff161580156115b1576000805460ff1961ff0019909116610100171660011790555b82516115c49060689060208601906117ce565b5081516115d89060699060208501906117ce565b50606a805460ff191660121790558015610a18576000805461ff0019169055505050565b8154600090821061163e5760405162461bcd60e51b81526004018080602001828103825260228152602001806118626022913960400191505060405180910390fd5b82600001828154811061164d57fe5b9060005260206000200154905092915050565b60009081526001919091016020526040902054151590565b6000610a5083836040518060400160405280601e81526020017f536166654d6174683a207375627472616374696f6e206f766572666c6f770000815250610eb8565b5490565b60006116ca8383611660565b61170057508154600181810184556000848152602080822090930184905584548482528286019093526040902091909155610742565b506000610742565b600081815260018301602052604081205480156117c4578354600019808301919081019060009087908390811061173b57fe5b906000526020600020015490508087600001848154811061175857fe5b60009182526020808320909101929092558281526001898101909252604090209084019055865487908061178857fe5b60019003818190600052602060002001600090559055866001016000878152602001908152602001600020600090556001945050505050610742565b6000915050610742565b828054600181600116156101000203166002900490600052602060002090601f016020900481019282601f1061180f57805160ff191683800117855561183c565b8280016001018555821561183c579182015b8281111561183c578251825591602001919060010190611821565b5061184892915061184c565b5090565b5b80821115611848576000815560010161184d56fe456e756d657261626c655365743a20696e646578206f7574206f6620626f756e647345524332303a207472616e7366657220746f20746865207a65726f2061646472657373416363657373436f6e74726f6c3a2073656e646572206d75737420626520616e2061646d696e20746f206772616e7445524332303a206275726e20616d6f756e7420657863656564732062616c616e636545524332303a20617070726f766520746f20746865207a65726f206164647265737345524332303a207472616e7366657220616d6f756e7420657863656564732062616c616e6365416363657373436f6e74726f6c3a2063616c6c6572206973206e6f74207468652041737365744d616e6167657220636f6e7472616374416363657373436f6e74726f6c3a2073656e646572206d75737420626520616e2061646d696e20746f207265766f6b6545524332303a207472616e7366657220616d6f756e74206578636565647320616c6c6f77616e6365436f6e747261637420696e7374616e63652068617320616c7265616479206265656e20696e697469616c697a656445524332303a206275726e2066726f6d20746865207a65726f206164647265737345524332303a207472616e736665722066726f6d20746865207a65726f206164647265737345524332303a20617070726f76652066726f6d20746865207a65726f206164647265737345524332303a2064656372656173656420616c6c6f77616e63652062656c6f77207a65726f416363657373436f6e74726f6c3a2063616e206f6e6c792072656e6f756e636520726f6c657320666f722073656c66a26469706673582212200fc62c2b1081edde698ee4ba0b663099c3b7bef2d1c7d0d8cf44fbeb0f03481364736f6c634300060c0033",
  "devdoc": {
    "kind": "dev",
    "methods": {
      "allowance(address,address)": {
        "details": "See {IERC20-allowance}."
      },
      "approve(address,uint256)": {
        "details": "See {IERC20-approve}. Requirements: - `spender` cannot be the zero address."
      },
      "balanceOf(address)": {
        "details": "See {IERC20-balanceOf}."
      },
      "decimals()": {
        "details": "Returns the number of decimals used to get its user representation. For example, if `decimals` equals `2`, a balance of `505` tokens should be displayed to a user as `5,05` (`505 / 10 ** 2`). Tokens usually opt for a value of 18, imitating the relationship between Ether and Wei. This is the value {ERC20} uses, unless {_setupDecimals} is called. NOTE: This information is only used for _display_ purposes: it in no way affects any of the arithmetic of the contract, including {IERC20-balanceOf} and {IERC20-transfer}."
      },
      "decreaseAllowance(address,uint256)": {
        "details": "Atomically decreases the allowance granted to `spender` by the caller. This is an alternative to {approve} that can be used as a mitigation for problems described in {IERC20-approve}. Emits an {Approval} event indicating the updated allowance. Requirements: - `spender` cannot be the zero address. - `spender` must have allowance for the caller of at least `subtractedValue`."
      },
      "getRoleAdmin(bytes32)": {
        "details": "Returns the admin role that controls `role`. See {grantRole} and {revokeRole}. To change a role's admin, use {_setRoleAdmin}."
      },
      "getRoleMember(bytes32,uint256)": {
        "details": "Returns one of the accounts that have `role`. `index` must be a value between 0 and {getRoleMemberCount}, non-inclusive. Role bearers are not sorted in any particular way, and their ordering may change at any point. WARNING: When using {getRoleMember} and {getRoleMemberCount}, make sure you perform all queries on the same block. See the following https://forum.openzeppelin.com/t/iterating-over-elements-on-enumerableset-in-openzeppelin-contracts/2296[forum post] for more information."
      },
      "getRoleMemberCount(bytes32)": {
        "details": "Returns the number of accounts that have `role`. Can be used together with {getRoleMember} to enumerate all bearers of a role."
      },
      "grantRole(bytes32,address)": {
        "details": "Grants `role` to `account`. If `account` had not been already granted `role`, emits a {RoleGranted} event. Requirements: - the caller must have ``role``'s admin role."
      },
      "hasRole(bytes32,address)": {
        "details": "Returns `true` if `account` has been granted `role`."
      },
      "increaseAllowance(address,uint256)": {
        "details": "Atomically increases the allowance granted to `spender` by the caller. This is an alternative to {approve} that can be used as a mitigation for problems described in {IERC20-approve}. Emits an {Approval} event indicating the updated allowance. Requirements: - `spender` cannot be the zero address."
      },
      "name()": {
        "details": "Returns the name of the token."
      },
      "renounceRole(bytes32,address)": {
        "details": "Revokes `role` from the calling account. Roles are often managed via {grantRole} and {revokeRole}: this function's purpose is to provide a mechanism for accounts to lose their privileges if they are compromised (such as when a trusted device is misplaced). If the calling account had been granted `role`, emits a {RoleRevoked} event. Requirements: - the caller must be `account`."
      },
      "revokeRole(bytes32,address)": {
        "details": "Revokes `role` from `account`. If `account` had been granted `role`, emits a {RoleRevoked} event. Requirements: - the caller must have ``role``'s admin role."
      },
      "symbol()": {
        "details": "Returns the symbol of the token, usually a shorter version of the name."
      },
      "totalSupply()": {
        "details": "See {IERC20-totalSupply}."
      },
      "transfer(address,uint256)": {
        "details": "See {IERC20-transfer}. Requirements: - `recipient` cannot be the zero address. - the caller must have a balance of at least `amount`."
      },
      "transferFrom(address,address,uint256)": {
        "details": "See {IERC20-transferFrom}. Emits an {Approval} event indicating the updated allowance. This is not required by the EIP. See the note at the beginning of {ERC20}; Requirements: - `sender` and `recipient` cannot be the zero address. - `sender` must have a balance of at least `amount`. - the caller must have allowance for ``sender``'s tokens of at least `amount`."
      }
    },
    "version": 1
  },
  "userdoc": {
    "kind": "user",
    "methods": {},
    "version": 1
  },
  "storageLayout": {
    "storage": [
      {
        "astId": 8128,
        "contract": "contracts/HonestAsset.sol:HonestAsset",
        "label": "initialized",
        "offset": 0,
        "slot": "0",
        "type": "t_bool"
      },
      {
        "astId": 8131,
        "contract": "contracts/HonestAsset.sol:HonestAsset",
        "label": "initializing",
        "offset": 1,
        "slot": "0",
        "type": "t_bool"
      },
      {
        "astId": 8196,
        "contract": "contracts/HonestAsset.sol:HonestAsset",
        "label": "______gap",
        "offset": 0,
        "slot": "1",
        "type": "t_array(t_uint256)50_storage"
      },
      {
        "astId": 8121,
        "contract": "contracts/HonestAsset.sol:HonestAsset",
        "label": "__gap",
        "offset": 0,
        "slot": "51",
        "type": "t_array(t_uint256)50_storage"
      },
      {
        "astId": 8707,
        "contract": "contracts/HonestAsset.sol:HonestAsset",
        "label": "_balances",
        "offset": 0,
        "slot": "101",
        "type": "t_mapping(t_address,t_uint256)"
      },
      {
        "astId": 8713,
        "contract": "contracts/HonestAsset.sol:HonestAsset",
        "label": "_allowances",
        "offset": 0,
        "slot": "102",
        "type": "t_mapping(t_address,t_mapping(t_address,t_uint256))"
      },
      {
        "astId": 8715,
        "contract": "contracts/HonestAsset.sol:HonestAsset",
        "label": "_totalSupply",
        "offset": 0,
        "slot": "103",
        "type": "t_uint256"
      },
      {
        "astId": 8717,
        "contract": "contracts/HonestAsset.sol:HonestAsset",
        "label": "_name",
        "offset": 0,
        "slot": "104",
        "type": "t_string_storage"
      },
      {
        "astId": 8719,
        "contract": "contracts/HonestAsset.sol:HonestAsset",
        "label": "_symbol",
        "offset": 0,
        "slot": "105",
        "type": "t_string_storage"
      },
      {
        "astId": 8721,
        "contract": "contracts/HonestAsset.sol:HonestAsset",
        "label": "_decimals",
        "offset": 0,
        "slot": "106",
        "type": "t_uint8"
      },
      {
        "astId": 9216,
        "contract": "contracts/HonestAsset.sol:HonestAsset",
        "label": "__gap",
        "offset": 0,
        "slot": "107",
        "type": "t_array(t_uint256)44_storage"
      },
      {
        "astId": 8241,
        "contract": "contracts/HonestAsset.sol:HonestAsset",
        "label": "_roles",
        "offset": 0,
        "slot": "151",
        "type": "t_mapping(t_bytes32,t_struct(RoleData)8237_storage)"
      },
      {
        "astId": 8486,
        "contract": "contracts/HonestAsset.sol:HonestAsset",
        "label": "__gap",
        "offset": 0,
        "slot": "152",
        "type": "t_array(t_uint256)49_storage"
      },
      {
        "astId": 11733,
        "contract": "contracts/HonestAsset.sol:HonestAsset",
        "label": "_assetManagerRole",
        "offset": 0,
        "slot": "201",
        "type": "t_bytes32"
      },
      {
        "astId": 11735,
        "contract": "contracts/HonestAsset.sol:HonestAsset",
        "label": "_vaultRole",
        "offset": 0,
        "slot": "202",
        "type": "t_bytes32"
      },
      {
        "astId": 11737,
        "contract": "contracts/HonestAsset.sol:HonestAsset",
        "label": "_governorRole",
        "offset": 0,
        "slot": "203",
        "type": "t_bytes32"
      }
    ],
    "types": {
      "t_address": {
        "encoding": "inplace",
        "label": "address",
        "numberOfBytes": "20"
      },
      "t_array(t_bytes32)dyn_storage": {
        "base": "t_bytes32",
        "encoding": "dynamic_array",
        "label": "bytes32[]",
        "numberOfBytes": "32"
      },
      "t_array(t_uint256)44_storage": {
        "base": "t_uint256",
        "encoding": "inplace",
        "label": "uint256[44]",
        "numberOfBytes": "1408"
      },
      "t_array(t_uint256)49_storage": {
        "base": "t_uint256",
        "encoding": "inplace",
        "label": "uint256[49]",
        "numberOfBytes": "1568"
      },
      "t_array(t_uint256)50_storage": {
        "base": "t_uint256",
        "encoding": "inplace",
        "label": "uint256[50]",
        "numberOfBytes": "1600"
      },
      "t_bool": {
        "encoding": "inplace",
        "label": "bool",
        "numberOfBytes": "1"
      },
      "t_bytes32": {
        "encoding": "inplace",
        "label": "bytes32",
        "numberOfBytes": "32"
      },
      "t_mapping(t_address,t_mapping(t_address,t_uint256))": {
        "encoding": "mapping",
        "key": "t_address",
        "label": "mapping(address => mapping(address => uint256))",
        "numberOfBytes": "32",
        "value": "t_mapping(t_address,t_uint256)"
      },
      "t_mapping(t_address,t_uint256)": {
        "encoding": "mapping",
        "key": "t_address",
        "label": "mapping(address => uint256)",
        "numberOfBytes": "32",
        "value": "t_uint256"
      },
      "t_mapping(t_bytes32,t_struct(RoleData)8237_storage)": {
        "encoding": "mapping",
        "key": "t_bytes32",
        "label": "mapping(bytes32 => struct AccessControlUpgradeSafe.RoleData)",
        "numberOfBytes": "32",
        "value": "t_struct(RoleData)8237_storage"
      },
      "t_mapping(t_bytes32,t_uint256)": {
        "encoding": "mapping",
        "key": "t_bytes32",
        "label": "mapping(bytes32 => uint256)",
        "numberOfBytes": "32",
        "value": "t_uint256"
      },
      "t_string_storage": {
        "encoding": "bytes",
        "label": "string",
        "numberOfBytes": "32"
      },
      "t_struct(AddressSet)9778_storage": {
        "encoding": "inplace",
        "label": "struct EnumerableSet.AddressSet",
        "members": [
          {
            "astId": 9777,
            "contract": "contracts/HonestAsset.sol:HonestAsset",
            "label": "_inner",
            "offset": 0,
            "slot": "0",
            "type": "t_struct(Set)9598_storage"
          }
        ],
        "numberOfBytes": "64"
      },
      "t_struct(RoleData)8237_storage": {
        "encoding": "inplace",
        "label": "struct AccessControlUpgradeSafe.RoleData",
        "members": [
          {
            "astId": 8234,
            "contract": "contracts/HonestAsset.sol:HonestAsset",
            "label": "members",
            "offset": 0,
            "slot": "0",
            "type": "t_struct(AddressSet)9778_storage"
          },
          {
            "astId": 8236,
            "contract": "contracts/HonestAsset.sol:HonestAsset",
            "label": "adminRole",
            "offset": 0,
            "slot": "2",
            "type": "t_bytes32"
          }
        ],
        "numberOfBytes": "96"
      },
      "t_struct(Set)9598_storage": {
        "encoding": "inplace",
        "label": "struct EnumerableSet.Set",
        "members": [
          {
            "astId": 9593,
            "contract": "contracts/HonestAsset.sol:HonestAsset",
            "label": "_values",
            "offset": 0,
            "slot": "0",
            "type": "t_array(t_bytes32)dyn_storage"
          },
          {
            "astId": 9597,
            "contract": "contracts/HonestAsset.sol:HonestAsset",
            "label": "_indexes",
            "offset": 0,
            "slot": "1",
            "type": "t_mapping(t_bytes32,t_uint256)"
          }
        ],
        "numberOfBytes": "64"
      },
      "t_uint256": {
        "encoding": "inplace",
        "label": "uint256",
        "numberOfBytes": "32"
      },
      "t_uint8": {
        "encoding": "inplace",
        "label": "uint8",
        "numberOfBytes": "1"
      }
    }
  },
  "gasEstimates": {
    "creation": {
      "codeDepositCost": "1379000",
      "executionCost": "1438",
      "totalCost": "1380438"
    },
    "external": {
      "DEFAULT_ADMIN_ROLE()": "309",
      "allowance(address,address)": "1316",
      "approve(address,uint256)": "infinite",
      "assetManagerRole()": "1065",
      "balanceOf(address)": "1253",
      "burn(address,uint256)": "infinite",
      "decimals()": "1059",
      "decreaseAllowance(address,uint256)": "infinite",
      "getRoleAdmin(bytes32)": "1224",
      "getRoleMember(bytes32,uint256)": "infinite",
      "getRoleMemberCount(bytes32)": "infinite",
      "governorRole()": "1087",
      "grantRole(bytes32,address)": "infinite",
      "hasRole(bytes32,address)": "infinite",
      "increaseAllowance(address,uint256)": "infinite",
      "initialize(string,string)": "infinite",
      "mint(address,uint256)": "infinite",
      "name()": "infinite",
      "renounceRole(bytes32,address)": "infinite",
      "revokeRole(bytes32,address)": "infinite",
      "symbol()": "infinite",
      "totalSupply()": "1066",
      "transfer(address,uint256)": "infinite",
      "transferFrom(address,address,uint256)": "infinite",
      "transferOwnership(address)": "infinite",
      "vaultRole()": "1086"
    }
  }
}