{
  "abi": [
    {
      "anonymous": false,
      "inputs": [
        {
          "indexed": true,
          "internalType": "bytes32",
          "name": "role",
          "type": "bytes32"
        },
        {
          "indexed": true,
          "internalType": "address",
          "name": "account",
          "type": "address"
        },
        {
          "indexed": true,
          "internalType": "address",
          "name": "sender",
          "type": "address"
        }
      ],
      "name": "RoleGranted",
      "type": "event"
    },
    {
      "anonymous": false,
      "inputs": [
        {
          "indexed": true,
          "internalType": "bytes32",
          "name": "role",
          "type": "bytes32"
        },
        {
          "indexed": true,
          "internalType": "address",
          "name": "account",
          "type": "address"
        },
        {
          "indexed": true,
          "internalType": "address",
          "name": "sender",
          "type": "address"
        }
      ],
      "name": "RoleRevoked",
      "type": "event"
    },
    {
      "inputs": [],
      "name": "DEFAULT_ADMIN_ROLE",
      "outputs": [
        {
          "internalType": "bytes32",
          "name": "",
          "type": "bytes32"
        }
      ],
      "stateMutability": "view",
      "type": "function"
    },
    {
      "inputs": [],
      "name": "assetManagerRole",
      "outputs": [
        {
          "internalType": "bytes32",
          "name": "",
          "type": "bytes32"
        }
      ],
      "stateMutability": "view",
      "type": "function"
    },
    {
      "inputs": [],
      "name": "balances",
      "outputs": [
        {
          "internalType": "address[]",
          "name": "",
          "type": "address[]"
        },
        {
          "internalType": "uint256[]",
          "name": "",
          "type": "uint256[]"
        },
        {
          "internalType": "uint256",
          "name": "",
          "type": "uint256"
        }
      ],
      "stateMutability": "view",
      "type": "function"
    },
    {
      "inputs": [
        {
          "internalType": "address",
          "name": "account",
          "type": "address"
        },
        {
          "internalType": "uint256",
          "name": "amount",
          "type": "uint256"
        }
      ],
      "name": "deposit",
      "outputs": [
        {
          "internalType": "uint256",
          "name": "",
          "type": "uint256"
        }
      ],
      "stateMutability": "nonpayable",
      "type": "function"
    },
    {
      "inputs": [
        {
          "internalType": "address",
          "name": "account",
          "type": "address"
        },
        {
          "internalType": "address[]",
          "name": "assets",
          "type": "address[]"
        },
        {
          "internalType": "uint256[]",
          "name": "amounts",
          "type": "uint256[]"
        }
      ],
      "name": "distributeManually",
      "outputs": [],
      "stateMutability": "nonpayable",
      "type": "function"
    },
    {
      "inputs": [
        {
          "internalType": "address",
          "name": "account",
          "type": "address"
        },
        {
          "internalType": "uint256",
          "name": "amount",
          "type": "uint256"
        }
      ],
      "name": "distributeProportionally",
      "outputs": [],
      "stateMutability": "nonpayable",
      "type": "function"
    },
    {
      "inputs": [
        {
          "internalType": "bytes32",
          "name": "role",
          "type": "bytes32"
        }
      ],
      "name": "getRoleAdmin",
      "outputs": [
        {
          "internalType": "bytes32",
          "name": "",
          "type": "bytes32"
        }
      ],
      "stateMutability": "view",
      "type": "function"
    },
    {
      "inputs": [
        {
          "internalType": "bytes32",
          "name": "role",
          "type": "bytes32"
        },
        {
          "internalType": "uint256",
          "name": "index",
          "type": "uint256"
        }
      ],
      "name": "getRoleMember",
      "outputs": [
        {
          "internalType": "address",
          "name": "",
          "type": "address"
        }
      ],
      "stateMutability": "view",
      "type": "function"
    },
    {
      "inputs": [
        {
          "internalType": "bytes32",
          "name": "role",
          "type": "bytes32"
        }
      ],
      "name": "getRoleMemberCount",
      "outputs": [
        {
          "internalType": "uint256",
          "name": "",
          "type": "uint256"
        }
      ],
      "stateMutability": "view",
      "type": "function"
    },
    {
      "inputs": [],
      "name": "governorRole",
      "outputs": [
        {
          "internalType": "bytes32",
          "name": "",
          "type": "bytes32"
        }
      ],
      "stateMutability": "view",
      "type": "function"
    },
    {
      "inputs": [
        {
          "internalType": "bytes32",
          "name": "role",
          "type": "bytes32"
        },
        {
          "internalType": "address",
          "name": "account",
          "type": "address"
        }
      ],
      "name": "grantRole",
      "outputs": [],
      "stateMutability": "nonpayable",
      "type": "function"
    },
    {
      "inputs": [
        {
          "internalType": "bytes32",
          "name": "role",
          "type": "bytes32"
        },
        {
          "internalType": "address",
          "name": "account",
          "type": "address"
        }
      ],
      "name": "hasRole",
      "outputs": [
        {
          "internalType": "bool",
          "name": "",
          "type": "bool"
        }
      ],
      "stateMutability": "view",
      "type": "function"
    },
    {
      "inputs": [],
      "name": "honestConfiguration",
      "outputs": [
        {
          "internalType": "address",
          "name": "",
          "type": "address"
        }
      ],
      "stateMutability": "view",
      "type": "function"
    },
    {
      "inputs": [],
      "name": "honestFee",
      "outputs": [
        {
          "internalType": "address",
          "name": "",
          "type": "address"
        }
      ],
      "stateMutability": "view",
      "type": "function"
    },
    {
      "inputs": [
        {
          "internalType": "address",
          "name": "honestConfiguration_",
          "type": "address"
        },
        {
          "internalType": "address",
          "name": "investmentIntegration_",
          "type": "address"
        },
        {
          "internalType": "address",
          "name": "honestFee_",
          "type": "address"
        }
      ],
      "name": "initialize",
      "outputs": [],
      "stateMutability": "nonpayable",
      "type": "function"
    },
    {
      "inputs": [],
      "name": "investmentIntegration",
      "outputs": [
        {
          "internalType": "address",
          "name": "",
          "type": "address"
        }
      ],
      "stateMutability": "view",
      "type": "function"
    },
    {
      "inputs": [
        {
          "internalType": "bytes32",
          "name": "role",
          "type": "bytes32"
        },
        {
          "internalType": "address",
          "name": "account",
          "type": "address"
        }
      ],
      "name": "renounceRole",
      "outputs": [],
      "stateMutability": "nonpayable",
      "type": "function"
    },
    {
      "inputs": [
        {
          "internalType": "bytes32",
          "name": "role",
          "type": "bytes32"
        },
        {
          "internalType": "address",
          "name": "account",
          "type": "address"
        }
      ],
      "name": "revokeRole",
      "outputs": [],
      "stateMutability": "nonpayable",
      "type": "function"
    },
    {
      "inputs": [
        {
          "internalType": "address",
          "name": "account",
          "type": "address"
        }
      ],
      "name": "shareOf",
      "outputs": [
        {
          "internalType": "uint256",
          "name": "",
          "type": "uint256"
        }
      ],
      "stateMutability": "view",
      "type": "function"
    },
    {
      "inputs": [],
      "name": "shareValue",
      "outputs": [
        {
          "internalType": "uint256",
          "name": "",
          "type": "uint256"
        }
      ],
      "stateMutability": "view",
      "type": "function"
    },
    {
      "inputs": [],
      "name": "totalWeight",
      "outputs": [
        {
          "internalType": "uint256",
          "name": "",
          "type": "uint256"
        }
      ],
      "stateMutability": "view",
      "type": "function"
    },
    {
      "inputs": [
        {
          "internalType": "address",
          "name": "to",
          "type": "address"
        }
      ],
      "name": "transferOwnership",
      "outputs": [],
      "stateMutability": "nonpayable",
      "type": "function"
    },
    {
      "inputs": [],
      "name": "vaultRole",
      "outputs": [
        {
          "internalType": "bytes32",
          "name": "",
          "type": "bytes32"
        }
      ],
      "stateMutability": "view",
      "type": "function"
    },
    {
      "inputs": [
        {
          "internalType": "address",
          "name": "account",
          "type": "address"
        }
      ],
      "name": "weightOf",
      "outputs": [
        {
          "internalType": "uint256",
          "name": "",
          "type": "uint256"
        }
      ],
      "stateMutability": "view",
      "type": "function"
    },
    {
      "inputs": [
        {
          "internalType": "address",
          "name": "account",
          "type": "address"
        },
        {
          "internalType": "uint256",
          "name": "weight",
          "type": "uint256"
        }
      ],
      "name": "withdraw",
      "outputs": [
        {
          "internalType": "uint256",
          "name": "",
          "type": "uint256"
        }
      ],
      "stateMutability": "nonpayable",
      "type": "function"
    }
  ],
  "address": "0xf45fe1e33fbdf1c9B683cE198266a13da5c21e61",
  "args": [],
  "solcInputHash": "0x57f8616e1b9f5e60b5dddddb3a19aaaa55edb00aeb2821c2b44dfb8838d95b70",
  "bytecode": "0x608060405234801561001057600080fd5b50612ca2806100206000396000f3fe608060405234801561001057600080fd5b50600436106101735760003560e01c806391d14854116100de578063ce16489e11610097578063eaf896fd11610071578063eaf896fd14610553578063f017dd7e1461055b578063f2fde38b14610563578063f3fef3a31461058957610173565b8063ce16489e146104f9578063d547741f14610501578063dd4bc1011461052d57610173565b806391d148541461044c57806396c82e571461048c578063a217fddf14610494578063c0c53b8b1461049c578063c1f649f7146104d4578063ca15c873146104dc57610173565b806347e7ef241161013057806347e7ef24146102fd57806349dcd6a114610329578063671716f5146103315780637bb98a68146103555780637ed642f8146103fd5780639010d07c1461042957610173565b806316da43ea1461017857806321e5e2c414610248578063248a9ca3146102805780632f2ff15d1461029d57806336568abe146102c9578063447b15f4146102f5575b600080fd5b6102466004803603606081101561018e57600080fd5b6001600160a01b038235169190810190604081016020820135600160201b8111156101b857600080fd5b8201836020820111156101ca57600080fd5b803590602001918460208302840111600160201b831117156101eb57600080fd5b919390929091602081019035600160201b81111561020857600080fd5b82018360208201111561021a57600080fd5b803590602001918460208302840111600160201b8311171561023b57600080fd5b5090925090506105b5565b005b61026e6004803603602081101561025e57600080fd5b50356001600160a01b0316610879565b60408051918252519081900360200190f35b61026e6004803603602081101561029657600080fd5b5035610894565b610246600480360360408110156102b357600080fd5b50803590602001356001600160a01b03166108a9565b610246600480360360408110156102df57600080fd5b50803590602001356001600160a01b0316610915565b61026e610976565b61026e6004803603604081101561031357600080fd5b506001600160a01b038135169060200135610a4e565b61026e610bcc565b610339610bd2565b604080516001600160a01b039092168252519081900360200190f35b61035d610be1565b604051808060200180602001848152602001838103835286818151815260200191508051906020019060200280838360005b838110156103a757818101518382015260200161038f565b50505050905001838103825285818151815260200191508051906020019060200280838360005b838110156103e65781810151838201526020016103ce565b505050509050019550505050505060405180910390f35b6102466004803603604081101561041357600080fd5b506001600160a01b038135169060200135610bfb565b6103396004803603604081101561043f57600080fd5b5080359060200135610d25565b6104786004803603604081101561046257600080fd5b50803590602001356001600160a01b0316610d44565b604080519115158252519081900360200190f35b61026e610d5c565b61026e610d62565b610246600480360360608110156104b257600080fd5b506001600160a01b038135811691602081013582169160409091013516610d67565b610339610f20565b61026e600480360360208110156104f257600080fd5b5035610f2f565b61026e610f46565b6102466004803603604081101561051757600080fd5b50803590602001356001600160a01b0316610f4c565b61026e6004803603602081101561054357600080fd5b50356001600160a01b0316610fa5565b61026e610fc0565b610339610fc6565b6102466004803603602081101561057957600080fd5b50356001600160a01b0316610fd5565b61026e6004803603604081101561059f57600080fd5b506001600160a01b038135169060200135610ff5565b6105c160975433610d44565b6105fc5760405162461bcd60e51b8152600401808060200182810382526036815260200180612a0f6036913960400191505060405180910390fd5b60608367ffffffffffffffff8111801561061557600080fd5b5060405190808252806020026020018201604052801561063f578160200160208202803683370190505b5090506000805b8581101561082857600085858381811061065c57fe5b90506020020135116106b5576040805162461bcd60e51b815260206004820152601d60248201527f616d6f756e74206d7573742062652067726561746572207468616e2030000000604482015290519081900360640190fd5b6106db60008888848181106106c657fe5b905060200201356001600160a01b03166111bf565b8585838181106106e757fe5b905060200201351115610738576040805162461bcd60e51b8152602060048201526014602482015273696e73756666696369656e742062616c616e636560601b604482015290519081900360640190fd5b600061074b60018989858181106106c657fe5b90508086868481811061075a57fe5b9050602002013511156107e75761078d8989898581811061077757fe5b905060200201356001600160a01b0316836112a3565b6107b28187878581811061079d57fe5b905060200201356112bc90919063ffffffff16565b8483815181106107be57fe5b6020026020010181815250508382815181106107d657fe5b60200260200101518301925061081f565b61081f898989858181106107f757fe5b905060200201356001600160a01b031688888681811061081357fe5b905060200201356112a3565b50600101610646565b50801561087057610870878787808060200260200160405190810160405280939291908181526020018383602002808284376000920191909152508792508691506112fe9050565b50505050505050565b6001600160a01b03166000908152609e602052604090205490565b60009081526065602052604090206002015490565b6000828152606560205260409020600201546108cc906108c7611497565b610d44565b6109075760405162461bcd60e51b815260040180806020018281038252602f8152602001806129a7602f913960400191505060405180910390fd5b610911828261149b565b5050565b61091d611497565b6001600160a01b0316816001600160a01b03161461096c5760405162461bcd60e51b815260040180806020018281038252602f815260200180612c13602f913960400191505060405180910390fd5b6109118282611504565b600060a054600014156109925750670de0b6b3a7640000610a4b565b609c5460408051636c003a9b60e01b815290516000926001600160a01b031691636c003a9b916004808301926020929190829003018186803b1580156109d757600080fd5b505afa1580156109eb573d6000803e3d6000fd5b505050506040513d6020811015610a0157600080fd5b505190506000610a11600261156d565b92505050610a4660a054610a40670de0b6b3a7640000610a3a868661175290919063ffffffff16565b906117ac565b90611805565b925050505b90565b6000610a5c60975433610d44565b610a975760405162461bcd60e51b8152600401808060200182810382526036815260200180612a0f6036913960400191505060405180910390fd5b6001600160a01b038316610adc5760405162461bcd60e51b815260040180806020018281038252602a815260200180612b89602a913960400191505060405180910390fd5b60008211610b1b5760405162461bcd60e51b8152600401808060200182810382526032815260200180612ad96032913960400191505060405180910390fd5b6000610b2683611847565b6001600160a01b0385166000908152609d6020526040902054909150610b4c9084611752565b6001600160a01b0385166000908152609d6020526040902055609f54610b729084611752565b609f556001600160a01b0384166000908152609e6020526040902054610b989082611752565b6001600160a01b0385166000908152609e602052604090205560a054610bbe9082611752565b60a055508190505b92915050565b60975490565b609a546001600160a01b031690565b6060806000610bf0600061156d565b925092509250909192565b610c0760975433610d44565b610c425760405162461bcd60e51b8152600401808060200182810382526036815260200180612a0f6036913960400191505060405180910390fd5b6060806000610c51600161156d565b92509250925060005b8351811015610d1d576000838281518110610c7157fe5b60200260200101511115610d15576000610cab83610a4088878681518110610c9557fe5b60200260200101516117ac90919063ffffffff16565b9050838281518110610cb957fe5b6020026020010151811015610ce25780848381518110610cd557fe5b6020026020010181815250505b610d1387868481518110610cf257fe5b6020026020010151868581518110610d0657fe5b60200260200101516112a3565b505b600101610c5a565b505050505050565b6000828152606560205260408120610d3d90836119f2565b9392505050565b6000828152606560205260408120610d3d90836119fe565b609f5490565b600081565b600054610100900460ff1680610d805750610d80611a13565b80610d8e575060005460ff16155b610dc95760405162461bcd60e51b815260040180806020018281038252602e815260200180612b5b602e913960400191505060405180910390fd5b600054610100900460ff16158015610df4576000805460ff1961ff0019909116610100171660011790555b6001600160a01b038416610e395760405162461bcd60e51b81526004018080602001828103825260398152602001806129d66039913960400191505060405180910390fd5b6001600160a01b038316610e7e5760405162461bcd60e51b815260040180806020018281038252603b815260200180612a6e603b913960400191505060405180910390fd5b6001600160a01b038216610ec35760405162461bcd60e51b815260040180806020018281038252602f815260200180612b0b602f913960400191505060405180910390fd5b610ecb611a19565b609a80546001600160a01b038087166001600160a01b031992831617909255609b8054868416908316179055609c8054928516929091169190911790558015610f1a576000805461ff00191690555b50505050565b609c546001600160a01b031690565b6000818152606560205260408120610bc690611b38565b60995490565b600082815260656020526040902060020154610f6a906108c7611497565b61096c5760405162461bcd60e51b8152600401808060200182810382526030815260200180612aa96030913960400191505060405180910390fd5b6001600160a01b03166000908152609d602052604090205490565b60985490565b609b546001600160a01b031690565b610fe06000826108a9565b610ff26000610fed611497565b610f4c565b50565b600061100360975433610d44565b61103e5760405162461bcd60e51b8152600401808060200182810382526036815260200180612a0f6036913960400191505060405180910390fd5b6001600160a01b0383166110835760405162461bcd60e51b815260040180806020018281038252602b815260200180612c42602b913960400191505060405180910390fd5b6001600160a01b0383166000908152609d60205260409020548211156110da5760405162461bcd60e51b8152600401808060200182810382526029815260200180612a456029913960400191505060405180910390fd5b6001600160a01b0383166000908152609d6020908152604080832054609e90925282205461110e9190610a409086906117ac565b9050600061111c8583611b43565b6001600160a01b0386166000908152609d602052604090205490915061114290856112bc565b6001600160a01b0386166000908152609d6020526040902055609f5461116890856112bc565b609f556001600160a01b0385166000908152609e602052604090205461118e90836112bc565b6001600160a01b0386166000908152609e602052604090205560a0546111b490836112bc565b60a055949350505050565b600060018360028111156111cf57fe5b14156111ef576111e86001600160a01b0383163061204b565b9050610bc6565b60028360028111156111fd57fe5b141561128457609c546040805163077d333f60e21b815290516111e8926001600160a01b031691631df4ccfc916004808301926020929190829003018186803b15801561124957600080fd5b505afa15801561125d573d6000803e3d6000fd5b505050506040513d602081101561127357600080fd5b505161127e846120db565b90611752565b6111e8611290836120db565b61127e6001600160a01b0385163061204b565b6112b76001600160a01b038316848361215e565b505050565b6000610d3d83836040518060400160405280601e81526020017f536166654d6174683a207375627472616374696f6e206f766572666c6f77000081525061217d565b60005b835181101561148657609b5484516000916001600160a01b03169063b95ed06f9087908590811061132e57fe5b60200260200101516040518263ffffffff1660e01b815260040180826001600160a01b0316815260200191505060206040518083038186803b15801561137357600080fd5b505afa158015611387573d6000803e3d6000fd5b505050506040513d602081101561139d57600080fd5b505184519091506000906113c7908390610a4090670de0b6b3a764000090899088908110610c9557fe5b609b5487519192506001600160a01b03169063c8fea2fb9089908990879081106113ed57fe5b6020026020010151846040518463ffffffff1660e01b815260040180846001600160a01b03168152602001836001600160a01b031681526020018281526020019350505050602060405180830381600087803b15801561144c57600080fd5b505af1158015611460573d6000803e3d6000fd5b505050506040513d602081101561147657600080fd5b5050600190920191506113019050565b5061149081611847565b5050505050565b3390565b60008281526065602052604090206114b39082612214565b15610911576114c0611497565b6001600160a01b0316816001600160a01b0316837f2f8788117e7eff1d82e926ec794901d17c78024a50270940304540a733656f0d60405160405180910390a45050565b600082815260656020526040902061151c9082612229565b1561091157611529611497565b6001600160a01b0316816001600160a01b0316837ff6391f5c32d9c69d2a47ea670b442974b53935d1edc7fd64eb21e047a839171b60405160405180910390a45050565b60608060006060609a60009054906101000a90046001600160a01b03166001600160a01b031663c00544e76040518163ffffffff1660e01b815260040160006040518083038186803b1580156115c257600080fd5b505afa1580156115d6573d6000803e3d6000fd5b505050506040513d6000823e601f3d908101601f1916820160405260208110156115ff57600080fd5b8101908080516040519392919084600160201b82111561161e57600080fd5b90830190602082018581111561163357600080fd5b82518660208202830111600160201b8211171561164f57600080fd5b82525081516020918201928201910280838360005b8381101561167c578181015183820152602001611664565b5050505090500160405250505090506060815167ffffffffffffffff811180156116a557600080fd5b506040519080825280602002602001820160405280156116cf578160200160208202803683370190505b5090506000805b8351811015611744576116fc888583815181106116ef57fe5b60200260200101516111bf565b83828151811061170857fe5b60200260200101818152505061173a83828151811061172357fe5b60200260200101518361175290919063ffffffff16565b91506001016116d6565b509196909550909350915050565b600082820183811015610d3d576040805162461bcd60e51b815260206004820152601b60248201527f536166654d6174683a206164646974696f6e206f766572666c6f770000000000604482015290519081900360640190fd5b6000826117bb57506000610bc6565b828202828482816117c857fe5b0414610d3d5760405162461bcd60e51b8152600401808060200182810382526021815260200180612b3a6021913960400191505060405180910390fd5b6000610d3d83836040518060400160405280601a81526020017f536166654d6174683a206469766973696f6e206279207a65726f00000000000081525061223e565b60006060806000611858600161156d565b925092509250600061187d61186b610976565b610a4088670de0b6b3a76400006117ac565b905060005b84518110156119e85760006118e56118ba85610a408886815181106118a357fe5b60200260200101518c6117ac90919063ffffffff16565b8784815181106118c657fe5b60200260200101516001600160a01b03166122a390919063ffffffff16565b905080156119df57609b54865161192e916001600160a01b031690839089908690811061190e57fe5b60200260200101516001600160a01b03166123829092919063ffffffff16565b609b5486516001600160a01b039091169063653ac42290309089908690811061195357fe5b6020026020010151846040518463ffffffff1660e01b815260040180846001600160a01b03168152602001836001600160a01b031681526020018281526020019350505050602060405180830381600087803b1580156119b257600080fd5b505af11580156119c6573d6000803e3d6000fd5b505050506040513d60208110156119dc57600080fd5b50505b50600101611882565b5095945050505050565b6000610d3d8383612495565b6000610d3d836001600160a01b0384166124f9565b303b1590565b600054610100900460ff1680611a325750611a32611a13565b80611a40575060005460ff16155b611a7b5760405162461bcd60e51b815260040180806020018281038252602e815260200180612b5b602e913960400191505060405180910390fd5b600054610100900460ff16158015611aa6576000805460ff1961ff0019909116610100171660011790555b611ab86000611ab3611497565b610907565b7f6bc9af616991ee5669a4db9fdf1be40cf0f301aaa197206636e2f4b9a3c7af3b6097557f81349814bed7dfa157b76a21259a8d40c0afbebce228b6fa6309925210da2d6d6098557f172d99a02b0e57f8f6fa2be8cb376f24af61ff9401d1c478debdb285b6512b1f6099558015610ff2576000805461ff001916905550565b6000610bc682612511565b600080611b4e610976565b90506000611b68670de0b6b3a7640000610a4086856117ac565b90506000609c60009054906101000a90046001600160a01b03166001600160a01b0316636c003a9b6040518163ffffffff1660e01b815260040160206040518083038186803b158015611bba57600080fd5b505afa158015611bce573d6000803e3d6000fd5b505050506040513d6020811015611be457600080fd5b5051609b5460408051630198a77d60e11b81529051929350606092839260009283926001600160a01b03909216916303314efa916004808201928692909190829003018186803b158015611c3757600080fd5b505afa158015611c4b573d6000803e3d6000fd5b505050506040513d6000823e601f3d908101601f191682016040526080811015611c7457600080fd5b8101908080516040519392919084600160201b821115611c9357600080fd5b908301906020820185811115611ca857600080fd5b82518660208202830111600160201b82111715611cc457600080fd5b82525081516020918201928201910280838360005b83811015611cf1578181015183820152602001611cd9565b5050505090500160405260200180516040519392919084600160201b821115611d1957600080fd5b908301906020820185811115611d2e57600080fd5b82518660208202830111600160201b82111715611d4a57600080fd5b82525081516020918201928201910280838360005b83811015611d77578181015183820152602001611d5f565b50505050919091016040908152602083015192015195995093975095509293505086159150611e2f905057609c546001600160a01b031663a45d73258b611dbc610976565b6040518363ffffffff1660e01b815260040180836001600160a01b0316815260200182815260200192505050602060405180830381600087803b158015611e0257600080fd5b505af1158015611e16573d6000803e3d6000fd5b505050506040513d6020811015611e2c57600080fd5b50505b6000611e4b82610a40670de0b6b3a7640000610a3a8b8b6112bc565b90506000805b865181101561203b576000611e8686610a40898581518110611e6f57fe5b6020026020010151876117ac90919063ffffffff16565b90506000878381518110611e9657fe5b6020026020010151821115611f6f57609b5489516001600160a01b039091169063c8fea2fb9030908c9087908110611eca57fe5b60200260200101518b8781518110611ede57fe5b60200260200101516040518463ffffffff1660e01b815260040180846001600160a01b03168152602001836001600160a01b031681526020018281526020019350505050602060405180830381600087803b158015611f3c57600080fd5b505af1158015611f50573d6000803e3d6000fd5b505050506040513d6020811015611f6657600080fd5b50519050612022565b609b5489516001600160a01b039091169063c8fea2fb9030908c9087908110611f9457fe5b6020026020010151856040518463ffffffff1660e01b815260040180846001600160a01b03168152602001836001600160a01b031681526020018281526020019350505050602060405180830381600087803b158015611ff357600080fd5b505af1158015612007573d6000803e3d6000fd5b505050506040513d602081101561201d57600080fd5b505190505b61202c8482611752565b93505050806001019050611e51565b509b9a5050505050505050505050565b600080836001600160a01b03166370a08231846040518263ffffffff1660e01b815260040180826001600160a01b0316815260200191505060206040518083038186803b15801561209b57600080fd5b505afa1580156120af573d6000803e3d6000fd5b505050506040513d60208110156120c557600080fd5b505190506120d38482612515565b949350505050565b609b54604080516370a0823160e01b81526001600160a01b038481166004830152915160009392909216916370a0823191602480820192602092909190829003018186803b15801561212c57600080fd5b505afa158015612140573d6000803e3d6000fd5b505050506040513d602081101561215657600080fd5b505192915050565b6112b78261216c85846122a3565b6001600160a01b03861691906125f4565b6000818484111561220c5760405162461bcd60e51b81526004018080602001828103825283818151815260200191508051906020019080838360005b838110156121d15781810151838201526020016121b9565b50505050905090810190601f1680156121fe5780820380516001836020036101000a031916815260200191505b509250505060405180910390fd5b505050900390565b6000610d3d836001600160a01b038416612646565b6000610d3d836001600160a01b038416612690565b6000818361228d5760405162461bcd60e51b81526020600482018181528351602484015283519092839260449091019190850190808383600083156121d15781810151838201526020016121b9565b50600083858161229957fe5b0495945050505050565b600080836001600160a01b031663313ce5676040518163ffffffff1660e01b815260040160206040518083038186803b1580156122df57600080fd5b505afa1580156122f3573d6000803e3d6000fd5b505050506040513d602081101561230957600080fd5b50519050601260ff82161115612359576040805162461bcd60e51b815260206004820152601060248201526f696c6c6567616c20646563696d616c7360801b604482015290519081900360640190fd5b60ff81166012141561236e5782915050610bc6565b6120d38360ff601284900316600a0a611805565b801580612408575060408051636eb1769f60e11b81523060048201526001600160a01b03848116602483015291519185169163dd62ed3e91604480820192602092909190829003018186803b1580156123da57600080fd5b505afa1580156123ee573d6000803e3d6000fd5b505050506040513d602081101561240457600080fd5b5051155b6124435760405162461bcd60e51b8152600401808060200182810382526036815260200180612bdd6036913960400191505060405180910390fd5b604080516001600160a01b038416602482015260448082018490528251808303909101815260649091019091526020810180516001600160e01b031663095ea7b360e01b1790526112b7908490612756565b815460009082106124d75760405162461bcd60e51b81526004018080602001828103825260228152602001806129856022913960400191505060405180910390fd5b8260000182815481106124e657fe5b9060005260206000200154905092915050565b60009081526001919091016020526040902054151590565b5490565b600080836001600160a01b031663313ce5676040518163ffffffff1660e01b815260040160206040518083038186803b15801561255157600080fd5b505afa158015612565573d6000803e3d6000fd5b505050506040513d602081101561257b57600080fd5b50519050601260ff821611156125cb576040805162461bcd60e51b815260206004820152601060248201526f696c6c6567616c20646563696d616c7360801b604482015290519081900360640190fd5b60ff8116601214156125e05782915050610bc6565b6120d38360ff601284900316600a0a6117ac565b604080516001600160a01b038416602482015260448082018490528251808303909101815260649091019091526020810180516001600160e01b031663a9059cbb60e01b1790526112b7908490612756565b600061265283836124f9565b61268857508154600181810184556000848152602080822090930184905584548482528286019093526040902091909155610bc6565b506000610bc6565b6000818152600183016020526040812054801561274c57835460001980830191908101906000908790839081106126c357fe5b90600052602060002001549050808760000184815481106126e057fe5b60009182526020808320909101929092558281526001898101909252604090209084019055865487908061271057fe5b60019003818190600052602060002001600090559055866001016000878152602001908152602001600020600090556001945050505050610bc6565b6000915050610bc6565b60606127ab826040518060400160405280602081526020017f5361666545524332303a206c6f772d6c6576656c2063616c6c206661696c6564815250856001600160a01b03166128079092919063ffffffff16565b8051909150156112b7578080602001905160208110156127ca57600080fd5b50516112b75760405162461bcd60e51b815260040180806020018281038252602a815260200180612bb3602a913960400191505060405180910390fd5b60606120d38484600085606061281c8561297e565b61286d576040805162461bcd60e51b815260206004820152601d60248201527f416464726573733a2063616c6c20746f206e6f6e2d636f6e7472616374000000604482015290519081900360640190fd5b60006060866001600160a01b031685876040518082805190602001908083835b602083106128ac5780518252601f19909201916020918201910161288d565b6001836020036101000a03801982511681845116808217855250505050505090500191505060006040518083038185875af1925050503d806000811461290e576040519150601f19603f3d011682016040523d82523d6000602084013e612913565b606091505b509150915081156129275791506120d39050565b8051156129375780518082602001fd5b60405162461bcd60e51b81526020600482018181528651602484015286518793919283926044019190850190808383600083156121d15781810151838201526020016121b9565b3b15159056fe456e756d657261626c655365743a20696e646578206f7574206f6620626f756e6473416363657373436f6e74726f6c3a2073656e646572206d75737420626520616e2061646d696e20746f206772616e74486f6e6573745661756c742e696e697469616c697a653a20686f6e657374436f6e66696775726174696f6e206d7573742062652076616c6964416363657373436f6e74726f6c3a2063616c6c6572206973206e6f74207468652041737365744d616e6167657220636f6e7472616374486f6e6573745661756c742e77697468647261773a20696e73756666696369656e7420776569676874486f6e6573745661756c742e696e697469616c697a653a20696e766573746d656e74496e746567726174696f6e206d7573742062652076616c6964416363657373436f6e74726f6c3a2073656e646572206d75737420626520616e2061646d696e20746f207265766f6b65486f6e6573745661756c742e6465706f7369743a20616d6f756e74206d7573742062652067726561746572207468616e2030486f6e6573745661756c742e696e697469616c697a653a20686f6e657374466565206d7573742062652076616c6964536166654d6174683a206d756c7469706c69636174696f6e206f766572666c6f77436f6e747261637420696e7374616e63652068617320616c7265616479206265656e20696e697469616c697a6564486f6e6573745661756c742e6465706f7369743a206163636f756e74206d7573742062652076616c69645361666545524332303a204552433230206f7065726174696f6e20646964206e6f7420737563636565645361666545524332303a20617070726f76652066726f6d206e6f6e2d7a65726f20746f206e6f6e2d7a65726f20616c6c6f77616e6365416363657373436f6e74726f6c3a2063616e206f6e6c792072656e6f756e636520726f6c657320666f722073656c66486f6e6573745661756c742e77697468647261773a206163636f756e74206d7573742062652076616c6964a264697066735822122059acd7f4e5a5bca8dd2485458d188dc05a9c36612873c9b53ded8be7cc755d9d64736f6c634300060c0033",
  "devdoc": {
    "kind": "dev",
    "methods": {
      "getRoleAdmin(bytes32)": {
        "details": "Returns the admin role that controls `role`. See {grantRole} and {revokeRole}. To change a role's admin, use {_setRoleAdmin}."
      },
      "getRoleMember(bytes32,uint256)": {
        "details": "Returns one of the accounts that have `role`. `index` must be a value between 0 and {getRoleMemberCount}, non-inclusive. Role bearers are not sorted in any particular way, and their ordering may change at any point. WARNING: When using {getRoleMember} and {getRoleMemberCount}, make sure you perform all queries on the same block. See the following https://forum.openzeppelin.com/t/iterating-over-elements-on-enumerableset-in-openzeppelin-contracts/2296[forum post] for more information."
      },
      "getRoleMemberCount(bytes32)": {
        "details": "Returns the number of accounts that have `role`. Can be used together with {getRoleMember} to enumerate all bearers of a role."
      },
      "grantRole(bytes32,address)": {
        "details": "Grants `role` to `account`. If `account` had not been already granted `role`, emits a {RoleGranted} event. Requirements: - the caller must have ``role``'s admin role."
      },
      "hasRole(bytes32,address)": {
        "details": "Returns `true` if `account` has been granted `role`."
      },
      "renounceRole(bytes32,address)": {
        "details": "Revokes `role` from the calling account. Roles are often managed via {grantRole} and {revokeRole}: this function's purpose is to provide a mechanism for accounts to lose their privileges if they are compromised (such as when a trusted device is misplaced). If the calling account had been granted `role`, emits a {RoleRevoked} event. Requirements: - the caller must be `account`."
      },
      "revokeRole(bytes32,address)": {
        "details": "Revokes `role` from `account`. If `account` had been granted `role`, emits a {RoleRevoked} event. Requirements: - the caller must have ``role``'s admin role."
      }
    },
    "version": 1
  },
  "userdoc": {
    "kind": "user",
    "methods": {},
    "version": 1
  },
  "storageLayout": {
    "storage": [
      {
        "astId": 8128,
        "contract": "contracts/HonestVault.sol:HonestVault",
        "label": "initialized",
        "offset": 0,
        "slot": "0",
        "type": "t_bool"
      },
      {
        "astId": 8131,
        "contract": "contracts/HonestVault.sol:HonestVault",
        "label": "initializing",
        "offset": 1,
        "slot": "0",
        "type": "t_bool"
      },
      {
        "astId": 8196,
        "contract": "contracts/HonestVault.sol:HonestVault",
        "label": "______gap",
        "offset": 0,
        "slot": "1",
        "type": "t_array(t_uint256)50_storage"
      },
      {
        "astId": 8121,
        "contract": "contracts/HonestVault.sol:HonestVault",
        "label": "__gap",
        "offset": 0,
        "slot": "51",
        "type": "t_array(t_uint256)50_storage"
      },
      {
        "astId": 8241,
        "contract": "contracts/HonestVault.sol:HonestVault",
        "label": "_roles",
        "offset": 0,
        "slot": "101",
        "type": "t_mapping(t_bytes32,t_struct(RoleData)8237_storage)"
      },
      {
        "astId": 8486,
        "contract": "contracts/HonestVault.sol:HonestVault",
        "label": "__gap",
        "offset": 0,
        "slot": "102",
        "type": "t_array(t_uint256)49_storage"
      },
      {
        "astId": 11733,
        "contract": "contracts/HonestVault.sol:HonestVault",
        "label": "_assetManagerRole",
        "offset": 0,
        "slot": "151",
        "type": "t_bytes32"
      },
      {
        "astId": 11735,
        "contract": "contracts/HonestVault.sol:HonestVault",
        "label": "_vaultRole",
        "offset": 0,
        "slot": "152",
        "type": "t_bytes32"
      },
      {
        "astId": 11737,
        "contract": "contracts/HonestVault.sol:HonestVault",
        "label": "_governorRole",
        "offset": 0,
        "slot": "153",
        "type": "t_bytes32"
      },
      {
        "astId": 13501,
        "contract": "contracts/HonestVault.sol:HonestVault",
        "label": "_honestConfiguration",
        "offset": 0,
        "slot": "154",
        "type": "t_address"
      },
      {
        "astId": 13503,
        "contract": "contracts/HonestVault.sol:HonestVault",
        "label": "_investmentIntegration",
        "offset": 0,
        "slot": "155",
        "type": "t_address"
      },
      {
        "astId": 13505,
        "contract": "contracts/HonestVault.sol:HonestVault",
        "label": "_honestFee",
        "offset": 0,
        "slot": "156",
        "type": "t_address"
      },
      {
        "astId": 13509,
        "contract": "contracts/HonestVault.sol:HonestVault",
        "label": "_weights",
        "offset": 0,
        "slot": "157",
        "type": "t_mapping(t_address,t_uint256)"
      },
      {
        "astId": 13513,
        "contract": "contracts/HonestVault.sol:HonestVault",
        "label": "_shares",
        "offset": 0,
        "slot": "158",
        "type": "t_mapping(t_address,t_uint256)"
      },
      {
        "astId": 13515,
        "contract": "contracts/HonestVault.sol:HonestVault",
        "label": "_totalWeight",
        "offset": 0,
        "slot": "159",
        "type": "t_uint256"
      },
      {
        "astId": 13517,
        "contract": "contracts/HonestVault.sol:HonestVault",
        "label": "_totalShare",
        "offset": 0,
        "slot": "160",
        "type": "t_uint256"
      }
    ],
    "types": {
      "t_address": {
        "encoding": "inplace",
        "label": "address",
        "numberOfBytes": "20"
      },
      "t_array(t_bytes32)dyn_storage": {
        "base": "t_bytes32",
        "encoding": "dynamic_array",
        "label": "bytes32[]",
        "numberOfBytes": "32"
      },
      "t_array(t_uint256)49_storage": {
        "base": "t_uint256",
        "encoding": "inplace",
        "label": "uint256[49]",
        "numberOfBytes": "1568"
      },
      "t_array(t_uint256)50_storage": {
        "base": "t_uint256",
        "encoding": "inplace",
        "label": "uint256[50]",
        "numberOfBytes": "1600"
      },
      "t_bool": {
        "encoding": "inplace",
        "label": "bool",
        "numberOfBytes": "1"
      },
      "t_bytes32": {
        "encoding": "inplace",
        "label": "bytes32",
        "numberOfBytes": "32"
      },
      "t_mapping(t_address,t_uint256)": {
        "encoding": "mapping",
        "key": "t_address",
        "label": "mapping(address => uint256)",
        "numberOfBytes": "32",
        "value": "t_uint256"
      },
      "t_mapping(t_bytes32,t_struct(RoleData)8237_storage)": {
        "encoding": "mapping",
        "key": "t_bytes32",
        "label": "mapping(bytes32 => struct AccessControlUpgradeSafe.RoleData)",
        "numberOfBytes": "32",
        "value": "t_struct(RoleData)8237_storage"
      },
      "t_mapping(t_bytes32,t_uint256)": {
        "encoding": "mapping",
        "key": "t_bytes32",
        "label": "mapping(bytes32 => uint256)",
        "numberOfBytes": "32",
        "value": "t_uint256"
      },
      "t_struct(AddressSet)9778_storage": {
        "encoding": "inplace",
        "label": "struct EnumerableSet.AddressSet",
        "members": [
          {
            "astId": 9777,
            "contract": "contracts/HonestVault.sol:HonestVault",
            "label": "_inner",
            "offset": 0,
            "slot": "0",
            "type": "t_struct(Set)9598_storage"
          }
        ],
        "numberOfBytes": "64"
      },
      "t_struct(RoleData)8237_storage": {
        "encoding": "inplace",
        "label": "struct AccessControlUpgradeSafe.RoleData",
        "members": [
          {
            "astId": 8234,
            "contract": "contracts/HonestVault.sol:HonestVault",
            "label": "members",
            "offset": 0,
            "slot": "0",
            "type": "t_struct(AddressSet)9778_storage"
          },
          {
            "astId": 8236,
            "contract": "contracts/HonestVault.sol:HonestVault",
            "label": "adminRole",
            "offset": 0,
            "slot": "2",
            "type": "t_bytes32"
          }
        ],
        "numberOfBytes": "96"
      },
      "t_struct(Set)9598_storage": {
        "encoding": "inplace",
        "label": "struct EnumerableSet.Set",
        "members": [
          {
            "astId": 9593,
            "contract": "contracts/HonestVault.sol:HonestVault",
            "label": "_values",
            "offset": 0,
            "slot": "0",
            "type": "t_array(t_bytes32)dyn_storage"
          },
          {
            "astId": 9597,
            "contract": "contracts/HonestVault.sol:HonestVault",
            "label": "_indexes",
            "offset": 0,
            "slot": "1",
            "type": "t_mapping(t_bytes32,t_uint256)"
          }
        ],
        "numberOfBytes": "64"
      },
      "t_uint256": {
        "encoding": "inplace",
        "label": "uint256",
        "numberOfBytes": "32"
      }
    }
  },
  "gasEstimates": {
    "creation": {
      "codeDepositCost": "2285200",
      "executionCost": "2449",
      "totalCost": "2287649"
    },
    "external": {
      "DEFAULT_ADMIN_ROLE()": "265",
      "assetManagerRole()": "1043",
      "balances()": "infinite",
      "deposit(address,uint256)": "infinite",
      "distributeManually(address,address[],uint256[])": "infinite",
      "distributeProportionally(address,uint256)": "infinite",
      "getRoleAdmin(bytes32)": "1180",
      "getRoleMember(bytes32,uint256)": "infinite",
      "getRoleMemberCount(bytes32)": "infinite",
      "governorRole()": "1043",
      "grantRole(bytes32,address)": "infinite",
      "hasRole(bytes32,address)": "infinite",
      "honestConfiguration()": "1104",
      "honestFee()": "1148",
      "initialize(address,address,address)": "infinite",
      "investmentIntegration()": "1103",
      "renounceRole(bytes32,address)": "infinite",
      "revokeRole(bytes32,address)": "infinite",
      "shareOf(address)": "1188",
      "shareValue()": "infinite",
      "totalWeight()": "1043",
      "transferOwnership(address)": "infinite",
      "vaultRole()": "1042",
      "weightOf(address)": "1231",
      "withdraw(address,uint256)": "infinite"
    },
    "internal": {
      "_balanceOf(enum HonestVault.Repository,address)": "infinite",
      "_balances(enum HonestVault.Repository)": "infinite",
      "_collect(address,uint256)": "infinite",
      "_distributeSavings(address,address[] memory,uint256[] memory,uint256)": "infinite",
      "_distributeVault(address,address,uint256)": "infinite",
      "_invest(uint256)": "infinite",
      "_investmentOf(address)": "infinite"
    }
  }
}