{
  "abi": [
    {
      "anonymous": false,
      "inputs": [
        {
          "indexed": true,
          "internalType": "bytes32",
          "name": "role",
          "type": "bytes32"
        },
        {
          "indexed": true,
          "internalType": "address",
          "name": "account",
          "type": "address"
        },
        {
          "indexed": true,
          "internalType": "address",
          "name": "sender",
          "type": "address"
        }
      ],
      "name": "RoleGranted",
      "type": "event"
    },
    {
      "anonymous": false,
      "inputs": [
        {
          "indexed": true,
          "internalType": "bytes32",
          "name": "role",
          "type": "bytes32"
        },
        {
          "indexed": true,
          "internalType": "address",
          "name": "account",
          "type": "address"
        },
        {
          "indexed": true,
          "internalType": "address",
          "name": "sender",
          "type": "address"
        }
      ],
      "name": "RoleRevoked",
      "type": "event"
    },
    {
      "inputs": [],
      "name": "DEFAULT_ADMIN_ROLE",
      "outputs": [
        {
          "internalType": "bytes32",
          "name": "",
          "type": "bytes32"
        }
      ],
      "stateMutability": "view",
      "type": "function"
    },
    {
      "inputs": [],
      "name": "assetManagerRole",
      "outputs": [
        {
          "internalType": "bytes32",
          "name": "",
          "type": "bytes32"
        }
      ],
      "stateMutability": "view",
      "type": "function"
    },
    {
      "inputs": [],
      "name": "claimableRewards",
      "outputs": [
        {
          "internalType": "uint256",
          "name": "",
          "type": "uint256"
        }
      ],
      "stateMutability": "view",
      "type": "function"
    },
    {
      "inputs": [
        {
          "internalType": "address",
          "name": "account",
          "type": "address"
        },
        {
          "internalType": "uint256",
          "name": "price",
          "type": "uint256"
        }
      ],
      "name": "distributeClaimableRewards",
      "outputs": [
        {
          "internalType": "uint256",
          "name": "",
          "type": "uint256"
        }
      ],
      "stateMutability": "nonpayable",
      "type": "function"
    },
    {
      "inputs": [
        {
          "internalType": "address",
          "name": "account",
          "type": "address"
        }
      ],
      "name": "distributeReservedRewards",
      "outputs": [],
      "stateMutability": "nonpayable",
      "type": "function"
    },
    {
      "inputs": [
        {
          "internalType": "bytes32",
          "name": "role",
          "type": "bytes32"
        }
      ],
      "name": "getRoleAdmin",
      "outputs": [
        {
          "internalType": "bytes32",
          "name": "",
          "type": "bytes32"
        }
      ],
      "stateMutability": "view",
      "type": "function"
    },
    {
      "inputs": [
        {
          "internalType": "bytes32",
          "name": "role",
          "type": "bytes32"
        },
        {
          "internalType": "uint256",
          "name": "index",
          "type": "uint256"
        }
      ],
      "name": "getRoleMember",
      "outputs": [
        {
          "internalType": "address",
          "name": "",
          "type": "address"
        }
      ],
      "stateMutability": "view",
      "type": "function"
    },
    {
      "inputs": [
        {
          "internalType": "bytes32",
          "name": "role",
          "type": "bytes32"
        }
      ],
      "name": "getRoleMemberCount",
      "outputs": [
        {
          "internalType": "uint256",
          "name": "",
          "type": "uint256"
        }
      ],
      "stateMutability": "view",
      "type": "function"
    },
    {
      "inputs": [],
      "name": "governorRole",
      "outputs": [
        {
          "internalType": "bytes32",
          "name": "",
          "type": "bytes32"
        }
      ],
      "stateMutability": "view",
      "type": "function"
    },
    {
      "inputs": [
        {
          "internalType": "bytes32",
          "name": "role",
          "type": "bytes32"
        },
        {
          "internalType": "address",
          "name": "account",
          "type": "address"
        }
      ],
      "name": "grantRole",
      "outputs": [],
      "stateMutability": "nonpayable",
      "type": "function"
    },
    {
      "inputs": [
        {
          "internalType": "bytes32",
          "name": "role",
          "type": "bytes32"
        },
        {
          "internalType": "address",
          "name": "account",
          "type": "address"
        }
      ],
      "name": "hasRole",
      "outputs": [
        {
          "internalType": "bool",
          "name": "",
          "type": "bool"
        }
      ],
      "stateMutability": "view",
      "type": "function"
    },
    {
      "inputs": [
        {
          "internalType": "address",
          "name": "honestConfiguration_",
          "type": "address"
        }
      ],
      "name": "initialize",
      "outputs": [],
      "stateMutability": "nonpayable",
      "type": "function"
    },
    {
      "inputs": [
        {
          "internalType": "bytes32",
          "name": "role",
          "type": "bytes32"
        },
        {
          "internalType": "address",
          "name": "account",
          "type": "address"
        }
      ],
      "name": "renounceRole",
      "outputs": [],
      "stateMutability": "nonpayable",
      "type": "function"
    },
    {
      "inputs": [],
      "name": "reservedRewards",
      "outputs": [
        {
          "internalType": "uint256",
          "name": "",
          "type": "uint256"
        }
      ],
      "stateMutability": "view",
      "type": "function"
    },
    {
      "inputs": [
        {
          "internalType": "bytes32",
          "name": "role",
          "type": "bytes32"
        },
        {
          "internalType": "address",
          "name": "account",
          "type": "address"
        }
      ],
      "name": "revokeRole",
      "outputs": [],
      "stateMutability": "nonpayable",
      "type": "function"
    },
    {
      "inputs": [],
      "name": "totalFee",
      "outputs": [
        {
          "internalType": "uint256",
          "name": "",
          "type": "uint256"
        }
      ],
      "stateMutability": "view",
      "type": "function"
    },
    {
      "inputs": [
        {
          "internalType": "address",
          "name": "to",
          "type": "address"
        }
      ],
      "name": "transferOwnership",
      "outputs": [],
      "stateMutability": "nonpayable",
      "type": "function"
    },
    {
      "inputs": [],
      "name": "vaultRole",
      "outputs": [
        {
          "internalType": "bytes32",
          "name": "",
          "type": "bytes32"
        }
      ],
      "stateMutability": "view",
      "type": "function"
    }
  ],
  "address": "0x6d1bfE76c2A24c06c15ca585f3F755Ac49cfa217",
  "args": [],
  "solcInputHash": "0x57f8616e1b9f5e60b5dddddb3a19aaaa55edb00aeb2821c2b44dfb8838d95b70",
  "bytecode": "0x608060405234801561001057600080fd5b50611480806100206000396000f3fe608060405234801561001057600080fd5b50600436106101165760003560e01c8063a45d7325116100a2578063ce16489e11610071578063ce16489e146102ba578063d547741f146102c2578063eaf896fd146102ee578063eb04a80c146102f6578063f2fde38b1461031c57610116565b8063a45d732514610243578063af5ce1041461026f578063c4d66de814610277578063ca15c8731461029d57610116565b806349dcd6a1116100e957806349dcd6a1146101ac5780636c003a9b146101b45780639010d07c146101bc57806391d14854146101fb578063a217fddf1461023b57610116565b80631df4ccfc1461011b578063248a9ca3146101355780632f2ff15d1461015257806336568abe14610180575b600080fd5b610123610342565b60408051918252519081900360200190f35b6101236004803603602081101561014b57600080fd5b50356103ce565b61017e6004803603604081101561016857600080fd5b50803590602001356001600160a01b03166103e3565b005b61017e6004803603604081101561019657600080fd5b50803590602001356001600160a01b031661044f565b6101236104b0565b6101236104b6565b6101df600480360360408110156101d257600080fd5b50803590602001356104f4565b604080516001600160a01b039092168252519081900360200190f35b6102276004803603604081101561021157600080fd5b50803590602001356001600160a01b0316610515565b604080519115158252519081900360200190f35b61012361052d565b6101236004803603604081101561025957600080fd5b506001600160a01b038135169060200135610532565b61012361062a565b61017e6004803603602081101561028d57600080fd5b50356001600160a01b031661066d565b610123600480360360208110156102b357600080fd5b5035610777565b61012361078e565b61017e600480360360408110156102d857600080fd5b50803590602001356001600160a01b0316610794565b6101236107ed565b61017e6004803603602081101561030c57600080fd5b50356001600160a01b03166107f3565b61017e6004803603602081101561033257600080fd5b50356001600160a01b03166108bd565b60008061034d6108dd565b9050806001600160a01b03166370a08231306040518263ffffffff1660e01b815260040180826001600160a01b0316815260200191505060206040518083038186803b15801561039c57600080fd5b505afa1580156103b0573d6000803e3d6000fd5b505050506040513d60208110156103c657600080fd5b505191505090565b60009081526065602052604090206002015490565b60008281526065602052604090206002015461040690610401610953565b610515565b6104415760405162461bcd60e51b815260040180806020018281038252602f815260200180611239602f913960400191505060405180910390fd5b61044b8282610957565b5050565b610457610953565b6001600160a01b0316816001600160a01b0316146104a65760405162461bcd60e51b815260040180806020018281038252602f8152602001806113a3602f913960400191505060405180910390fd5b61044b82826109c0565b60975490565b60006104ef609b546104e9670de0b6b3a76400006104e36104d5610a29565b6104dd610a6e565b90610a8a565b90610ae3565b90610b25565b905090565b600082815260656020526040812061050c9083610b7f565b90505b92915050565b600082815260656020526040812061050c9083610b8b565b600081565b600061054060985433610515565b61057b5760405162461bcd60e51b815260040180806020018281038252602f8152602001806112e7602f913960400191505060405180910390fd5b6001600160a01b0383166105c05760405162461bcd60e51b815260040180806020018281038252603d815260200180611366603d913960400191505060405180910390fd5b60006105ca6104b6565b9050801561060c576105ef84826105df6108dd565b6001600160a01b03169190610ba0565b6106036105fa610342565b609c5490610b25565b609c556000609b555b610622836104e383670de0b6b3a7640000610a8a565b949350505050565b600080610647610638610a29565b670de0b6b3a764000090610bf7565b9050610667609c546104e9670de0b6b3a76400006104e3856104dd610a6e565b91505090565b600054610100900460ff16806106865750610686610c39565b80610694575060005460ff16155b6106cf5760405162461bcd60e51b815260040180806020018281038252602e8152602001806112b9602e913960400191505060405180910390fd5b600054610100900460ff161580156106fa576000805460ff1961ff0019909116610100171660011790555b6001600160a01b03821661073f5760405162461bcd60e51b815260040180806020018281038252603f81526020018061140c603f913960400191505060405180910390fd5b610747610c3f565b609a80546001600160a01b0319166001600160a01b038416179055801561044b576000805461ff00191690555050565b600081815260656020526040812061050f90610d5e565b60995490565b6000828152606560205260409020600201546107b290610401610953565b6104a65760405162461bcd60e51b81526004018080602001828103825260308152602001806112686030913960400191505060405180910390fd5b60985490565b6107fe600033610515565b6108395760405162461bcd60e51b81526004018080602001828103825260268152602001806113406026913960400191505060405180910390fd5b6001600160a01b03811661087e5760405162461bcd60e51b815260040180806020018281038252603a8152602001806113d2603a913960400191505060405180910390fd5b600061088861062a565b9050801561044b5761089d82826105df6108dd565b6108b16108a8610342565b609b5490610b25565b609b556000609c555050565b6108c86000826103e3565b6108da60006108d5610953565b610794565b50565b609a54604080516304367d0960e51b815290516000926001600160a01b0316916386cfa120916004808301926020929190829003018186803b15801561092257600080fd5b505afa158015610936573d6000803e3d6000fd5b505050506040513d602081101561094c57600080fd5b5051905090565b3390565b600082815260656020526040902061096f9082610d69565b1561044b5761097c610953565b6001600160a01b0316816001600160a01b0316837f2f8788117e7eff1d82e926ec794901d17c78024a50270940304540a733656f0d60405160405180910390a45050565b60008281526065602052604090206109d89082610d7e565b1561044b576109e5610953565b6001600160a01b0316816001600160a01b0316837ff6391f5c32d9c69d2a47ea670b442974b53935d1edc7fd64eb21e047a839171b60405160405180910390a45050565b609a54604080516313ef2ded60e11b815290516000926001600160a01b0316916327de5bda916004808301926020929190829003018186803b15801561092257600080fd5b60006104ef609c54610a84609b54610a84610342565b90610bf7565b600082610a995750600061050f565b82820282848281610aa657fe5b041461050c5760405162461bcd60e51b81526004018080602001828103825260218152602001806112986021913960400191505060405180910390fd5b600061050c83836040518060400160405280601a81526020017f536166654d6174683a206469766973696f6e206279207a65726f000000000000815250610d93565b60008282018381101561050c576040805162461bcd60e51b815260206004820152601b60248201527f536166654d6174683a206164646974696f6e206f766572666c6f770000000000604482015290519081900360640190fd5b600061050c8383610e35565b600061050c836001600160a01b038416610e99565b604080516001600160a01b038416602482015260448082018490528251808303909101815260649091019091526020810180516001600160e01b031663a9059cbb60e01b179052610bf2908490610eb1565b505050565b600061050c83836040518060400160405280601e81526020017f536166654d6174683a207375627472616374696f6e206f766572666c6f77000081525061106f565b303b1590565b600054610100900460ff1680610c585750610c58610c39565b80610c66575060005460ff16155b610ca15760405162461bcd60e51b815260040180806020018281038252602e8152602001806112b9602e913960400191505060405180910390fd5b600054610100900460ff16158015610ccc576000805460ff1961ff0019909116610100171660011790555b610cde6000610cd9610953565b610441565b7f6bc9af616991ee5669a4db9fdf1be40cf0f301aaa197206636e2f4b9a3c7af3b6097557f81349814bed7dfa157b76a21259a8d40c0afbebce228b6fa6309925210da2d6d6098557f172d99a02b0e57f8f6fa2be8cb376f24af61ff9401d1c478debdb285b6512b1f60995580156108da576000805461ff001916905550565b600061050f826110c9565b600061050c836001600160a01b0384166110cd565b600061050c836001600160a01b038416611117565b60008183610e1f5760405162461bcd60e51b81526004018080602001828103825283818151815260200191508051906020019080838360005b83811015610de4578181015183820152602001610dcc565b50505050905090810190601f168015610e115780820380516001836020036101000a031916815260200191505b509250505060405180910390fd5b506000838581610e2b57fe5b0495945050505050565b81546000908210610e775760405162461bcd60e51b81526004018080602001828103825260228152602001806112176022913960400191505060405180910390fd5b826000018281548110610e8657fe5b9060005260206000200154905092915050565b60009081526001919091016020526040902054151590565b610ec3826001600160a01b03166111dd565b610f14576040805162461bcd60e51b815260206004820152601f60248201527f5361666545524332303a2063616c6c20746f206e6f6e2d636f6e747261637400604482015290519081900360640190fd5b60006060836001600160a01b0316836040518082805190602001908083835b60208310610f525780518252601f199092019160209182019101610f33565b6001836020036101000a0380198251168184511680821785525050505050509050019150506000604051808303816000865af19150503d8060008114610fb4576040519150601f19603f3d011682016040523d82523d6000602084013e610fb9565b606091505b509150915081611010576040805162461bcd60e51b815260206004820181905260248201527f5361666545524332303a206c6f772d6c6576656c2063616c6c206661696c6564604482015290519081900360640190fd5b8051156110695780806020019051602081101561102c57600080fd5b50516110695760405162461bcd60e51b815260040180806020018281038252602a815260200180611316602a913960400191505060405180910390fd5b50505050565b600081848411156110c15760405162461bcd60e51b8152602060048201818152835160248401528351909283926044909101919085019080838360008315610de4578181015183820152602001610dcc565b505050900390565b5490565b60006110d98383610e99565b61110f5750815460018181018455600084815260208082209093018490558454848252828601909352604090209190915561050f565b50600061050f565b600081815260018301602052604081205480156111d3578354600019808301919081019060009087908390811061114a57fe5b906000526020600020015490508087600001848154811061116757fe5b60009182526020808320909101929092558281526001898101909252604090209084019055865487908061119757fe5b6001900381819060005260206000200160009055905586600101600087815260200190815260200160002060009055600194505050505061050f565b600091505061050f565b6000813f7fc5d2460186f7233c927e7db2dcc703c0e500b653ca82273b7bfad8045d85a47081811480159061062257505015159291505056fe456e756d657261626c655365743a20696e646578206f7574206f6620626f756e6473416363657373436f6e74726f6c3a2073656e646572206d75737420626520616e2061646d696e20746f206772616e74416363657373436f6e74726f6c3a2073656e646572206d75737420626520616e2061646d696e20746f207265766f6b65536166654d6174683a206d756c7469706c69636174696f6e206f766572666c6f77436f6e747261637420696e7374616e63652068617320616c7265616479206265656e20696e697469616c697a6564416363657373436f6e74726f6c3a2063616c6c6572206973206e6f7420746865205661756c7420636f6e74726163745361666545524332303a204552433230206f7065726174696f6e20646964206e6f742073756363656564416363657373436f6e74726f6c3a2063616c6c6572206973206e6f7420746865206f776e6572486f6e6573744665652e64697374726962757465486f6e6573744173736574526577617264733a206163636f756e74206d7573742062652076616c6964416363657373436f6e74726f6c3a2063616e206f6e6c792072656e6f756e636520726f6c657320666f722073656c66486f6e6573744665652e646973747269627574655265736572766564526577617264733a206163636f756e74206d7573742062652076616c6964486f6e6573744665652e696e697469616c697a653a20686f6e657374436f6e66696775726174696f6e2061646472657373206d7573742062652076616c6964a2646970667358221220f51ad9f2595a9b6d072fea48fc02289b4316efa06aa89b7228af0372766f031464736f6c634300060c0033",
  "devdoc": {
    "kind": "dev",
    "methods": {
      "getRoleAdmin(bytes32)": {
        "details": "Returns the admin role that controls `role`. See {grantRole} and {revokeRole}. To change a role's admin, use {_setRoleAdmin}."
      },
      "getRoleMember(bytes32,uint256)": {
        "details": "Returns one of the accounts that have `role`. `index` must be a value between 0 and {getRoleMemberCount}, non-inclusive. Role bearers are not sorted in any particular way, and their ordering may change at any point. WARNING: When using {getRoleMember} and {getRoleMemberCount}, make sure you perform all queries on the same block. See the following https://forum.openzeppelin.com/t/iterating-over-elements-on-enumerableset-in-openzeppelin-contracts/2296[forum post] for more information."
      },
      "getRoleMemberCount(bytes32)": {
        "details": "Returns the number of accounts that have `role`. Can be used together with {getRoleMember} to enumerate all bearers of a role."
      },
      "grantRole(bytes32,address)": {
        "details": "Grants `role` to `account`. If `account` had not been already granted `role`, emits a {RoleGranted} event. Requirements: - the caller must have ``role``'s admin role."
      },
      "hasRole(bytes32,address)": {
        "details": "Returns `true` if `account` has been granted `role`."
      },
      "renounceRole(bytes32,address)": {
        "details": "Revokes `role` from the calling account. Roles are often managed via {grantRole} and {revokeRole}: this function's purpose is to provide a mechanism for accounts to lose their privileges if they are compromised (such as when a trusted device is misplaced). If the calling account had been granted `role`, emits a {RoleRevoked} event. Requirements: - the caller must be `account`."
      },
      "revokeRole(bytes32,address)": {
        "details": "Revokes `role` from `account`. If `account` had been granted `role`, emits a {RoleRevoked} event. Requirements: - the caller must have ``role``'s admin role."
      }
    },
    "version": 1
  },
  "userdoc": {
    "kind": "user",
    "methods": {},
    "version": 1
  },
  "storageLayout": {
    "storage": [
      {
        "astId": 8128,
        "contract": "contracts/HonestFee.sol:HonestFee",
        "label": "initialized",
        "offset": 0,
        "slot": "0",
        "type": "t_bool"
      },
      {
        "astId": 8131,
        "contract": "contracts/HonestFee.sol:HonestFee",
        "label": "initializing",
        "offset": 1,
        "slot": "0",
        "type": "t_bool"
      },
      {
        "astId": 8196,
        "contract": "contracts/HonestFee.sol:HonestFee",
        "label": "______gap",
        "offset": 0,
        "slot": "1",
        "type": "t_array(t_uint256)50_storage"
      },
      {
        "astId": 8121,
        "contract": "contracts/HonestFee.sol:HonestFee",
        "label": "__gap",
        "offset": 0,
        "slot": "51",
        "type": "t_array(t_uint256)50_storage"
      },
      {
        "astId": 8241,
        "contract": "contracts/HonestFee.sol:HonestFee",
        "label": "_roles",
        "offset": 0,
        "slot": "101",
        "type": "t_mapping(t_bytes32,t_struct(RoleData)8237_storage)"
      },
      {
        "astId": 8486,
        "contract": "contracts/HonestFee.sol:HonestFee",
        "label": "__gap",
        "offset": 0,
        "slot": "102",
        "type": "t_array(t_uint256)49_storage"
      },
      {
        "astId": 11733,
        "contract": "contracts/HonestFee.sol:HonestFee",
        "label": "_assetManagerRole",
        "offset": 0,
        "slot": "151",
        "type": "t_bytes32"
      },
      {
        "astId": 11735,
        "contract": "contracts/HonestFee.sol:HonestFee",
        "label": "_vaultRole",
        "offset": 0,
        "slot": "152",
        "type": "t_bytes32"
      },
      {
        "astId": 11737,
        "contract": "contracts/HonestFee.sol:HonestFee",
        "label": "_governorRole",
        "offset": 0,
        "slot": "153",
        "type": "t_bytes32"
      },
      {
        "astId": 13194,
        "contract": "contracts/HonestFee.sol:HonestFee",
        "label": "_honestConfiguration",
        "offset": 0,
        "slot": "154",
        "type": "t_address"
      },
      {
        "astId": 13196,
        "contract": "contracts/HonestFee.sol:HonestFee",
        "label": "_claimableRewards",
        "offset": 0,
        "slot": "155",
        "type": "t_uint256"
      },
      {
        "astId": 13198,
        "contract": "contracts/HonestFee.sol:HonestFee",
        "label": "_reservedRewards",
        "offset": 0,
        "slot": "156",
        "type": "t_uint256"
      }
    ],
    "types": {
      "t_address": {
        "encoding": "inplace",
        "label": "address",
        "numberOfBytes": "20"
      },
      "t_array(t_bytes32)dyn_storage": {
        "base": "t_bytes32",
        "encoding": "dynamic_array",
        "label": "bytes32[]",
        "numberOfBytes": "32"
      },
      "t_array(t_uint256)49_storage": {
        "base": "t_uint256",
        "encoding": "inplace",
        "label": "uint256[49]",
        "numberOfBytes": "1568"
      },
      "t_array(t_uint256)50_storage": {
        "base": "t_uint256",
        "encoding": "inplace",
        "label": "uint256[50]",
        "numberOfBytes": "1600"
      },
      "t_bool": {
        "encoding": "inplace",
        "label": "bool",
        "numberOfBytes": "1"
      },
      "t_bytes32": {
        "encoding": "inplace",
        "label": "bytes32",
        "numberOfBytes": "32"
      },
      "t_mapping(t_bytes32,t_struct(RoleData)8237_storage)": {
        "encoding": "mapping",
        "key": "t_bytes32",
        "label": "mapping(bytes32 => struct AccessControlUpgradeSafe.RoleData)",
        "numberOfBytes": "32",
        "value": "t_struct(RoleData)8237_storage"
      },
      "t_mapping(t_bytes32,t_uint256)": {
        "encoding": "mapping",
        "key": "t_bytes32",
        "label": "mapping(bytes32 => uint256)",
        "numberOfBytes": "32",
        "value": "t_uint256"
      },
      "t_struct(AddressSet)9778_storage": {
        "encoding": "inplace",
        "label": "struct EnumerableSet.AddressSet",
        "members": [
          {
            "astId": 9777,
            "contract": "contracts/HonestFee.sol:HonestFee",
            "label": "_inner",
            "offset": 0,
            "slot": "0",
            "type": "t_struct(Set)9598_storage"
          }
        ],
        "numberOfBytes": "64"
      },
      "t_struct(RoleData)8237_storage": {
        "encoding": "inplace",
        "label": "struct AccessControlUpgradeSafe.RoleData",
        "members": [
          {
            "astId": 8234,
            "contract": "contracts/HonestFee.sol:HonestFee",
            "label": "members",
            "offset": 0,
            "slot": "0",
            "type": "t_struct(AddressSet)9778_storage"
          },
          {
            "astId": 8236,
            "contract": "contracts/HonestFee.sol:HonestFee",
            "label": "adminRole",
            "offset": 0,
            "slot": "2",
            "type": "t_bytes32"
          }
        ],
        "numberOfBytes": "96"
      },
      "t_struct(Set)9598_storage": {
        "encoding": "inplace",
        "label": "struct EnumerableSet.Set",
        "members": [
          {
            "astId": 9593,
            "contract": "contracts/HonestFee.sol:HonestFee",
            "label": "_values",
            "offset": 0,
            "slot": "0",
            "type": "t_array(t_bytes32)dyn_storage"
          },
          {
            "astId": 9597,
            "contract": "contracts/HonestFee.sol:HonestFee",
            "label": "_indexes",
            "offset": 0,
            "slot": "1",
            "type": "t_mapping(t_bytes32,t_uint256)"
          }
        ],
        "numberOfBytes": "64"
      },
      "t_uint256": {
        "encoding": "inplace",
        "label": "uint256",
        "numberOfBytes": "32"
      }
    }
  },
  "gasEstimates": {
    "creation": {
      "codeDepositCost": "1049600",
      "executionCost": "1087",
      "totalCost": "1050687"
    },
    "external": {
      "DEFAULT_ADMIN_ROLE()": "309",
      "assetManagerRole()": "1021",
      "claimableRewards()": "infinite",
      "distributeClaimableRewards(address,uint256)": "infinite",
      "distributeReservedRewards(address)": "infinite",
      "getRoleAdmin(bytes32)": "1158",
      "getRoleMember(bytes32,uint256)": "infinite",
      "getRoleMemberCount(bytes32)": "infinite",
      "governorRole()": "1020",
      "grantRole(bytes32,address)": "infinite",
      "hasRole(bytes32,address)": "infinite",
      "initialize(address)": "infinite",
      "renounceRole(bytes32,address)": "infinite",
      "reservedRewards()": "infinite",
      "revokeRole(bytes32,address)": "infinite",
      "totalFee()": "infinite",
      "transferOwnership(address)": "infinite",
      "vaultRole()": "1064"
    },
    "internal": {
      "_availableRewards()": "infinite",
      "_claimableRewardsPercentage()": "infinite",
      "_honestAsset()": "infinite"
    }
  }
}