{
  "abi": [
    {
      "anonymous": false,
      "inputs": [
        {
          "indexed": true,
          "internalType": "bytes32",
          "name": "role",
          "type": "bytes32"
        },
        {
          "indexed": true,
          "internalType": "address",
          "name": "account",
          "type": "address"
        },
        {
          "indexed": true,
          "internalType": "address",
          "name": "sender",
          "type": "address"
        }
      ],
      "name": "RoleGranted",
      "type": "event"
    },
    {
      "anonymous": false,
      "inputs": [
        {
          "indexed": true,
          "internalType": "bytes32",
          "name": "role",
          "type": "bytes32"
        },
        {
          "indexed": true,
          "internalType": "address",
          "name": "account",
          "type": "address"
        },
        {
          "indexed": true,
          "internalType": "address",
          "name": "sender",
          "type": "address"
        }
      ],
      "name": "RoleRevoked",
      "type": "event"
    },
    {
      "inputs": [],
      "name": "DEFAULT_ADMIN_ROLE",
      "outputs": [
        {
          "internalType": "bytes32",
          "name": "",
          "type": "bytes32"
        }
      ],
      "stateMutability": "view",
      "type": "function"
    },
    {
      "inputs": [],
      "name": "assetManagerRole",
      "outputs": [
        {
          "internalType": "bytes32",
          "name": "",
          "type": "bytes32"
        }
      ],
      "stateMutability": "view",
      "type": "function"
    },
    {
      "inputs": [
        {
          "internalType": "uint256",
          "name": "amount",
          "type": "uint256"
        }
      ],
      "name": "deposit",
      "outputs": [],
      "stateMutability": "nonpayable",
      "type": "function"
    },
    {
      "inputs": [
        {
          "internalType": "bytes32",
          "name": "role",
          "type": "bytes32"
        }
      ],
      "name": "getRoleAdmin",
      "outputs": [
        {
          "internalType": "bytes32",
          "name": "",
          "type": "bytes32"
        }
      ],
      "stateMutability": "view",
      "type": "function"
    },
    {
      "inputs": [
        {
          "internalType": "bytes32",
          "name": "role",
          "type": "bytes32"
        },
        {
          "internalType": "uint256",
          "name": "index",
          "type": "uint256"
        }
      ],
      "name": "getRoleMember",
      "outputs": [
        {
          "internalType": "address",
          "name": "",
          "type": "address"
        }
      ],
      "stateMutability": "view",
      "type": "function"
    },
    {
      "inputs": [
        {
          "internalType": "bytes32",
          "name": "role",
          "type": "bytes32"
        }
      ],
      "name": "getRoleMemberCount",
      "outputs": [
        {
          "internalType": "uint256",
          "name": "",
          "type": "uint256"
        }
      ],
      "stateMutability": "view",
      "type": "function"
    },
    {
      "inputs": [],
      "name": "governorRole",
      "outputs": [
        {
          "internalType": "bytes32",
          "name": "",
          "type": "bytes32"
        }
      ],
      "stateMutability": "view",
      "type": "function"
    },
    {
      "inputs": [
        {
          "internalType": "bytes32",
          "name": "role",
          "type": "bytes32"
        },
        {
          "internalType": "address",
          "name": "account",
          "type": "address"
        }
      ],
      "name": "grantRole",
      "outputs": [],
      "stateMutability": "nonpayable",
      "type": "function"
    },
    {
      "inputs": [
        {
          "internalType": "bytes32",
          "name": "role",
          "type": "bytes32"
        },
        {
          "internalType": "address",
          "name": "account",
          "type": "address"
        }
      ],
      "name": "hasRole",
      "outputs": [
        {
          "internalType": "bool",
          "name": "",
          "type": "bool"
        }
      ],
      "stateMutability": "view",
      "type": "function"
    },
    {
      "inputs": [],
      "name": "honestConfiguration",
      "outputs": [
        {
          "internalType": "address",
          "name": "",
          "type": "address"
        }
      ],
      "stateMutability": "view",
      "type": "function"
    },
    {
      "inputs": [],
      "name": "honestVault",
      "outputs": [
        {
          "internalType": "address",
          "name": "",
          "type": "address"
        }
      ],
      "stateMutability": "view",
      "type": "function"
    },
    {
      "inputs": [
        {
          "internalType": "address",
          "name": "honestConfiguration_",
          "type": "address"
        },
        {
          "internalType": "address",
          "name": "honestVault_",
          "type": "address"
        }
      ],
      "name": "initialize",
      "outputs": [],
      "stateMutability": "nonpayable",
      "type": "function"
    },
    {
      "inputs": [
        {
          "internalType": "address[]",
          "name": "bAssets",
          "type": "address[]"
        },
        {
          "internalType": "uint256[]",
          "name": "amounts",
          "type": "uint256[]"
        }
      ],
      "name": "mint",
      "outputs": [],
      "stateMutability": "nonpayable",
      "type": "function"
    },
    {
      "inputs": [
        {
          "internalType": "address[]",
          "name": "assets",
          "type": "address[]"
        },
        {
          "internalType": "uint256[]",
          "name": "amounts",
          "type": "uint256[]"
        }
      ],
      "name": "redeemManually",
      "outputs": [],
      "stateMutability": "nonpayable",
      "type": "function"
    },
    {
      "inputs": [
        {
          "internalType": "uint256",
          "name": "amount",
          "type": "uint256"
        }
      ],
      "name": "redeemProportionally",
      "outputs": [],
      "stateMutability": "nonpayable",
      "type": "function"
    },
    {
      "inputs": [
        {
          "internalType": "bytes32",
          "name": "role",
          "type": "bytes32"
        },
        {
          "internalType": "address",
          "name": "account",
          "type": "address"
        }
      ],
      "name": "renounceRole",
      "outputs": [],
      "stateMutability": "nonpayable",
      "type": "function"
    },
    {
      "inputs": [
        {
          "internalType": "bytes32",
          "name": "role",
          "type": "bytes32"
        },
        {
          "internalType": "address",
          "name": "account",
          "type": "address"
        }
      ],
      "name": "revokeRole",
      "outputs": [],
      "stateMutability": "nonpayable",
      "type": "function"
    },
    {
      "inputs": [
        {
          "internalType": "address",
          "name": "honestConfiguration_",
          "type": "address"
        }
      ],
      "name": "setHonestConfiguration",
      "outputs": [],
      "stateMutability": "nonpayable",
      "type": "function"
    },
    {
      "inputs": [
        {
          "internalType": "address",
          "name": "honestVault_",
          "type": "address"
        }
      ],
      "name": "setHonestVault",
      "outputs": [],
      "stateMutability": "nonpayable",
      "type": "function"
    },
    {
      "inputs": [
        {
          "internalType": "address",
          "name": "from",
          "type": "address"
        },
        {
          "internalType": "address",
          "name": "to",
          "type": "address"
        },
        {
          "internalType": "uint256",
          "name": "amount",
          "type": "uint256"
        }
      ],
      "name": "swap",
      "outputs": [],
      "stateMutability": "nonpayable",
      "type": "function"
    },
    {
      "inputs": [
        {
          "internalType": "address",
          "name": "to",
          "type": "address"
        }
      ],
      "name": "transferOwnership",
      "outputs": [],
      "stateMutability": "nonpayable",
      "type": "function"
    },
    {
      "inputs": [],
      "name": "vaultRole",
      "outputs": [
        {
          "internalType": "bytes32",
          "name": "",
          "type": "bytes32"
        }
      ],
      "stateMutability": "view",
      "type": "function"
    },
    {
      "inputs": [
        {
          "internalType": "uint256",
          "name": "weight",
          "type": "uint256"
        }
      ],
      "name": "withdraw",
      "outputs": [],
      "stateMutability": "nonpayable",
      "type": "function"
    }
  ],
  "address": "0x2Cd9A01E5d6B77dbFcdcdd7d04efF81054a224C2",
  "args": [],
  "solcInputHash": "0x57f8616e1b9f5e60b5dddddb3a19aaaa55edb00aeb2821c2b44dfb8838d95b70",
  "bytecode": "0x608060405234801561001057600080fd5b5061253e806100206000396000f3fe608060405234801561001057600080fd5b506004361061014d5760003560e01c80639010d07c116100c3578063ce16489e1161007c578063ce16489e14610426578063d547741f1461042e578063df791e501461045a578063e467f7e014610490578063eaf896fd1461054e578063f2fde38b146105565761014d565b80639010d07c146102c357806391d14854146102e6578063a217fddf14610326578063b6b55f251461032e578063bf92c2cc1461034b578063ca15c873146104095761014d565b806336568abe1161011557806336568abe1461020f578063485cc9551461023b57806349dcd6a1146102695780634ce0f9d614610271578063671716f514610295578063893db7c71461029d5761014d565b80630ed04498146101525780630faff42114610171578063248a9ca3146101975780632e1a7d4d146101c65780632f2ff15d146101e3575b600080fd5b61016f6004803603602081101561016857600080fd5b503561057c565b005b61016f6004803603602081101561018757600080fd5b50356001600160a01b03166106c7565b6101b4600480360360208110156101ad57600080fd5b503561072e565b60408051918252519081900360200190f35b61016f600480360360208110156101dc57600080fd5b5035610743565b61016f600480360360408110156101f957600080fd5b50803590602001356001600160a01b0316610944565b61016f6004803603604081101561022557600080fd5b50803590602001356001600160a01b03166109b0565b61016f6004803603604081101561025157600080fd5b506001600160a01b0381358116916020013516610a11565b6101b4610b77565b610279610b7d565b604080516001600160a01b039092168252519081900360200190f35b610279610b8c565b61016f600480360360208110156102b357600080fd5b50356001600160a01b0316610b9b565b610279600480360360408110156102d957600080fd5b5080359060200135610c02565b610312600480360360408110156102fc57600080fd5b50803590602001356001600160a01b0316610c23565b604080519115158252519081900360200190f35b6101b4610c3b565b61016f6004803603602081101561034457600080fd5b5035610c40565b61016f6004803603604081101561036157600080fd5b810190602081018135600160201b81111561037b57600080fd5b82018360208201111561038d57600080fd5b803590602001918460208302840111600160201b831117156103ae57600080fd5b919390929091602081019035600160201b8111156103cb57600080fd5b8201836020820111156103dd57600080fd5b803590602001918460208302840111600160201b831117156103fe57600080fd5b509092509050610d2f565b6101b46004803603602081101561041f57600080fd5b503561104e565b6101b4611065565b61016f6004803603604081101561044457600080fd5b50803590602001356001600160a01b031661106b565b61016f6004803603606081101561047057600080fd5b506001600160a01b038135811691602081013590911690604001356110c4565b61016f600480360360408110156104a657600080fd5b810190602081018135600160201b8111156104c057600080fd5b8201836020820111156104d257600080fd5b803590602001918460208302840111600160201b831117156104f357600080fd5b919390929091602081019035600160201b81111561051057600080fd5b82018360208201111561052257600080fd5b803590602001918460208302840111600160201b8311171561054357600080fd5b509092509050611468565b6101b4611648565b61016f6004803603602081101561056c57600080fd5b50356001600160a01b031661164e565b600081116105bb5760405162461bcd60e51b81526004018080602001828103825260468152602001806121f26046913960600191505060405180910390fd5b6105c361166e565b6001600160a01b0316639dc29fac6105d96116e4565b836040518363ffffffff1660e01b815260040180836001600160a01b0316815260200182815260200192505050602060405180830381600087803b15801561062057600080fd5b505af1158015610634573d6000803e3d6000fd5b505050506040513d602081101561064a57600080fd5b5050609b546001600160a01b0316637ed642f86106656116e4565b836040518363ffffffff1660e01b815260040180836001600160a01b0316815260200182815260200192505050600060405180830381600087803b1580156106ac57600080fd5b505af11580156106c0573d6000803e3d6000fd5b5050505050565b6001600160a01b03811661070c5760405162461bcd60e51b815260040180806020018281038252604c815260200180612456604c913960600191505060405180910390fd5b609a80546001600160a01b0319166001600160a01b0392909216919091179055565b60009081526065602052604090206002015490565b600081116107825760405162461bcd60e51b815260040180806020018281038252603a81526020018061233f603a913960400191505060405180910390fd5b609b546000906001600160a01b031663f3fef3a361079e6116e4565b846040518363ffffffff1660e01b815260040180836001600160a01b0316815260200182815260200192505050602060405180830381600087803b1580156107e557600080fd5b505af11580156107f9573d6000803e3d6000fd5b505050506040513d602081101561080f57600080fd5b50519050818111156108af5761082361166e565b6001600160a01b03166340c10f193061083c84866116e8565b6040518363ffffffff1660e01b815260040180836001600160a01b0316815260200182815260200192505050602060405180830381600087803b15801561088257600080fd5b505af1158015610896573d6000803e3d6000fd5b505050506040513d60208110156108ac57600080fd5b50505b6108b761166e565b6001600160a01b031663a9059cbb6108cd6116e4565b836040518363ffffffff1660e01b815260040180836001600160a01b0316815260200182815260200192505050602060405180830381600087803b15801561091457600080fd5b505af1158015610928573d6000803e3d6000fd5b505050506040513d602081101561093e57600080fd5b50505050565b600082815260656020526040902060020154610967906109626116e4565b610c23565b6109a25760405162461bcd60e51b815260040180806020018281038252602f81526020018061218a602f913960400191505060405180910390fd5b6109ac828261172a565b5050565b6109b86116e4565b6001600160a01b0316816001600160a01b031614610a075760405162461bcd60e51b815260040180806020018281038252602f8152602001806124da602f913960400191505060405180910390fd5b6109ac8282611793565b600054610100900460ff1680610a2a5750610a2a6117fc565b80610a38575060005460ff16155b610a735760405162461bcd60e51b815260040180806020018281038252602e815260200180612311602e913960400191505060405180910390fd5b600054610100900460ff16158015610a9e576000805460ff1961ff0019909116610100171660011790555b6001600160a01b038316610ae35760405162461bcd60e51b81526004018080602001828103825260408152602001806122806040913960400191505060405180910390fd5b6001600160a01b038216610b285760405162461bcd60e51b81526004018080602001828103825260388152602001806124a26038913960400191505060405180910390fd5b610b30611802565b609a80546001600160a01b038086166001600160a01b031992831617909255609b8054928516929091169190911790558015610b72576000805461ff00191690555b505050565b60975490565b609b546001600160a01b031690565b609a546001600160a01b031690565b6001600160a01b038116610be05760405162461bcd60e51b81526004018080602001828103825260388152602001806124a26038913960400191505060405180910390fd5b609b80546001600160a01b0319166001600160a01b0392909216919091179055565b6000828152606560205260408120610c1a9083611921565b90505b92915050565b6000828152606560205260408120610c1a908361192d565b600081565b60008111610c7f5760405162461bcd60e51b81526004018080602001828103825260398152602001806121b96039913960400191505060405180910390fd5b610ca5610c8a6116e4565b3083610c9461166e565b6001600160a01b0316929190611942565b609b546001600160a01b03166347e7ef24610cbe6116e4565b836040518363ffffffff1660e01b815260040180836001600160a01b0316815260200182815260200192505050602060405180830381600087803b158015610d0557600080fd5b505af1158015610d19573d6000803e3d6000fd5b505050506040513d6020811015610b7257600080fd5b6000805b84811015610dbb576000848483818110610d4957fe5b9050602002013511610d8c5760405162461bcd60e51b81526004018080602001828103825260408152602001806123ec6040913960400191505060405180910390fd5b610db1848483818110610d9b57fe5b905060200201358361199c90919063ffffffff16565b9150600101610d33565b50609a5460408051632c39737d60e11b815290516000926001600160a01b031691635872e6fa916004808301926020929190829003018186803b158015610e0157600080fd5b505afa158015610e15573d6000803e3d6000fd5b505050506040513d6020811015610e2b57600080fd5b505190506000610e4d670de0b6b3a7640000610e4785856119f6565b90611a4f565b9050610edd610e5a6116e4565b609b60009054906101000a90046001600160a01b03166001600160a01b031663c1f649f76040518163ffffffff1660e01b815260040160206040518083038186803b158015610ea857600080fd5b505afa158015610ebc573d6000803e3d6000fd5b505050506040513d6020811015610ed257600080fd5b505183610c9461166e565b610ee561166e565b6001600160a01b0316639dc29fac610efb6116e4565b856040518363ffffffff1660e01b815260040180836001600160a01b0316815260200182815260200192505050602060405180830381600087803b158015610f4257600080fd5b505af1158015610f56573d6000803e3d6000fd5b505050506040513d6020811015610f6c57600080fd5b5050609b546001600160a01b03166316da43ea610f876116e4565b898989896040518663ffffffff1660e01b815260040180866001600160a01b0316815260200180602001806020018381038352878782818152602001925060200280828437600083820152601f01601f19169091018481038352858152602090810191508690860280828437600081840152601f19601f820116905080830192505050975050505050505050600060405180830381600087803b15801561102d57600080fd5b505af1158015611041573d6000803e3d6000fd5b5050505050505050505050565b6000818152606560205260408120610c1d90611a91565b60995490565b600082815260656020526040902060020154611089906109626116e4565b610a075760405162461bcd60e51b81526004018080602001828103825260308152602001806122c06030913960400191505060405180910390fd5b600081116111035760405162461bcd60e51b81526004018080602001828103825260368152602001806123b66036913960400191505060405180910390fd5b609a5460408051633a04801d60e01b815290516000926001600160a01b031691633a04801d916004808301926020929190829003018186803b15801561114857600080fd5b505afa15801561115c573d6000803e3d6000fd5b505050506040513d602081101561117257600080fd5b50519050600061118b6001600160a01b03861684611a9c565b905060006111a5670de0b6b3a7640000610e4784866119f6565b90506111c96111b26116e4565b609b546001600160a01b0389811692911685611b83565b6111d161166e565b6001600160a01b03166340c10f19609b60009054906101000a90046001600160a01b03166001600160a01b031663c1f649f76040518163ffffffff1660e01b815260040160206040518083038186803b15801561122d57600080fd5b505afa158015611241573d6000803e3d6000fd5b505050506040513d602081101561125757600080fd5b5051604080516001600160e01b031960e085901b1681526001600160a01b039092166004830152602482018590525160448083019260209291908290030181600087803b1580156112a757600080fd5b505af11580156112bb573d6000803e3d6000fd5b505050506040513d60208110156112d157600080fd5b505060408051600180825281830190925260609160208083019080368337019050509050858160008151811061130357fe5b6001600160a01b03929092166020928302919091019091015260408051600180825281830190925260609181602001602082028036833701905050905061134a84846116e8565b8160008151811061135757fe5b6020908102919091010152609b546001600160a01b03166316da43ea61137b6116e4565b84846040518463ffffffff1660e01b815260040180846001600160a01b031681526020018060200180602001838103835285818151815260200191508051906020019060200280838360005b838110156113df5781810151838201526020016113c7565b50505050905001838103825284818151815260200191508051906020019060200280838360005b8381101561141e578181015183820152602001611406565b5050505090500195505050505050600060405180830381600087803b15801561144657600080fd5b505af115801561145a573d6000803e3d6000fd5b505050505050505050505050565b826114a45760405162461bcd60e51b815260040180806020018281038252603d815260200180612379603d913960400191505060405180910390fd5b8281146114e25760405162461bcd60e51b81526004018080602001828103825260488152602001806122386048913960600191505060405180910390fd5b6000805b848110156115af5761154d6114f96116e4565b609b546001600160a01b031686868581811061151157fe5b9050602002013589898681811061152457fe5b905060200201356001600160a01b03166001600160a01b0316611942909392919063ffffffff16565b600061159885858481811061155e57fe5b9050602002013588888581811061157157fe5b905060200201356001600160a01b03166001600160a01b0316611a9c90919063ffffffff16565b90506115a4838261199c565b9250506001016114e6565b506115b861166e565b6001600160a01b03166340c10f196115ce6116e4565b836040518363ffffffff1660e01b815260040180836001600160a01b0316815260200182815260200192505050602060405180830381600087803b15801561161557600080fd5b505af1158015611629573d6000803e3d6000fd5b505050506040513d602081101561163f57600080fd5b50505050505050565b60985490565b611659600082610944565b61166b60006116666116e4565b61106b565b50565b609a54604080516304367d0960e51b815290516000926001600160a01b0316916386cfa120916004808301926020929190829003018186803b1580156116b357600080fd5b505afa1580156116c7573d6000803e3d6000fd5b505050506040513d60208110156116dd57600080fd5b5051905090565b3390565b6000610c1a83836040518060400160405280601e81526020017f536166654d6174683a207375627472616374696f6e206f766572666c6f770000815250611ba4565b60008281526065602052604090206117429082611c3b565b156109ac5761174f6116e4565b6001600160a01b0316816001600160a01b0316837f2f8788117e7eff1d82e926ec794901d17c78024a50270940304540a733656f0d60405160405180910390a45050565b60008281526065602052604090206117ab9082611c50565b156109ac576117b86116e4565b6001600160a01b0316816001600160a01b0316837ff6391f5c32d9c69d2a47ea670b442974b53935d1edc7fd64eb21e047a839171b60405160405180910390a45050565b303b1590565b600054610100900460ff168061181b575061181b6117fc565b80611829575060005460ff16155b6118645760405162461bcd60e51b815260040180806020018281038252602e815260200180612311602e913960400191505060405180910390fd5b600054610100900460ff1615801561188f576000805460ff1961ff0019909116610100171660011790555b6118a1600061189c6116e4565b6109a2565b7f6bc9af616991ee5669a4db9fdf1be40cf0f301aaa197206636e2f4b9a3c7af3b6097557f81349814bed7dfa157b76a21259a8d40c0afbebce228b6fa6309925210da2d6d6098557f172d99a02b0e57f8f6fa2be8cb376f24af61ff9401d1c478debdb285b6512b1f609955801561166b576000805461ff001916905550565b6000610c1a8383611c65565b6000610c1a836001600160a01b038416611cc9565b604080516001600160a01b0380861660248301528416604482015260648082018490528251808303909101815260849091019091526020810180516001600160e01b03166323b872dd60e01b17905261093e908590611ce1565b600082820183811015610c1a576040805162461bcd60e51b815260206004820152601b60248201527f536166654d6174683a206164646974696f6e206f766572666c6f770000000000604482015290519081900360640190fd5b600082611a0557506000610c1d565b82820282848281611a1257fe5b0414610c1a5760405162461bcd60e51b81526004018080602001828103825260218152602001806122f06021913960400191505060405180910390fd5b6000610c1a83836040518060400160405280601a81526020017f536166654d6174683a206469766973696f6e206279207a65726f000000000000815250611d92565b6000610c1d82611df7565b600080836001600160a01b031663313ce5676040518163ffffffff1660e01b815260040160206040518083038186803b158015611ad857600080fd5b505afa158015611aec573d6000803e3d6000fd5b505050506040513d6020811015611b0257600080fd5b50519050601260ff82161115611b52576040805162461bcd60e51b815260206004820152601060248201526f696c6c6567616c20646563696d616c7360801b604482015290519081900360640190fd5b60ff811660121415611b675782915050610c1d565b611b7b8360ff601284900316600a0a6119f6565b949350505050565b61093e8383611b928785611dfb565b6001600160a01b038816929190611942565b60008184841115611c335760405162461bcd60e51b81526004018080602001828103825283818151815260200191508051906020019080838360005b83811015611bf8578181015183820152602001611be0565b50505050905090810190601f168015611c255780820380516001836020036101000a031916815260200191505b509250505060405180910390fd5b505050900390565b6000610c1a836001600160a01b038416611eda565b6000610c1a836001600160a01b038416611f24565b81546000908210611ca75760405162461bcd60e51b81526004018080602001828103825260228152602001806121686022913960400191505060405180910390fd5b826000018281548110611cb657fe5b9060005260206000200154905092915050565b60009081526001919091016020526040902054151590565b6060611d36826040518060400160405280602081526020017f5361666545524332303a206c6f772d6c6576656c2063616c6c206661696c6564815250856001600160a01b0316611fea9092919063ffffffff16565b805190915015610b7257808060200190516020811015611d5557600080fd5b5051610b725760405162461bcd60e51b815260040180806020018281038252602a81526020018061242c602a913960400191505060405180910390fd5b60008183611de15760405162461bcd60e51b8152602060048201818152835160248401528351909283926044909101919085019080838360008315611bf8578181015183820152602001611be0565b506000838581611ded57fe5b0495945050505050565b5490565b600080836001600160a01b031663313ce5676040518163ffffffff1660e01b815260040160206040518083038186803b158015611e3757600080fd5b505afa158015611e4b573d6000803e3d6000fd5b505050506040513d6020811015611e6157600080fd5b50519050601260ff82161115611eb1576040805162461bcd60e51b815260206004820152601060248201526f696c6c6567616c20646563696d616c7360801b604482015290519081900360640190fd5b60ff811660121415611ec65782915050610c1d565b611b7b8360ff601284900316600a0a611a4f565b6000611ee68383611cc9565b611f1c57508154600181810184556000848152602080822090930184905584548482528286019093526040902091909155610c1d565b506000610c1d565b60008181526001830160205260408120548015611fe05783546000198083019190810190600090879083908110611f5757fe5b9060005260206000200154905080876000018481548110611f7457fe5b600091825260208083209091019290925582815260018981019092526040902090840190558654879080611fa457fe5b60019003818190600052602060002001600090559055866001016000878152602001908152602001600020600090556001945050505050610c1d565b6000915050610c1d565b6060611b7b84846000856060611fff85612161565b612050576040805162461bcd60e51b815260206004820152601d60248201527f416464726573733a2063616c6c20746f206e6f6e2d636f6e7472616374000000604482015290519081900360640190fd5b60006060866001600160a01b031685876040518082805190602001908083835b6020831061208f5780518252601f199092019160209182019101612070565b6001836020036101000a03801982511681845116808217855250505050505090500191505060006040518083038185875af1925050503d80600081146120f1576040519150601f19603f3d011682016040523d82523d6000602084013e6120f6565b606091505b5091509150811561210a579150611b7b9050565b80511561211a5780518082602001fd5b60405162461bcd60e51b8152602060048201818152865160248401528651879391928392604401919085019080838360008315611bf8578181015183820152602001611be0565b3b15159056fe456e756d657261626c655365743a20696e646578206f7574206f6620626f756e6473416363657373436f6e74726f6c3a2073656e646572206d75737420626520616e2061646d696e20746f206772616e74486f6e65737441737365744d616e616765722e6465706f7369743a20616d6f756e74206d7573742062652067726561746572207468616e2030486f6e65737441737365744d616e616765722e72656465656d50726f706f7274696f6e616c6c793a20616d6f756e74206d7573742062652067726561746572207468616e2030486f6e65737441737365744d616e616765722e6d696e743a20617373657473206c656e677468206d75737420626520657175616c207769746820616d6f756e7473206c656e677468486f6e65737441737365744d616e616765722e696e697469616c697a653a20686f6e657374436f6e66696775726174696f6e206d7573742062652076616c6964416363657373436f6e74726f6c3a2073656e646572206d75737420626520616e2061646d696e20746f207265766f6b65536166654d6174683a206d756c7469706c69636174696f6e206f766572666c6f77436f6e747261637420696e7374616e63652068617320616c7265616479206265656e20696e697469616c697a6564486f6e65737441737365744d616e616765722e77697468647261773a20616d6f756e74206d7573742062652067726561746572207468616e2030486f6e65737441737365744d616e616765722e6d696e743a20617373657473206c656e677468206d7573742062652067726561746572207468616e2030486f6e65737441737365744d616e616765722e737761703a20616d6f756e74206d7573742062652067726561746572207468616e2030486f6e65737441737365744d616e616765722e72656465656d4d616e75616c6c793a20616d6f756e74206d7573742062652067726561746572207468616e20305361666545524332303a204552433230206f7065726174696f6e20646964206e6f742073756363656564486f6e65737441737365744d616e616765722e736574486f6e657374436f6e66696775726174696f6e3a20686f6e657374436f6e66696775726174696f6e206d7573742062652076616c6964486f6e65737441737365744d616e616765722e696e697469616c697a653a20686f6e6573745661756c74206d7573742062652076616c6964416363657373436f6e74726f6c3a2063616e206f6e6c792072656e6f756e636520726f6c657320666f722073656c66a2646970667358221220a58a7accb5fbad19af6d513941e993de4df88e1d60d514c68a9f1efabc9b157664736f6c634300060c0033",
  "devdoc": {
    "kind": "dev",
    "methods": {
      "getRoleAdmin(bytes32)": {
        "details": "Returns the admin role that controls `role`. See {grantRole} and {revokeRole}. To change a role's admin, use {_setRoleAdmin}."
      },
      "getRoleMember(bytes32,uint256)": {
        "details": "Returns one of the accounts that have `role`. `index` must be a value between 0 and {getRoleMemberCount}, non-inclusive. Role bearers are not sorted in any particular way, and their ordering may change at any point. WARNING: When using {getRoleMember} and {getRoleMemberCount}, make sure you perform all queries on the same block. See the following https://forum.openzeppelin.com/t/iterating-over-elements-on-enumerableset-in-openzeppelin-contracts/2296[forum post] for more information."
      },
      "getRoleMemberCount(bytes32)": {
        "details": "Returns the number of accounts that have `role`. Can be used together with {getRoleMember} to enumerate all bearers of a role."
      },
      "grantRole(bytes32,address)": {
        "details": "Grants `role` to `account`. If `account` had not been already granted `role`, emits a {RoleGranted} event. Requirements: - the caller must have ``role``'s admin role."
      },
      "hasRole(bytes32,address)": {
        "details": "Returns `true` if `account` has been granted `role`."
      },
      "renounceRole(bytes32,address)": {
        "details": "Revokes `role` from the calling account. Roles are often managed via {grantRole} and {revokeRole}: this function's purpose is to provide a mechanism for accounts to lose their privileges if they are compromised (such as when a trusted device is misplaced). If the calling account had been granted `role`, emits a {RoleRevoked} event. Requirements: - the caller must be `account`."
      },
      "revokeRole(bytes32,address)": {
        "details": "Revokes `role` from `account`. If `account` had been granted `role`, emits a {RoleRevoked} event. Requirements: - the caller must have ``role``'s admin role."
      }
    },
    "version": 1
  },
  "userdoc": {
    "kind": "user",
    "methods": {},
    "version": 1
  },
  "storageLayout": {
    "storage": [
      {
        "astId": 8128,
        "contract": "contracts/HonestAssetManager.sol:HonestAssetManager",
        "label": "initialized",
        "offset": 0,
        "slot": "0",
        "type": "t_bool"
      },
      {
        "astId": 8131,
        "contract": "contracts/HonestAssetManager.sol:HonestAssetManager",
        "label": "initializing",
        "offset": 1,
        "slot": "0",
        "type": "t_bool"
      },
      {
        "astId": 8196,
        "contract": "contracts/HonestAssetManager.sol:HonestAssetManager",
        "label": "______gap",
        "offset": 0,
        "slot": "1",
        "type": "t_array(t_uint256)50_storage"
      },
      {
        "astId": 8121,
        "contract": "contracts/HonestAssetManager.sol:HonestAssetManager",
        "label": "__gap",
        "offset": 0,
        "slot": "51",
        "type": "t_array(t_uint256)50_storage"
      },
      {
        "astId": 8241,
        "contract": "contracts/HonestAssetManager.sol:HonestAssetManager",
        "label": "_roles",
        "offset": 0,
        "slot": "101",
        "type": "t_mapping(t_bytes32,t_struct(RoleData)8237_storage)"
      },
      {
        "astId": 8486,
        "contract": "contracts/HonestAssetManager.sol:HonestAssetManager",
        "label": "__gap",
        "offset": 0,
        "slot": "102",
        "type": "t_array(t_uint256)49_storage"
      },
      {
        "astId": 11733,
        "contract": "contracts/HonestAssetManager.sol:HonestAssetManager",
        "label": "_assetManagerRole",
        "offset": 0,
        "slot": "151",
        "type": "t_bytes32"
      },
      {
        "astId": 11735,
        "contract": "contracts/HonestAssetManager.sol:HonestAssetManager",
        "label": "_vaultRole",
        "offset": 0,
        "slot": "152",
        "type": "t_bytes32"
      },
      {
        "astId": 11737,
        "contract": "contracts/HonestAssetManager.sol:HonestAssetManager",
        "label": "_governorRole",
        "offset": 0,
        "slot": "153",
        "type": "t_bytes32"
      },
      {
        "astId": 11949,
        "contract": "contracts/HonestAssetManager.sol:HonestAssetManager",
        "label": "_honestConfiguration",
        "offset": 0,
        "slot": "154",
        "type": "t_address"
      },
      {
        "astId": 11951,
        "contract": "contracts/HonestAssetManager.sol:HonestAssetManager",
        "label": "_honestVault",
        "offset": 0,
        "slot": "155",
        "type": "t_address"
      }
    ],
    "types": {
      "t_address": {
        "encoding": "inplace",
        "label": "address",
        "numberOfBytes": "20"
      },
      "t_array(t_bytes32)dyn_storage": {
        "base": "t_bytes32",
        "encoding": "dynamic_array",
        "label": "bytes32[]",
        "numberOfBytes": "32"
      },
      "t_array(t_uint256)49_storage": {
        "base": "t_uint256",
        "encoding": "inplace",
        "label": "uint256[49]",
        "numberOfBytes": "1568"
      },
      "t_array(t_uint256)50_storage": {
        "base": "t_uint256",
        "encoding": "inplace",
        "label": "uint256[50]",
        "numberOfBytes": "1600"
      },
      "t_bool": {
        "encoding": "inplace",
        "label": "bool",
        "numberOfBytes": "1"
      },
      "t_bytes32": {
        "encoding": "inplace",
        "label": "bytes32",
        "numberOfBytes": "32"
      },
      "t_mapping(t_bytes32,t_struct(RoleData)8237_storage)": {
        "encoding": "mapping",
        "key": "t_bytes32",
        "label": "mapping(bytes32 => struct AccessControlUpgradeSafe.RoleData)",
        "numberOfBytes": "32",
        "value": "t_struct(RoleData)8237_storage"
      },
      "t_mapping(t_bytes32,t_uint256)": {
        "encoding": "mapping",
        "key": "t_bytes32",
        "label": "mapping(bytes32 => uint256)",
        "numberOfBytes": "32",
        "value": "t_uint256"
      },
      "t_struct(AddressSet)9778_storage": {
        "encoding": "inplace",
        "label": "struct EnumerableSet.AddressSet",
        "members": [
          {
            "astId": 9777,
            "contract": "contracts/HonestAssetManager.sol:HonestAssetManager",
            "label": "_inner",
            "offset": 0,
            "slot": "0",
            "type": "t_struct(Set)9598_storage"
          }
        ],
        "numberOfBytes": "64"
      },
      "t_struct(RoleData)8237_storage": {
        "encoding": "inplace",
        "label": "struct AccessControlUpgradeSafe.RoleData",
        "members": [
          {
            "astId": 8234,
            "contract": "contracts/HonestAssetManager.sol:HonestAssetManager",
            "label": "members",
            "offset": 0,
            "slot": "0",
            "type": "t_struct(AddressSet)9778_storage"
          },
          {
            "astId": 8236,
            "contract": "contracts/HonestAssetManager.sol:HonestAssetManager",
            "label": "adminRole",
            "offset": 0,
            "slot": "2",
            "type": "t_bytes32"
          }
        ],
        "numberOfBytes": "96"
      },
      "t_struct(Set)9598_storage": {
        "encoding": "inplace",
        "label": "struct EnumerableSet.Set",
        "members": [
          {
            "astId": 9593,
            "contract": "contracts/HonestAssetManager.sol:HonestAssetManager",
            "label": "_values",
            "offset": 0,
            "slot": "0",
            "type": "t_array(t_bytes32)dyn_storage"
          },
          {
            "astId": 9597,
            "contract": "contracts/HonestAssetManager.sol:HonestAssetManager",
            "label": "_indexes",
            "offset": 0,
            "slot": "1",
            "type": "t_mapping(t_bytes32,t_uint256)"
          }
        ],
        "numberOfBytes": "64"
      },
      "t_uint256": {
        "encoding": "inplace",
        "label": "uint256",
        "numberOfBytes": "32"
      }
    }
  },
  "gasEstimates": {
    "creation": {
      "codeDepositCost": "1906800",
      "executionCost": "2012",
      "totalCost": "1908812"
    },
    "external": {
      "DEFAULT_ADMIN_ROLE()": "265",
      "assetManagerRole()": "1065",
      "deposit(uint256)": "infinite",
      "getRoleAdmin(bytes32)": "1180",
      "getRoleMember(bytes32,uint256)": "infinite",
      "getRoleMemberCount(bytes32)": "infinite",
      "governorRole()": "1020",
      "grantRole(bytes32,address)": "infinite",
      "hasRole(bytes32,address)": "infinite",
      "honestConfiguration()": "1148",
      "honestVault()": "1126",
      "initialize(address,address)": "infinite",
      "mint(address[],uint256[])": "infinite",
      "redeemManually(address[],uint256[])": "infinite",
      "redeemProportionally(uint256)": "infinite",
      "renounceRole(bytes32,address)": "infinite",
      "revokeRole(bytes32,address)": "infinite",
      "setHonestConfiguration(address)": "infinite",
      "setHonestVault(address)": "infinite",
      "swap(address,address,uint256)": "infinite",
      "transferOwnership(address)": "infinite",
      "vaultRole()": "1108",
      "withdraw(uint256)": "infinite"
    },
    "internal": {
      "_honestAsset()": "infinite",
      "_mintFee(uint256)": "infinite"
    }
  }
}