{
  "abi": [
    {
      "inputs": [
        {
          "internalType": "address",
          "name": "_usdc",
          "type": "address"
        }
      ],
      "stateMutability": "nonpayable",
      "type": "constructor"
    },
    {
      "anonymous": false,
      "inputs": [
        {
          "indexed": true,
          "internalType": "address",
          "name": "owner",
          "type": "address"
        },
        {
          "indexed": true,
          "internalType": "address",
          "name": "spender",
          "type": "address"
        },
        {
          "indexed": false,
          "internalType": "uint256",
          "name": "value",
          "type": "uint256"
        }
      ],
      "name": "Approval",
      "type": "event"
    },
    {
      "anonymous": false,
      "inputs": [
        {
          "indexed": true,
          "internalType": "address",
          "name": "previousOwner",
          "type": "address"
        },
        {
          "indexed": true,
          "internalType": "address",
          "name": "newOwner",
          "type": "address"
        }
      ],
      "name": "OwnershipTransferred",
      "type": "event"
    },
    {
      "anonymous": false,
      "inputs": [
        {
          "indexed": true,
          "internalType": "address",
          "name": "from",
          "type": "address"
        },
        {
          "indexed": true,
          "internalType": "address",
          "name": "to",
          "type": "address"
        },
        {
          "indexed": false,
          "internalType": "uint256",
          "name": "value",
          "type": "uint256"
        }
      ],
      "name": "Transfer",
      "type": "event"
    },
    {
      "inputs": [
        {
          "internalType": "address",
          "name": "owner",
          "type": "address"
        },
        {
          "internalType": "address",
          "name": "spender",
          "type": "address"
        }
      ],
      "name": "allowance",
      "outputs": [
        {
          "internalType": "uint256",
          "name": "",
          "type": "uint256"
        }
      ],
      "stateMutability": "view",
      "type": "function"
    },
    {
      "inputs": [
        {
          "internalType": "address",
          "name": "spender",
          "type": "address"
        },
        {
          "internalType": "uint256",
          "name": "amount",
          "type": "uint256"
        }
      ],
      "name": "approve",
      "outputs": [
        {
          "internalType": "bool",
          "name": "",
          "type": "bool"
        }
      ],
      "stateMutability": "nonpayable",
      "type": "function"
    },
    {
      "inputs": [
        {
          "internalType": "address",
          "name": "account",
          "type": "address"
        }
      ],
      "name": "balanceOf",
      "outputs": [
        {
          "internalType": "uint256",
          "name": "",
          "type": "uint256"
        }
      ],
      "stateMutability": "view",
      "type": "function"
    },
    {
      "inputs": [
        {
          "internalType": "address",
          "name": "account",
          "type": "address"
        },
        {
          "internalType": "uint256",
          "name": "amount",
          "type": "uint256"
        }
      ],
      "name": "burn",
      "outputs": [
        {
          "internalType": "bool",
          "name": "",
          "type": "bool"
        }
      ],
      "stateMutability": "nonpayable",
      "type": "function"
    },
    {
      "inputs": [],
      "name": "decimals",
      "outputs": [
        {
          "internalType": "uint8",
          "name": "",
          "type": "uint8"
        }
      ],
      "stateMutability": "view",
      "type": "function"
    },
    {
      "inputs": [
        {
          "internalType": "address",
          "name": "spender",
          "type": "address"
        },
        {
          "internalType": "uint256",
          "name": "subtractedValue",
          "type": "uint256"
        }
      ],
      "name": "decreaseAllowance",
      "outputs": [
        {
          "internalType": "bool",
          "name": "",
          "type": "bool"
        }
      ],
      "stateMutability": "nonpayable",
      "type": "function"
    },
    {
      "inputs": [
        {
          "internalType": "uint256",
          "name": "_amount",
          "type": "uint256"
        }
      ],
      "name": "deposit",
      "outputs": [],
      "stateMutability": "nonpayable",
      "type": "function"
    },
    {
      "inputs": [],
      "name": "getPricePerFullShare",
      "outputs": [
        {
          "internalType": "uint256",
          "name": "",
          "type": "uint256"
        }
      ],
      "stateMutability": "view",
      "type": "function"
    },
    {
      "inputs": [
        {
          "internalType": "address",
          "name": "spender",
          "type": "address"
        },
        {
          "internalType": "uint256",
          "name": "addedValue",
          "type": "uint256"
        }
      ],
      "name": "increaseAllowance",
      "outputs": [
        {
          "internalType": "bool",
          "name": "",
          "type": "bool"
        }
      ],
      "stateMutability": "nonpayable",
      "type": "function"
    },
    {
      "inputs": [
        {
          "internalType": "address",
          "name": "account",
          "type": "address"
        },
        {
          "internalType": "uint256",
          "name": "amount",
          "type": "uint256"
        }
      ],
      "name": "mint",
      "outputs": [
        {
          "internalType": "bool",
          "name": "",
          "type": "bool"
        }
      ],
      "stateMutability": "nonpayable",
      "type": "function"
    },
    {
      "inputs": [],
      "name": "name",
      "outputs": [
        {
          "internalType": "string",
          "name": "",
          "type": "string"
        }
      ],
      "stateMutability": "view",
      "type": "function"
    },
    {
      "inputs": [],
      "name": "owner",
      "outputs": [
        {
          "internalType": "address",
          "name": "",
          "type": "address"
        }
      ],
      "stateMutability": "view",
      "type": "function"
    },
    {
      "inputs": [],
      "name": "renounceOwnership",
      "outputs": [],
      "stateMutability": "nonpayable",
      "type": "function"
    },
    {
      "inputs": [],
      "name": "symbol",
      "outputs": [
        {
          "internalType": "string",
          "name": "",
          "type": "string"
        }
      ],
      "stateMutability": "view",
      "type": "function"
    },
    {
      "inputs": [],
      "name": "totalSupply",
      "outputs": [
        {
          "internalType": "uint256",
          "name": "",
          "type": "uint256"
        }
      ],
      "stateMutability": "view",
      "type": "function"
    },
    {
      "inputs": [
        {
          "internalType": "address",
          "name": "recipient",
          "type": "address"
        },
        {
          "internalType": "uint256",
          "name": "amount",
          "type": "uint256"
        }
      ],
      "name": "transfer",
      "outputs": [
        {
          "internalType": "bool",
          "name": "",
          "type": "bool"
        }
      ],
      "stateMutability": "nonpayable",
      "type": "function"
    },
    {
      "inputs": [
        {
          "internalType": "address",
          "name": "sender",
          "type": "address"
        },
        {
          "internalType": "address",
          "name": "recipient",
          "type": "address"
        },
        {
          "internalType": "uint256",
          "name": "amount",
          "type": "uint256"
        }
      ],
      "name": "transferFrom",
      "outputs": [
        {
          "internalType": "bool",
          "name": "",
          "type": "bool"
        }
      ],
      "stateMutability": "nonpayable",
      "type": "function"
    },
    {
      "inputs": [
        {
          "internalType": "address",
          "name": "newOwner",
          "type": "address"
        }
      ],
      "name": "transferOwnership",
      "outputs": [],
      "stateMutability": "nonpayable",
      "type": "function"
    },
    {
      "inputs": [
        {
          "internalType": "uint256",
          "name": "_shares",
          "type": "uint256"
        }
      ],
      "name": "withdraw",
      "outputs": [],
      "stateMutability": "nonpayable",
      "type": "function"
    }
  ],
  "address": "0xD896b8ec03f4aDFB4B7C26F9cD281c85B4c1a72d",
  "args": [
    "0xF685E526f3EEDA8Ed5Cb985B4c77498178E6BAC1"
  ],
  "solcInputHash": "0x57f8616e1b9f5e60b5dddddb3a19aaaa55edb00aeb2821c2b44dfb8838d95b70",
  "bytecode": "0x60806040523480156200001157600080fd5b50604051620017ca380380620017ca833981810160405260208110156200003757600080fd5b5051604080518082018252600a8152694d6f636b20795553444360b01b602082810191825283518085019094526005845264795553444360d81b90840152815191929162000088916003916200016a565b5080516200009e9060049060208401906200016a565b50506005805460ff19166012179055506000620000ba6200012e565b60058054610100600160a81b0319166101006001600160a01b03841690810291909117909155604051919250906000907f8be0079c531659141344cd1fd0a4f28419497f9722a3daafe3b4186f6b6457e0908290a3506200011b8162000132565b62000127600662000154565b5062000206565b3390565b600680546001600160a01b0319166001600160a01b0392909216919091179055565b6005805460ff191660ff92909216919091179055565b828054600181600116156101000203166002900490600052602060002090601f016020900481019282601f10620001ad57805160ff1916838001178555620001dd565b82800160010185558215620001dd579182015b82811115620001dd578251825591602001919060010190620001c0565b50620001eb929150620001ef565b5090565b5b80821115620001eb5760008155600101620001f0565b6115b480620002166000396000f3fe608060405234801561001057600080fd5b50600436106101215760003560e01c8063715018a6116100ad578063a457c2d711610071578063a457c2d714610356578063a9059cbb14610382578063b6b55f25146103ae578063dd62ed3e146103cb578063f2fde38b146103f957610121565b8063715018a6146102ee57806377c7b8fc146102f65780638da5cb5b146102fe57806395d89b41146103225780639dc29fac1461032a57610121565b80632e1a7d4d116100f45780632e1a7d4d14610233578063313ce56714610252578063395093511461027057806340c10f191461029c57806370a08231146102c857610121565b806306fdde0314610126578063095ea7b3146101a357806318160ddd146101e357806323b872dd146101fd575b600080fd5b61012e61041f565b6040805160208082528351818301528351919283929083019185019080838360005b83811015610168578181015183820152602001610150565b50505050905090810190601f1680156101955780820380516001836020036101000a031916815260200191505b509250505060405180910390f35b6101cf600480360360408110156101b957600080fd5b506001600160a01b0381351690602001356104b5565b604080519115158252519081900360200190f35b6101eb6104d3565b60408051918252519081900360200190f35b6101cf6004803603606081101561021357600080fd5b506001600160a01b038135811691602081013590911690604001356104d9565b6102506004803603602081101561024957600080fd5b5035610560565b005b61025a6105b7565b6040805160ff9092168252519081900360200190f35b6101cf6004803603604081101561028657600080fd5b506001600160a01b0381351690602001356105c0565b6101cf600480360360408110156102b257600080fd5b506001600160a01b03813516906020013561060e565b6101eb600480360360208110156102de57600080fd5b50356001600160a01b0316610677565b610250610692565b6101eb61073f565b610306610763565b604080516001600160a01b039092168252519081900360200190f35b61012e610777565b6101cf6004803603604081101561034057600080fd5b506001600160a01b0381351690602001356107d8565b6101cf6004803603604081101561036c57600080fd5b506001600160a01b038135169060200135610841565b6101cf6004803603604081101561039857600080fd5b506001600160a01b0381351690602001356108a9565b610250600480360360208110156103c457600080fd5b50356108bd565b6101eb600480360360408110156103e157600080fd5b506001600160a01b0381358116916020013516610912565b6102506004803603602081101561040f57600080fd5b50356001600160a01b031661093d565b60038054604080516020601f60026000196101006001881615020190951694909404938401819004810282018101909252828152606093909290918301828280156104ab5780601f10610480576101008083540402835291602001916104ab565b820191906000526020600020905b81548152906001019060200180831161048e57829003601f168201915b5050505050905090565b60006104c96104c2610a46565b8484610a4a565b5060015b92915050565b60025490565b60006104e6848484610b36565b610556846104f2610a46565b6105518560405180606001604052806028815260200161147e602891396001600160a01b038a16600090815260016020526040812090610530610a46565b6001600160a01b031681526020810191909152604001600020549190610c91565b610a4a565b5060019392505050565b61057261056b610a46565b3083610b36565b6105b461057d610a46565b6105a1670de0b6b3a764000061059b61059461073f565b8690610d28565b90610d88565b6006546001600160a01b03169190610dca565b50565b60055460ff1690565b60006104c96105cd610a46565b8461055185600160006105de610a46565b6001600160a01b03908116825260208083019390935260409182016000908120918c168152925290205490610e21565b6000610618610a46565b60055461010090046001600160a01b0390811691161461066d576040805162461bcd60e51b815260206004820181905260248201526000805160206114a6833981519152604482015290519081900360640190fd5b6104c98383610e7b565b6001600160a01b031660009081526020819052604090205490565b61069a610a46565b60055461010090046001600160a01b039081169116146106ef576040805162461bcd60e51b815260206004820181905260248201526000805160206114a6833981519152604482015290519081900360640190fd5b60055460405160009161010090046001600160a01b0316907f8be0079c531659141344cd1fd0a4f28419497f9722a3daafe3b4186f6b6457e0908390a360058054610100600160a81b0319169055565b600061075e64e8d4a5100061075842635f5165d0610f6b565b90610d28565b905090565b60055461010090046001600160a01b031690565b60048054604080516020601f60026000196101006001881615020190951694909404938401819004810282018101909252828152606093909290918301828280156104ab5780601f10610480576101008083540402835291602001916104ab565b60006107e2610a46565b60055461010090046001600160a01b03908116911614610837576040805162461bcd60e51b815260206004820181905260248201526000805160206114a6833981519152604482015290519081900360640190fd5b6104c98383610fad565b60006104c961084e610a46565b846105518560405180606001604052806025815260200161155a6025913960016000610878610a46565b6001600160a01b03908116825260208083019390935260409182016000908120918d16815292529020549190610c91565b60006104c96108b6610a46565b8484610b36565b6108dc6108c8610a46565b6006546001600160a01b03169030846110a9565b60006108fb6108e961073f565b61059b84670de0b6b3a7640000610d28565b905061090e610908610a46565b82610e7b565b5050565b6001600160a01b03918216600090815260016020908152604080832093909416825291909152205490565b610945610a46565b60055461010090046001600160a01b0390811691161461099a576040805162461bcd60e51b815260206004820181905260248201526000805160206114a6833981519152604482015290519081900360640190fd5b6001600160a01b0381166109df5760405162461bcd60e51b81526004018080602001828103825260268152602001806113ef6026913960400191505060405180910390fd5b6005546040516001600160a01b0380841692610100900416907f8be0079c531659141344cd1fd0a4f28419497f9722a3daafe3b4186f6b6457e090600090a3600580546001600160a01b0390921661010002610100600160a81b0319909216919091179055565b3390565b6001600160a01b038316610a8f5760405162461bcd60e51b815260040180806020018281038252602481526020018061150c6024913960400191505060405180910390fd5b6001600160a01b038216610ad45760405162461bcd60e51b81526004018080602001828103825260228152602001806114156022913960400191505060405180910390fd5b6001600160a01b03808416600081815260016020908152604080832094871680845294825291829020859055815185815291517f8c5be1e5ebec7d5bd14f71427d1e84f3dd0314c0f7b2291e5b200ac8c7c3b9259281900390910190a3505050565b6001600160a01b038316610b7b5760405162461bcd60e51b81526004018080602001828103825260258152602001806114e76025913960400191505060405180910390fd5b6001600160a01b038216610bc05760405162461bcd60e51b81526004018080602001828103825260238152602001806113aa6023913960400191505060405180910390fd5b610bcb838383610e1c565b610c0881604051806060016040528060268152602001611437602691396001600160a01b0386166000908152602081905260409020549190610c91565b6001600160a01b038085166000908152602081905260408082209390935590841681522054610c379082610e21565b6001600160a01b038084166000818152602081815260409182902094909455805185815290519193928716927fddf252ad1be2c89b69c2b068fc378daa952ba7f163c4a11628f55a4df523b3ef92918290030190a3505050565b60008184841115610d205760405162461bcd60e51b81526004018080602001828103825283818151815260200191508051906020019080838360005b83811015610ce5578181015183820152602001610ccd565b50505050905090810190601f168015610d125780820380516001836020036101000a031916815260200191505b509250505060405180910390fd5b505050900390565b600082610d37575060006104cd565b82820282848281610d4457fe5b0414610d815760405162461bcd60e51b815260040180806020018281038252602181526020018061145d6021913960400191505060405180910390fd5b9392505050565b6000610d8183836040518060400160405280601a81526020017f536166654d6174683a206469766973696f6e206279207a65726f000000000000815250611109565b604080516001600160a01b038416602482015260448082018490528251808303909101815260649091019091526020810180516001600160e01b031663a9059cbb60e01b179052610e1c90849061116e565b505050565b600082820183811015610d81576040805162461bcd60e51b815260206004820152601b60248201527f536166654d6174683a206164646974696f6e206f766572666c6f770000000000604482015290519081900360640190fd5b6001600160a01b038216610ed6576040805162461bcd60e51b815260206004820152601f60248201527f45524332303a206d696e7420746f20746865207a65726f206164647265737300604482015290519081900360640190fd5b610ee260008383610e1c565b600254610eef9082610e21565b6002556001600160a01b038216600090815260208190526040902054610f159082610e21565b6001600160a01b0383166000818152602081815260408083209490945583518581529351929391927fddf252ad1be2c89b69c2b068fc378daa952ba7f163c4a11628f55a4df523b3ef9281900390910190a35050565b6000610d8183836040518060400160405280601e81526020017f536166654d6174683a207375627472616374696f6e206f766572666c6f770000815250610c91565b6001600160a01b038216610ff25760405162461bcd60e51b81526004018080602001828103825260218152602001806114c66021913960400191505060405180910390fd5b610ffe82600083610e1c565b61103b816040518060600160405280602281526020016113cd602291396001600160a01b0385166000908152602081905260409020549190610c91565b6001600160a01b0383166000908152602081905260409020556002546110619082610f6b565b6002556040805182815290516000916001600160a01b038516917fddf252ad1be2c89b69c2b068fc378daa952ba7f163c4a11628f55a4df523b3ef9181900360200190a35050565b604080516001600160a01b0380861660248301528416604482015260648082018490528251808303909101815260849091019091526020810180516001600160e01b03166323b872dd60e01b17905261110390859061116e565b50505050565b600081836111585760405162461bcd60e51b8152602060048201818152835160248401528351909283926044909101919085019080838360008315610ce5578181015183820152602001610ccd565b50600083858161116457fe5b0495945050505050565b60606111c3826040518060400160405280602081526020017f5361666545524332303a206c6f772d6c6576656c2063616c6c206661696c6564815250856001600160a01b031661121f9092919063ffffffff16565b805190915015610e1c578080602001905160208110156111e257600080fd5b5051610e1c5760405162461bcd60e51b815260040180806020018281038252602a815260200180611530602a913960400191505060405180910390fd5b606061122e8484600085611236565b949350505050565b6060611241856113a3565b611292576040805162461bcd60e51b815260206004820152601d60248201527f416464726573733a2063616c6c20746f206e6f6e2d636f6e7472616374000000604482015290519081900360640190fd5b60006060866001600160a01b031685876040518082805190602001908083835b602083106112d15780518252601f1990920191602091820191016112b2565b6001836020036101000a03801982511681845116808217855250505050505090500191505060006040518083038185875af1925050503d8060008114611333576040519150601f19603f3d011682016040523d82523d6000602084013e611338565b606091505b5091509150811561134c57915061122e9050565b80511561135c5780518082602001fd5b60405162461bcd60e51b8152602060048201818152865160248401528651879391928392604401919085019080838360008315610ce5578181015183820152602001610ccd565b3b15159056fe45524332303a207472616e7366657220746f20746865207a65726f206164647265737345524332303a206275726e20616d6f756e7420657863656564732062616c616e63654f776e61626c653a206e6577206f776e657220697320746865207a65726f206164647265737345524332303a20617070726f766520746f20746865207a65726f206164647265737345524332303a207472616e7366657220616d6f756e7420657863656564732062616c616e6365536166654d6174683a206d756c7469706c69636174696f6e206f766572666c6f7745524332303a207472616e7366657220616d6f756e74206578636565647320616c6c6f77616e63654f776e61626c653a2063616c6c6572206973206e6f7420746865206f776e657245524332303a206275726e2066726f6d20746865207a65726f206164647265737345524332303a207472616e736665722066726f6d20746865207a65726f206164647265737345524332303a20617070726f76652066726f6d20746865207a65726f20616464726573735361666545524332303a204552433230206f7065726174696f6e20646964206e6f74207375636365656445524332303a2064656372656173656420616c6c6f77616e63652062656c6f77207a65726fa2646970667358221220bbea350f6227b6771f704e1c085ba168d5fa4cd69d3d574085f1bb6996667df364736f6c634300060c0033",
  "devdoc": {
    "kind": "dev",
    "methods": {
      "allowance(address,address)": {
        "details": "See {IERC20-allowance}."
      },
      "approve(address,uint256)": {
        "details": "See {IERC20-approve}. Requirements: - `spender` cannot be the zero address."
      },
      "balanceOf(address)": {
        "details": "See {IERC20-balanceOf}."
      },
      "decimals()": {
        "details": "Returns the number of decimals used to get its user representation. For example, if `decimals` equals `2`, a balance of `505` tokens should be displayed to a user as `5,05` (`505 / 10 ** 2`). Tokens usually opt for a value of 18, imitating the relationship between Ether and Wei. This is the value {ERC20} uses, unless {_setupDecimals} is called. NOTE: This information is only used for _display_ purposes: it in no way affects any of the arithmetic of the contract, including {IERC20-balanceOf} and {IERC20-transfer}."
      },
      "decreaseAllowance(address,uint256)": {
        "details": "Atomically decreases the allowance granted to `spender` by the caller. This is an alternative to {approve} that can be used as a mitigation for problems described in {IERC20-approve}. Emits an {Approval} event indicating the updated allowance. Requirements: - `spender` cannot be the zero address. - `spender` must have allowance for the caller of at least `subtractedValue`."
      },
      "increaseAllowance(address,uint256)": {
        "details": "Atomically increases the allowance granted to `spender` by the caller. This is an alternative to {approve} that can be used as a mitigation for problems described in {IERC20-approve}. Emits an {Approval} event indicating the updated allowance. Requirements: - `spender` cannot be the zero address."
      },
      "name()": {
        "details": "Returns the name of the token."
      },
      "owner()": {
        "details": "Returns the address of the current owner."
      },
      "renounceOwnership()": {
        "details": "Leaves the contract without owner. It will not be possible to call `onlyOwner` functions anymore. Can only be called by the current owner. NOTE: Renouncing ownership will leave the contract without an owner, thereby removing any functionality that is only available to the owner."
      },
      "symbol()": {
        "details": "Returns the symbol of the token, usually a shorter version of the name."
      },
      "totalSupply()": {
        "details": "See {IERC20-totalSupply}."
      },
      "transfer(address,uint256)": {
        "details": "See {IERC20-transfer}. Requirements: - `recipient` cannot be the zero address. - the caller must have a balance of at least `amount`."
      },
      "transferFrom(address,address,uint256)": {
        "details": "See {IERC20-transferFrom}. Emits an {Approval} event indicating the updated allowance. This is not required by the EIP. See the note at the beginning of {ERC20}; Requirements: - `sender` and `recipient` cannot be the zero address. - `sender` must have a balance of at least `amount`. - the caller must have allowance for ``sender``'s tokens of at least `amount`."
      },
      "transferOwnership(address)": {
        "details": "Transfers ownership of the contract to a new account (`newOwner`). Can only be called by the current owner."
      }
    },
    "version": 1
  },
  "userdoc": {
    "kind": "user",
    "methods": {},
    "version": 1
  },
  "storageLayout": {
    "storage": [
      {
        "astId": 10749,
        "contract": "contracts/mock/MockYTokenV2.sol:MockYUSDC",
        "label": "_balances",
        "offset": 0,
        "slot": "0",
        "type": "t_mapping(t_address,t_uint256)"
      },
      {
        "astId": 10755,
        "contract": "contracts/mock/MockYTokenV2.sol:MockYUSDC",
        "label": "_allowances",
        "offset": 0,
        "slot": "1",
        "type": "t_mapping(t_address,t_mapping(t_address,t_uint256))"
      },
      {
        "astId": 10757,
        "contract": "contracts/mock/MockYTokenV2.sol:MockYUSDC",
        "label": "_totalSupply",
        "offset": 0,
        "slot": "2",
        "type": "t_uint256"
      },
      {
        "astId": 10759,
        "contract": "contracts/mock/MockYTokenV2.sol:MockYUSDC",
        "label": "_name",
        "offset": 0,
        "slot": "3",
        "type": "t_string_storage"
      },
      {
        "astId": 10761,
        "contract": "contracts/mock/MockYTokenV2.sol:MockYUSDC",
        "label": "_symbol",
        "offset": 0,
        "slot": "4",
        "type": "t_string_storage"
      },
      {
        "astId": 10763,
        "contract": "contracts/mock/MockYTokenV2.sol:MockYUSDC",
        "label": "_decimals",
        "offset": 0,
        "slot": "5",
        "type": "t_uint8"
      },
      {
        "astId": 10063,
        "contract": "contracts/mock/MockYTokenV2.sol:MockYUSDC",
        "label": "_owner",
        "offset": 1,
        "slot": "5",
        "type": "t_address"
      },
      {
        "astId": 16982,
        "contract": "contracts/mock/MockYTokenV2.sol:MockYUSDC",
        "label": "_token",
        "offset": 0,
        "slot": "6",
        "type": "t_contract(IERC20)11313"
      }
    ],
    "types": {
      "t_address": {
        "encoding": "inplace",
        "label": "address",
        "numberOfBytes": "20"
      },
      "t_contract(IERC20)11313": {
        "encoding": "inplace",
        "label": "contract IERC20",
        "numberOfBytes": "20"
      },
      "t_mapping(t_address,t_mapping(t_address,t_uint256))": {
        "encoding": "mapping",
        "key": "t_address",
        "label": "mapping(address => mapping(address => uint256))",
        "numberOfBytes": "32",
        "value": "t_mapping(t_address,t_uint256)"
      },
      "t_mapping(t_address,t_uint256)": {
        "encoding": "mapping",
        "key": "t_address",
        "label": "mapping(address => uint256)",
        "numberOfBytes": "32",
        "value": "t_uint256"
      },
      "t_string_storage": {
        "encoding": "bytes",
        "label": "string",
        "numberOfBytes": "32"
      },
      "t_uint256": {
        "encoding": "inplace",
        "label": "uint256",
        "numberOfBytes": "32"
      },
      "t_uint8": {
        "encoding": "inplace",
        "label": "uint8",
        "numberOfBytes": "1"
      }
    }
  },
  "gasEstimates": {
    "creation": {
      "codeDepositCost": "1111200",
      "executionCost": "infinite",
      "totalCost": "infinite"
    },
    "external": {
      "allowance(address,address)": "1338",
      "approve(address,uint256)": "infinite",
      "balanceOf(address)": "1256",
      "burn(address,uint256)": "infinite",
      "decimals()": "1058",
      "decreaseAllowance(address,uint256)": "infinite",
      "deposit(uint256)": "infinite",
      "getPricePerFullShare()": "infinite",
      "increaseAllowance(address,uint256)": "infinite",
      "mint(address,uint256)": "infinite",
      "name()": "infinite",
      "owner()": "1115",
      "renounceOwnership()": "infinite",
      "symbol()": "infinite",
      "totalSupply()": "1066",
      "transfer(address,uint256)": "infinite",
      "transferFrom(address,address,uint256)": "infinite",
      "transferOwnership(address)": "infinite",
      "withdraw(uint256)": "infinite"
    }
  }
}