{
  "abi": [
    {
      "inputs": [
        {
          "internalType": "address",
          "name": "admin_",
          "type": "address"
        },
        {
          "internalType": "uint256",
          "name": "delay_",
          "type": "uint256"
        }
      ],
      "stateMutability": "nonpayable",
      "type": "constructor"
    },
    {
      "anonymous": false,
      "inputs": [
        {
          "indexed": true,
          "internalType": "bytes32",
          "name": "txHash",
          "type": "bytes32"
        },
        {
          "indexed": true,
          "internalType": "address",
          "name": "target",
          "type": "address"
        },
        {
          "indexed": false,
          "internalType": "uint256",
          "name": "value",
          "type": "uint256"
        },
        {
          "indexed": false,
          "internalType": "bytes",
          "name": "data",
          "type": "bytes"
        },
        {
          "indexed": false,
          "internalType": "uint256",
          "name": "eta",
          "type": "uint256"
        }
      ],
      "name": "CancelTransaction",
      "type": "event"
    },
    {
      "anonymous": false,
      "inputs": [
        {
          "indexed": true,
          "internalType": "bytes32",
          "name": "txHash",
          "type": "bytes32"
        },
        {
          "indexed": true,
          "internalType": "address",
          "name": "target",
          "type": "address"
        },
        {
          "indexed": false,
          "internalType": "uint256",
          "name": "value",
          "type": "uint256"
        },
        {
          "indexed": false,
          "internalType": "bytes",
          "name": "data",
          "type": "bytes"
        },
        {
          "indexed": false,
          "internalType": "uint256",
          "name": "eta",
          "type": "uint256"
        }
      ],
      "name": "ExecuteTransaction",
      "type": "event"
    },
    {
      "anonymous": false,
      "inputs": [
        {
          "indexed": true,
          "internalType": "address",
          "name": "newAdmin",
          "type": "address"
        }
      ],
      "name": "NewAdmin",
      "type": "event"
    },
    {
      "anonymous": false,
      "inputs": [
        {
          "indexed": true,
          "internalType": "uint256",
          "name": "newDelay",
          "type": "uint256"
        }
      ],
      "name": "NewDelay",
      "type": "event"
    },
    {
      "anonymous": false,
      "inputs": [
        {
          "indexed": true,
          "internalType": "address",
          "name": "newPendingAdmin",
          "type": "address"
        }
      ],
      "name": "NewPendingAdmin",
      "type": "event"
    },
    {
      "anonymous": false,
      "inputs": [
        {
          "indexed": true,
          "internalType": "bytes32",
          "name": "txHash",
          "type": "bytes32"
        },
        {
          "indexed": true,
          "internalType": "address",
          "name": "target",
          "type": "address"
        },
        {
          "indexed": false,
          "internalType": "uint256",
          "name": "value",
          "type": "uint256"
        },
        {
          "indexed": false,
          "internalType": "bytes",
          "name": "data",
          "type": "bytes"
        },
        {
          "indexed": false,
          "internalType": "uint256",
          "name": "eta",
          "type": "uint256"
        }
      ],
      "name": "QueueTransaction",
      "type": "event"
    },
    {
      "inputs": [],
      "name": "GRACE_PERIOD",
      "outputs": [
        {
          "internalType": "uint256",
          "name": "",
          "type": "uint256"
        }
      ],
      "stateMutability": "view",
      "type": "function"
    },
    {
      "inputs": [],
      "name": "MAXIMUM_DELAY",
      "outputs": [
        {
          "internalType": "uint256",
          "name": "",
          "type": "uint256"
        }
      ],
      "stateMutability": "view",
      "type": "function"
    },
    {
      "inputs": [],
      "name": "MINIMUM_DELAY",
      "outputs": [
        {
          "internalType": "uint256",
          "name": "",
          "type": "uint256"
        }
      ],
      "stateMutability": "view",
      "type": "function"
    },
    {
      "inputs": [],
      "name": "acceptAdmin",
      "outputs": [],
      "stateMutability": "nonpayable",
      "type": "function"
    },
    {
      "inputs": [],
      "name": "admin",
      "outputs": [
        {
          "internalType": "address",
          "name": "",
          "type": "address"
        }
      ],
      "stateMutability": "view",
      "type": "function"
    },
    {
      "inputs": [
        {
          "internalType": "address",
          "name": "target",
          "type": "address"
        },
        {
          "internalType": "uint256",
          "name": "value",
          "type": "uint256"
        },
        {
          "internalType": "bytes",
          "name": "data",
          "type": "bytes"
        },
        {
          "internalType": "uint256",
          "name": "eta",
          "type": "uint256"
        }
      ],
      "name": "cancelTransaction",
      "outputs": [],
      "stateMutability": "nonpayable",
      "type": "function"
    },
    {
      "inputs": [],
      "name": "delay",
      "outputs": [
        {
          "internalType": "uint256",
          "name": "",
          "type": "uint256"
        }
      ],
      "stateMutability": "view",
      "type": "function"
    },
    {
      "inputs": [
        {
          "internalType": "address",
          "name": "target",
          "type": "address"
        },
        {
          "internalType": "uint256",
          "name": "value",
          "type": "uint256"
        },
        {
          "internalType": "bytes",
          "name": "data",
          "type": "bytes"
        },
        {
          "internalType": "uint256",
          "name": "eta",
          "type": "uint256"
        }
      ],
      "name": "executeTransaction",
      "outputs": [
        {
          "internalType": "bytes",
          "name": "",
          "type": "bytes"
        }
      ],
      "stateMutability": "payable",
      "type": "function"
    },
    {
      "inputs": [],
      "name": "pendingAdmin",
      "outputs": [
        {
          "internalType": "address",
          "name": "",
          "type": "address"
        }
      ],
      "stateMutability": "view",
      "type": "function"
    },
    {
      "inputs": [
        {
          "internalType": "address",
          "name": "target",
          "type": "address"
        },
        {
          "internalType": "uint256",
          "name": "value",
          "type": "uint256"
        },
        {
          "internalType": "bytes",
          "name": "data",
          "type": "bytes"
        },
        {
          "internalType": "uint256",
          "name": "eta",
          "type": "uint256"
        }
      ],
      "name": "queueTransaction",
      "outputs": [
        {
          "internalType": "bytes32",
          "name": "",
          "type": "bytes32"
        }
      ],
      "stateMutability": "nonpayable",
      "type": "function"
    },
    {
      "inputs": [
        {
          "internalType": "bytes32",
          "name": "",
          "type": "bytes32"
        }
      ],
      "name": "queuedTransactions",
      "outputs": [
        {
          "internalType": "bool",
          "name": "",
          "type": "bool"
        }
      ],
      "stateMutability": "view",
      "type": "function"
    },
    {
      "inputs": [
        {
          "internalType": "uint256",
          "name": "delay_",
          "type": "uint256"
        }
      ],
      "name": "setDelay",
      "outputs": [],
      "stateMutability": "nonpayable",
      "type": "function"
    },
    {
      "inputs": [
        {
          "internalType": "address",
          "name": "pendingAdmin_",
          "type": "address"
        }
      ],
      "name": "setPendingAdmin",
      "outputs": [],
      "stateMutability": "nonpayable",
      "type": "function"
    }
  ],
  "address": "0xbe16975F779c14300aDa897A7cfd12be83E77a48",
  "args": [
    "0x788A6D6Ec9dfd283810e93D0245e5Da283cfE7f1",
    "604800"
  ],
  "solcInputHash": "0x57f8616e1b9f5e60b5dddddb3a19aaaa55edb00aeb2821c2b44dfb8838d95b70",
  "bytecode": "0x608060405234801561001057600080fd5b506040516112fe3803806112fe8339818101604052604081101561003357600080fd5b508051602090910151600080546001600160a01b0319166001600160a01b0390931692909217825560025561129090819061006e90396000f3fe6080604052600436106100c25760003560e01c80637d645fab1161007f578063c1a287e211610059578063c1a287e214610459578063e177246e1461046e578063f2b0653714610498578063f851a440146104d6576100c2565b80637d645fab146103655780638e361cdf1461037a578063b1b43ae514610444576100c2565b806306a41d09146100c75780630e18b681146101f957806326782247146102105780634dd18bf5146102415780635b26b108146102745780636a42b8f81461033e575b600080fd5b610184600480360360808110156100dd57600080fd5b6001600160a01b038235169160208101359181019060608101604082013564010000000081111561010d57600080fd5b82018360208201111561011f57600080fd5b8035906020019184600183028401116401000000008311171561014157600080fd5b91908080601f01602080910402602001604051908101604052809392919081815260200183838082843760009201919091525092955050913592506104eb915050565b6040805160208082528351818301528351919283929083019185019080838360005b838110156101be5781810151838201526020016101a6565b50505050905090810190601f1680156101eb5780820380516001836020036101000a031916815260200191505b509250505060405180910390f35b34801561020557600080fd5b5061020e61088a565b005b34801561021c57600080fd5b50610225610926565b604080516001600160a01b039092168252519081900360200190f35b34801561024d57600080fd5b5061020e6004803603602081101561026457600080fd5b50356001600160a01b0316610935565b34801561028057600080fd5b5061020e6004803603608081101561029757600080fd5b6001600160a01b03823516916020810135918101906060810160408201356401000000008111156102c757600080fd5b8201836020820111156102d957600080fd5b803590602001918460018302840111640100000000831117156102fb57600080fd5b91908080601f01602080910402602001604051908101604052809392919081815260200183838082843760009201919091525092955050913592506109c3915050565b34801561034a57600080fd5b50610353610ba1565b60408051918252519081900360200190f35b34801561037157600080fd5b50610353610ba7565b34801561038657600080fd5b506103536004803603608081101561039d57600080fd5b6001600160a01b03823516916020810135918101906060810160408201356401000000008111156103cd57600080fd5b8201836020820111156103df57600080fd5b8035906020019184600183028401116401000000008311171561040157600080fd5b91908080601f0160208091040260200160405190810160405280939291908181526020018383808284376000920191909152509295505091359250610bae915050565b34801561045057600080fd5b50610353610de1565b34801561046557600080fd5b50610353610de8565b34801561047a57600080fd5b5061020e6004803603602081101561049157600080fd5b5035610def565b3480156104a457600080fd5b506104c2600480360360208110156104bb57600080fd5b5035610ee4565b604080519115158252519081900360200190f35b3480156104e257600080fd5b50610225610ef9565b6000546060906001600160a01b031633146105375760405162461bcd60e51b8152600401808060200182810382526038815260200180610f6e6038913960400191505060405180910390fd5b60008585858560405160200180856001600160a01b0316815260200184815260200180602001838152602001828103825284818151815260200191508051906020019080838360005b83811015610598578181015183820152602001610580565b50505050905090810190601f1680156105c55780820380516001836020036101000a031916815260200191505b5060408051601f1981840301815291815281516020928301206000818152600390935291205490975060ff1695506106349450505050505760405162461bcd60e51b815260040180806020018281038252603d8152602001806110c1603d913960400191505060405180910390fd5b8261063d610f08565b101561067a5760405162461bcd60e51b81526004018080602001828103825260458152602001806110106045913960600191505060405180910390fd5b6106878362127500610f0c565b61068f610f08565b11156106cc5760405162461bcd60e51b8152600401808060200182810382526033815260200180610fdd6033913960400191505060405180910390fd5b6000818152600360209081526040808320805460ff191690555186516060926001600160a01b038b16928a928a928291908401908083835b602083106107235780518252601f199092019160209182019101610704565b6001836020036101000a03801982511681845116808217855250505050505090500191505060006040518083038185875af1925050503d8060008114610785576040519150601f19603f3d011682016040523d82523d6000602084013e61078a565b606091505b5091509150816107cb5760405162461bcd60e51b815260040180806020018281038252603d8152602001806111a4603d913960400191505060405180910390fd5b876001600160a01b0316837f96e4fc94d58198a0b11692781e488d13e3551d8f3b55612364703c8f163408f28989896040518084815260200180602001838152602001828103825284818151815260200191508051906020019080838360005b8381101561084357818101518382015260200161082b565b50505050905090810190601f1680156108705780820380516001836020036101000a031916815260200191505b5094505050505060405180910390a3979650505050505050565b6001546001600160a01b031633146108d35760405162461bcd60e51b81526004018080602001828103825260388152602001806110fe6038913960400191505060405180910390fd5b60008054336001600160a01b031991821617808355600180549092169091556040516001600160a01b03909116917f71614071b88dee5e0b2ae578a9dd7b2ebbe9ae832ba419dc0242cd065a290b6c91a2565b6001546001600160a01b031681565b3330146109735760405162461bcd60e51b81526004018080602001828103825260388152602001806111366038913960400191505060405180910390fd5b600180546001600160a01b0319166001600160a01b0383811691909117918290556040519116907f69d78e38a01985fbb1462961809b4b2d65531bc93b2b94037f3334b82ca4a75690600090a250565b6000546001600160a01b03163314610a0c5760405162461bcd60e51b8152600401808060200182810382526037815260200180610fa66037913960400191505060405180910390fd5b60008484848460405160200180856001600160a01b0316815260200184815260200180602001838152602001828103825284818151815260200191508051906020019080838360005b83811015610a6d578181015183820152602001610a55565b50505050905090810190601f168015610a9a5780820380516001836020036101000a031916815260200191505b509550505050505060405160208183030381529060405280519060200120905060006003600083815260200190815260200160002060006101000a81548160ff021916908315150217905550846001600160a01b0316817f7a2487ccd8779c83183a454be1dcc8ae3cbdbc70af0cf92cc04e074eda321fb78686866040518084815260200180602001838152602001828103825284818151815260200191508051906020019080838360005b83811015610b5e578181015183820152602001610b46565b50505050905090810190601f168015610b8b5780820380516001836020036101000a031916815260200191505b5094505050505060405180910390a35050505050565b60025481565b62278d0081565b600080546001600160a01b03163314610bf85760405162461bcd60e51b815260040180806020018281038252603681526020018061116e6036913960400191505060405180910390fd5b610c0c600254610c06610f08565b90610f0c565b821015610c4a5760405162461bcd60e51b81526004018080602001828103825260498152602001806111e16049913960600191505060405180910390fd5b60008585858560405160200180856001600160a01b0316815260200184815260200180602001838152602001828103825284818151815260200191508051906020019080838360005b83811015610cab578181015183820152602001610c93565b50505050905090810190601f168015610cd85780820380516001836020036101000a031916815260200191505b509550505050505060405160208183030381529060405280519060200120905060016003600083815260200190815260200160002060006101000a81548160ff021916908315150217905550856001600160a01b0316817f9ffdf0c63c8eec344b500e806ac1d1d37308fdf141a29d10cdd82c069aec6e488787876040518084815260200180602001838152602001828103825284818151815260200191508051906020019080838360005b83811015610d9c578181015183820152602001610d84565b50505050905090810190601f168015610dc95780820380516001836020036101000a031916815260200191505b5094505050505060405180910390a395945050505050565b6202a30081565b6212750081565b333014610e2d5760405162461bcd60e51b815260040180806020018281038252603181526020018061122a6031913960400191505060405180910390fd5b6202a300811015610e6f5760405162461bcd60e51b81526004018080602001828103825260348152602001806110556034913960400191505060405180910390fd5b62278d00811115610eb15760405162461bcd60e51b81526004018080602001828103825260388152602001806110896038913960400191505060405180910390fd5b600281905560405181907f948b1f6a42ee138b7e34058ba85a37f716d55ff25ff05a763f15bed6a04c8d2c90600090a250565b60036020526000908152604090205460ff1681565b6000546001600160a01b031681565b4290565b600082820183811015610f66576040805162461bcd60e51b815260206004820152601b60248201527f536166654d6174683a206164646974696f6e206f766572666c6f770000000000604482015290519081900360640190fd5b939250505056fe54696d656c6f636b3a3a657865637574655472616e73616374696f6e3a2043616c6c206d75737420636f6d652066726f6d2061646d696e2e54696d656c6f636b3a3a63616e63656c5472616e73616374696f6e3a2043616c6c206d75737420636f6d652066726f6d2061646d696e2e54696d656c6f636b3a3a657865637574655472616e73616374696f6e3a205472616e73616374696f6e206973207374616c652e54696d656c6f636b3a3a657865637574655472616e73616374696f6e3a205472616e73616374696f6e206861736e2774207375727061737365642074696d65206c6f636b2e54696d656c6f636b3a3a73657444656c61793a2044656c6179206d75737420657863656564206d696e696d756d2064656c61792e54696d656c6f636b3a3a73657444656c61793a2044656c6179206d757374206e6f7420657863656564206d6178696d756d2064656c61792e54696d656c6f636b3a3a657865637574655472616e73616374696f6e3a205472616e73616374696f6e206861736e2774206265656e207175657565642e54696d656c6f636b3a3a61636365707441646d696e3a2043616c6c206d75737420636f6d652066726f6d2070656e64696e6741646d696e2e54696d656c6f636b3a3a73657450656e64696e6741646d696e3a2043616c6c206d75737420636f6d652066726f6d2054696d656c6f636b2e54696d656c6f636b3a3a71756575655472616e73616374696f6e3a2043616c6c206d75737420636f6d652066726f6d2061646d696e2e54696d656c6f636b3a3a657865637574655472616e73616374696f6e3a205472616e73616374696f6e20657865637574696f6e2072657665727465642e54696d656c6f636b3a3a71756575655472616e73616374696f6e3a20457374696d6174656420657865637574696f6e20626c6f636b206d75737420736174697366792064656c61792e54696d656c6f636b3a3a73657444656c61793a2043616c6c206d75737420636f6d652066726f6d2054696d656c6f636b2ea264697066735822122066ee43237b40106a2635295c8f4c8d163b89fe0e95651a74a8dadb9f28906d7f64736f6c634300060c0033",
  "devdoc": {
    "kind": "dev",
    "methods": {},
    "version": 1
  },
  "userdoc": {
    "kind": "user",
    "methods": {},
    "version": 1
  },
  "storageLayout": {
    "storage": [
      {
        "astId": 14779,
        "contract": "contracts/Timelock.sol:Timelock",
        "label": "admin",
        "offset": 0,
        "slot": "0",
        "type": "t_address"
      },
      {
        "astId": 14781,
        "contract": "contracts/Timelock.sol:Timelock",
        "label": "pendingAdmin",
        "offset": 0,
        "slot": "1",
        "type": "t_address"
      },
      {
        "astId": 14783,
        "contract": "contracts/Timelock.sol:Timelock",
        "label": "delay",
        "offset": 0,
        "slot": "2",
        "type": "t_uint256"
      },
      {
        "astId": 14787,
        "contract": "contracts/Timelock.sol:Timelock",
        "label": "queuedTransactions",
        "offset": 0,
        "slot": "3",
        "type": "t_mapping(t_bytes32,t_bool)"
      }
    ],
    "types": {
      "t_address": {
        "encoding": "inplace",
        "label": "address",
        "numberOfBytes": "20"
      },
      "t_bool": {
        "encoding": "inplace",
        "label": "bool",
        "numberOfBytes": "1"
      },
      "t_bytes32": {
        "encoding": "inplace",
        "label": "bytes32",
        "numberOfBytes": "32"
      },
      "t_mapping(t_bytes32,t_bool)": {
        "encoding": "mapping",
        "key": "t_bytes32",
        "label": "mapping(bytes32 => bool)",
        "numberOfBytes": "32",
        "value": "t_bool"
      },
      "t_uint256": {
        "encoding": "inplace",
        "label": "uint256",
        "numberOfBytes": "32"
      }
    }
  },
  "gasEstimates": {
    "creation": {
      "codeDepositCost": "950400",
      "executionCost": "infinite",
      "totalCost": "infinite"
    },
    "external": {
      "GRACE_PERIOD()": "220",
      "MAXIMUM_DELAY()": "221",
      "MINIMUM_DELAY()": "265",
      "acceptAdmin()": "infinite",
      "admin()": "1125",
      "cancelTransaction(address,uint256,bytes,uint256)": "infinite",
      "delay()": "1109",
      "executeTransaction(address,uint256,bytes,uint256)": "infinite",
      "pendingAdmin()": "1082",
      "queueTransaction(address,uint256,bytes,uint256)": "infinite",
      "queuedTransactions(bytes32)": "1184",
      "setDelay(uint256)": "infinite",
      "setPendingAdmin(address)": "infinite"
    },
    "internal": {
      "getBlockTimestamp()": "14"
    }
  }
}