{
  "abi": [
    {
      "anonymous": false,
      "inputs": [
        {
          "indexed": true,
          "internalType": "bytes32",
          "name": "role",
          "type": "bytes32"
        },
        {
          "indexed": true,
          "internalType": "address",
          "name": "account",
          "type": "address"
        },
        {
          "indexed": true,
          "internalType": "address",
          "name": "sender",
          "type": "address"
        }
      ],
      "name": "RoleGranted",
      "type": "event"
    },
    {
      "anonymous": false,
      "inputs": [
        {
          "indexed": true,
          "internalType": "bytes32",
          "name": "role",
          "type": "bytes32"
        },
        {
          "indexed": true,
          "internalType": "address",
          "name": "account",
          "type": "address"
        },
        {
          "indexed": true,
          "internalType": "address",
          "name": "sender",
          "type": "address"
        }
      ],
      "name": "RoleRevoked",
      "type": "event"
    },
    {
      "inputs": [],
      "name": "DEFAULT_ADMIN_ROLE",
      "outputs": [
        {
          "internalType": "bytes32",
          "name": "",
          "type": "bytes32"
        }
      ],
      "stateMutability": "view",
      "type": "function"
    },
    {
      "inputs": [],
      "name": "assetManagerRole",
      "outputs": [
        {
          "internalType": "bytes32",
          "name": "",
          "type": "bytes32"
        }
      ],
      "stateMutability": "view",
      "type": "function"
    },
    {
      "inputs": [
        {
          "internalType": "address",
          "name": "asset",
          "type": "address"
        }
      ],
      "name": "balanceOf",
      "outputs": [
        {
          "internalType": "uint256",
          "name": "",
          "type": "uint256"
        }
      ],
      "stateMutability": "view",
      "type": "function"
    },
    {
      "inputs": [],
      "name": "balances",
      "outputs": [
        {
          "internalType": "address[]",
          "name": "",
          "type": "address[]"
        },
        {
          "internalType": "uint256[]",
          "name": "",
          "type": "uint256[]"
        },
        {
          "internalType": "uint256",
          "name": "",
          "type": "uint256"
        }
      ],
      "stateMutability": "view",
      "type": "function"
    },
    {
      "inputs": [
        {
          "internalType": "address",
          "name": "account",
          "type": "address"
        },
        {
          "internalType": "address",
          "name": "asset",
          "type": "address"
        },
        {
          "internalType": "uint256",
          "name": "credits",
          "type": "uint256"
        }
      ],
      "name": "collect",
      "outputs": [
        {
          "internalType": "uint256",
          "name": "",
          "type": "uint256"
        }
      ],
      "stateMutability": "nonpayable",
      "type": "function"
    },
    {
      "inputs": [
        {
          "internalType": "bytes32",
          "name": "role",
          "type": "bytes32"
        }
      ],
      "name": "getRoleAdmin",
      "outputs": [
        {
          "internalType": "bytes32",
          "name": "",
          "type": "bytes32"
        }
      ],
      "stateMutability": "view",
      "type": "function"
    },
    {
      "inputs": [
        {
          "internalType": "bytes32",
          "name": "role",
          "type": "bytes32"
        },
        {
          "internalType": "uint256",
          "name": "index",
          "type": "uint256"
        }
      ],
      "name": "getRoleMember",
      "outputs": [
        {
          "internalType": "address",
          "name": "",
          "type": "address"
        }
      ],
      "stateMutability": "view",
      "type": "function"
    },
    {
      "inputs": [
        {
          "internalType": "bytes32",
          "name": "role",
          "type": "bytes32"
        }
      ],
      "name": "getRoleMemberCount",
      "outputs": [
        {
          "internalType": "uint256",
          "name": "",
          "type": "uint256"
        }
      ],
      "stateMutability": "view",
      "type": "function"
    },
    {
      "inputs": [],
      "name": "governorRole",
      "outputs": [
        {
          "internalType": "bytes32",
          "name": "",
          "type": "bytes32"
        }
      ],
      "stateMutability": "view",
      "type": "function"
    },
    {
      "inputs": [
        {
          "internalType": "bytes32",
          "name": "role",
          "type": "bytes32"
        },
        {
          "internalType": "address",
          "name": "account",
          "type": "address"
        }
      ],
      "name": "grantRole",
      "outputs": [],
      "stateMutability": "nonpayable",
      "type": "function"
    },
    {
      "inputs": [
        {
          "internalType": "bytes32",
          "name": "role",
          "type": "bytes32"
        },
        {
          "internalType": "address",
          "name": "account",
          "type": "address"
        }
      ],
      "name": "hasRole",
      "outputs": [
        {
          "internalType": "bool",
          "name": "",
          "type": "bool"
        }
      ],
      "stateMutability": "view",
      "type": "function"
    },
    {
      "inputs": [
        {
          "internalType": "address",
          "name": "honestConfiguration",
          "type": "address"
        }
      ],
      "name": "initialize",
      "outputs": [],
      "stateMutability": "nonpayable",
      "type": "function"
    },
    {
      "inputs": [
        {
          "internalType": "address",
          "name": "account",
          "type": "address"
        },
        {
          "internalType": "address",
          "name": "asset",
          "type": "address"
        },
        {
          "internalType": "uint256",
          "name": "amount",
          "type": "uint256"
        }
      ],
      "name": "invest",
      "outputs": [
        {
          "internalType": "uint256",
          "name": "",
          "type": "uint256"
        }
      ],
      "stateMutability": "nonpayable",
      "type": "function"
    },
    {
      "inputs": [
        {
          "internalType": "address",
          "name": "asset",
          "type": "address"
        }
      ],
      "name": "priceOf",
      "outputs": [
        {
          "internalType": "uint256",
          "name": "",
          "type": "uint256"
        }
      ],
      "stateMutability": "view",
      "type": "function"
    },
    {
      "inputs": [
        {
          "internalType": "bytes32",
          "name": "role",
          "type": "bytes32"
        },
        {
          "internalType": "address",
          "name": "account",
          "type": "address"
        }
      ],
      "name": "renounceRole",
      "outputs": [],
      "stateMutability": "nonpayable",
      "type": "function"
    },
    {
      "inputs": [
        {
          "internalType": "bytes32",
          "name": "role",
          "type": "bytes32"
        },
        {
          "internalType": "address",
          "name": "account",
          "type": "address"
        }
      ],
      "name": "revokeRole",
      "outputs": [],
      "stateMutability": "nonpayable",
      "type": "function"
    },
    {
      "inputs": [
        {
          "internalType": "address",
          "name": "asset",
          "type": "address"
        }
      ],
      "name": "shareOf",
      "outputs": [
        {
          "internalType": "uint256",
          "name": "",
          "type": "uint256"
        }
      ],
      "stateMutability": "view",
      "type": "function"
    },
    {
      "inputs": [],
      "name": "shares",
      "outputs": [
        {
          "internalType": "address[]",
          "name": "",
          "type": "address[]"
        },
        {
          "internalType": "uint256[]",
          "name": "",
          "type": "uint256[]"
        },
        {
          "internalType": "uint256",
          "name": "",
          "type": "uint256"
        },
        {
          "internalType": "uint256",
          "name": "",
          "type": "uint256"
        }
      ],
      "stateMutability": "view",
      "type": "function"
    },
    {
      "inputs": [],
      "name": "totalBalance",
      "outputs": [
        {
          "internalType": "uint256",
          "name": "",
          "type": "uint256"
        }
      ],
      "stateMutability": "view",
      "type": "function"
    },
    {
      "inputs": [
        {
          "internalType": "address",
          "name": "to",
          "type": "address"
        }
      ],
      "name": "transferOwnership",
      "outputs": [],
      "stateMutability": "nonpayable",
      "type": "function"
    },
    {
      "inputs": [],
      "name": "vaultRole",
      "outputs": [
        {
          "internalType": "bytes32",
          "name": "",
          "type": "bytes32"
        }
      ],
      "stateMutability": "view",
      "type": "function"
    }
  ],
  "address": "0x5eD7F5ba58f900d3Aeba825C916641574ab17F64",
  "args": [],
  "solcInputHash": "0x57f8616e1b9f5e60b5dddddb3a19aaaa55edb00aeb2821c2b44dfb8838d95b70",
  "bytecode": "0x608060405234801561001057600080fd5b50612606806100206000396000f3fe608060405234801561001057600080fd5b50600436106101375760003560e01c806391d14854116100b8578063c8fea2fb1161007c578063c8fea2fb14610481578063ca15c873146104b7578063ce16489e146104d4578063d547741f146104dc578063eaf896fd14610508578063f2fde38b1461051057610137565b806391d14854146103e5578063a217fddf14610425578063ad7a672f1461042d578063b95ed06f14610435578063c4d66de81461045b57610137565b806349dcd6a1116100ff57806349dcd6a11461029a578063653ac422146102a257806370a08231146102d85780637bb98a68146102fe5780639010d07c146103a657610137565b806303314efa1461013c57806321e5e2c4146101eb578063248a9ca3146102235780632f2ff15d1461024057806336568abe1461026e575b600080fd5b610144610536565b604051808060200180602001858152602001848152602001838103835287818151815260200191508051906020019060200280838360005b8381101561019457818101518382015260200161017c565b50505050905001838103825286818151815260200191508051906020019060200280838360005b838110156101d35781810151838201526020016101bb565b50505050905001965050505050505060405180910390f35b6102116004803603602081101561020157600080fd5b50356001600160a01b031661076b565b60408051918252519081900360200190f35b6102116004803603602081101561023957600080fd5b5035610795565b61026c6004803603604081101561025657600080fd5b50803590602001356001600160a01b03166107aa565b005b61026c6004803603604081101561028457600080fd5b50803590602001356001600160a01b0316610816565b610211610877565b610211600480360360608110156102b857600080fd5b506001600160a01b0381358116916020810135909116906040013561087d565b610211600480360360208110156102ee57600080fd5b50356001600160a01b0316610b6f565b610306610b80565b604051808060200180602001848152602001838103835286818151815260200191508051906020019060200280838360005b83811015610350578181015183820152602001610338565b50505050905001838103825285818151815260200191508051906020019060200280838360005b8381101561038f578181015183820152602001610377565b505050509050019550505050505060405180910390f35b6103c9600480360360408110156103bc57600080fd5b5080359060200135610d58565b604080516001600160a01b039092168252519081900360200190f35b610411600480360360408110156103fb57600080fd5b50803590602001356001600160a01b0316610d77565b604080519115158252519081900360200190f35b610211610d8f565b610211610d94565b6102116004803603602081101561044b57600080fd5b50356001600160a01b0316610ee5565b61026c6004803603602081101561047157600080fd5b50356001600160a01b0316610f5f565b6102116004803603606081101561049757600080fd5b506001600160a01b03813581169160208101359091169060400135611071565b610211600480360360208110156104cd57600080fd5b5035611377565b61021161138e565b61026c600480360360408110156104f257600080fd5b50803590602001356001600160a01b0316611394565b6102116113ed565b61026c6004803603602081101561052657600080fd5b50356001600160a01b03166113f3565b606080600080606060cc60009054906101000a90046001600160a01b03166001600160a01b031663c00544e76040518163ffffffff1660e01b815260040160006040518083038186803b15801561058c57600080fd5b505afa1580156105a0573d6000803e3d6000fd5b505050506040513d6000823e601f3d908101601f1916820160405260208110156105c957600080fd5b81019080805160405193929190846401000000008211156105e957600080fd5b9083019060208201858111156105fe57600080fd5b825186602082028301116401000000008211171561061b57600080fd5b82525081516020918201928201910280838360005b83811015610648578181015183820152602001610630565b5050505090500160405250505090506060815167ffffffffffffffff8111801561067157600080fd5b5060405190808252806020026020018201604052801561069b578160200160208202803683370190505b50905060008060005b8451811015610739576106c98582815181106106bc57fe5b602002602001015161076b565b8482815181106106d557fe5b6020026020010181815250506107078482815181106106f057fe5b60200260200101518461141390919063ffffffff16565b925061072f61072886838151811061071b57fe5b602002602001015161146d565b8390611413565b91506001016106a4565b508383836107598161075386670de0b6b3a7640000611525565b9061157e565b97509750975097505050505090919293565b600080610777836115c0565b905061078c6001600160a01b03821630611643565b9150505b919050565b60009081526065602052604090206002015490565b6000828152606560205260409020600201546107cd906107c86116cb565b610d77565b6108085760405162461bcd60e51b815260040180806020018281038252602f815260200180612352602f913960400191505060405180910390fd5b61081282826116cf565b5050565b61081e6116cb565b6001600160a01b0316816001600160a01b03161461086d5760405162461bcd60e51b815260040180806020018281038252602f8152602001806125a2602f913960400191505060405180910390fd5b6108128282611738565b60975490565b600061088b60985433610d77565b6108c65760405162461bcd60e51b815260040180806020018281038252602f8152602001806124e3602f913960400191505060405180910390fd5b609a5460ff1661091d576040805162461bcd60e51b815260206004820152601f60248201527f5265656e7472616e637947756172643a207265656e7472616e742063616c6c00604482015290519081900360640190fd5b609a805460ff191690556001600160a01b03841661096c5760405162461bcd60e51b81526004018080602001828103825260308152602001806124826030913960400191505060405180910390fd5b600082116109ab5760405162461bcd60e51b815260040180806020018281038252603881526020018061231a6038913960400191505060405180910390fd5b6109c06001600160a01b0384168530856117a1565b60006109cb846115c0565b90506000816001600160a01b03166370a08231306040518263ffffffff1660e01b815260040180826001600160a01b0316815260200191505060206040518083038186803b158015610a1c57600080fd5b505afa158015610a30573d6000803e3d6000fd5b505050506040513d6020811015610a4657600080fd5b50519050610a5e6001600160a01b0386168386611801565b816001600160a01b031663b6b55f25856040518263ffffffff1660e01b815260040180828152602001915050600060405180830381600087803b158015610aa457600080fd5b505af1158015610ab8573d6000803e3d6000fd5b505050506000610b4182846001600160a01b03166370a08231306040518263ffffffff1660e01b815260040180826001600160a01b0316815260200191505060206040518083038186803b158015610b0f57600080fd5b505afa158015610b23573d6000803e3d6000fd5b505050506040513d6020811015610b3957600080fd5b505190611919565b9050610b566001600160a01b0384168261195b565b9350505050609a805460ff191660011790559392505050565b6000610b7a8261146d565b92915050565b6060806000606060cc60009054906101000a90046001600160a01b03166001600160a01b031663c00544e76040518163ffffffff1660e01b815260040160006040518083038186803b158015610bd557600080fd5b505afa158015610be9573d6000803e3d6000fd5b505050506040513d6000823e601f3d908101601f191682016040526020811015610c1257600080fd5b8101908080516040519392919084640100000000821115610c3257600080fd5b908301906020820185811115610c4757600080fd5b8251866020820283011164010000000082111715610c6457600080fd5b82525081516020918201928201910280838360005b83811015610c91578181015183820152602001610c79565b5050505090500160405250505090506060815167ffffffffffffffff81118015610cba57600080fd5b50604051908082528060200260200182016040528015610ce4578160200160208202803683370190505b5090506000805b8351811015610d4b57610d0384828151811061071b57fe5b838281518110610d0f57fe5b602002602001018181525050610d41838281518110610d2a57fe5b60200260200101518361141390919063ffffffff16565b9150600101610ceb565b5091945092509050909192565b6000828152606560205260408120610d709083611a3a565b9392505050565b6000828152606560205260408120610d709083611a46565b600081565b6000606060cc60009054906101000a90046001600160a01b03166001600160a01b031663c00544e76040518163ffffffff1660e01b815260040160006040518083038186803b158015610de657600080fd5b505afa158015610dfa573d6000803e3d6000fd5b505050506040513d6000823e601f3d908101601f191682016040526020811015610e2357600080fd5b8101908080516040519392919084640100000000821115610e4357600080fd5b908301906020820185811115610e5857600080fd5b8251866020820283011164010000000082111715610e7557600080fd5b82525081516020918201928201910280838360005b83811015610ea2578181015183820152602001610e8a565b505050509050016040525050509050600080600090505b8251811015610ede57610ed461072884838151811061071b57fe5b9150600101610eb9565b5091505090565b600080610ef1836115c0565b9050806001600160a01b03166377c7b8fc6040518163ffffffff1660e01b815260040160206040518083038186803b158015610f2c57600080fd5b505afa158015610f40573d6000803e3d6000fd5b505050506040513d6020811015610f5657600080fd5b50519392505050565b600054610100900460ff1680610f785750610f78611a5b565b80610f86575060005460ff16155b610fc15760405162461bcd60e51b815260040180806020018281038252602e815260200180612454602e913960400191505060405180910390fd5b600054610100900460ff16158015610fec576000805460ff1961ff0019909116610100171660011790555b6001600160a01b0382166110315760405162461bcd60e51b81526004018080602001828103825260488152602001806123816048913960600191505060405180910390fd5b611039611a61565b611041611b80565b60cc80546001600160a01b0319166001600160a01b0384161790558015610812576000805461ff00191690555050565b600061107f60985433610d77565b6110ba5760405162461bcd60e51b815260040180806020018281038252602f8152602001806124e3602f913960400191505060405180910390fd5b609a5460ff16611111576040805162461bcd60e51b815260206004820152601f60248201527f5265656e7472616e637947756172643a207265656e7472616e742063616c6c00604482015290519081900360640190fd5b609a805460ff191690556001600160a01b0384166111605760405162461bcd60e51b81526004018080602001828103825260318152602001806124b26031913960400191505060405180910390fd5b6000821161119f5760405162461bcd60e51b815260040180806020018281038252603a8152602001806123c9603a913960400191505060405180910390fd5b60006111aa846115c0565b905060006111c16001600160a01b03831685611c29565b90506000611240670de0b6b3a7640000610753856001600160a01b03166377c7b8fc6040518163ffffffff1660e01b815260040160206040518083038186803b15801561120d57600080fd5b505afa158015611221573d6000803e3d6000fd5b505050506040513d602081101561123757600080fd5b50518590611525565b9050826001600160a01b0316632e1a7d4d836040518263ffffffff1660e01b815260040180828152602001915050600060405180830381600087803b15801561128857600080fd5b505af115801561129c573d6000803e3d6000fd5b5050604080516370a0823160e01b815230600482015290516001600160a01b038a1693506370a0823192506024808301926020929190829003018186803b1580156112e657600080fd5b505afa1580156112fa573d6000803e3d6000fd5b505050506040513d602081101561131057600080fd5b50518111156113505760405162461bcd60e51b81526004018080602001828103825260308152602001806125126030913960400191505060405180910390fd5b6113646001600160a01b0387168883611d08565b610b566001600160a01b0387168261195b565b6000818152606560205260408120610b7a90611d5a565b60995490565b6000828152606560205260409020600201546113b2906107c86116cb565b61086d5760405162461bcd60e51b81526004018080602001828103825260308152602001806124036030913960400191505060405180910390fd5b60985490565b6113fe6000826107aa565b611410600061140b6116cb565b611394565b50565b600082820183811015610d70576040805162461bcd60e51b815260206004820152601b60248201527f536166654d6174683a206164646974696f6e206f766572666c6f770000000000604482015290519081900360640190fd5b600080611479836115c0565b905060006114906001600160a01b03831630611643565b9050806114a257600092505050610790565b61151d670de0b6b3a764000061075383856001600160a01b03166377c7b8fc6040518163ffffffff1660e01b815260040160206040518083038186803b1580156114eb57600080fd5b505afa1580156114ff573d6000803e3d6000fd5b505050506040513d602081101561151557600080fd5b505190611525565b949350505050565b60008261153457506000610b7a565b8282028284828161154157fe5b0414610d705760405162461bcd60e51b81526004018080602001828103825260218152602001806124336021913960400191505060405180910390fd5b6000610d7083836040518060400160405280601a81526020017f536166654d6174683a206469766973696f6e206279207a65726f000000000000815250611d65565b60cc546040805163511a44ad60e01b81526001600160a01b0384811660048301529151600093929092169163511a44ad91602480820192602092909190829003018186803b15801561161157600080fd5b505afa158015611625573d6000803e3d6000fd5b505050506040513d602081101561163b57600080fd5b505192915050565b600080836001600160a01b03166370a08231846040518263ffffffff1660e01b815260040180826001600160a01b0316815260200191505060206040518083038186803b15801561169357600080fd5b505afa1580156116a7573d6000803e3d6000fd5b505050506040513d60208110156116bd57600080fd5b5051905061151d848261195b565b3390565b60008281526065602052604090206116e79082611e07565b15610812576116f46116cb565b6001600160a01b0316816001600160a01b0316837f2f8788117e7eff1d82e926ec794901d17c78024a50270940304540a733656f0d60405160405180910390a45050565b60008281526065602052604090206117509082611e1c565b156108125761175d6116cb565b6001600160a01b0316816001600160a01b0316837ff6391f5c32d9c69d2a47ea670b442974b53935d1edc7fd64eb21e047a839171b60405160405180910390a45050565b604080516001600160a01b0380861660248301528416604482015260648082018490528251808303909101815260849091019091526020810180516001600160e01b03166323b872dd60e01b1790526117fb908590611e31565b50505050565b801580611887575060408051636eb1769f60e11b81523060048201526001600160a01b03848116602483015291519185169163dd62ed3e91604480820192602092909190829003018186803b15801561185957600080fd5b505afa15801561186d573d6000803e3d6000fd5b505050506040513d602081101561188357600080fd5b5051155b6118c25760405162461bcd60e51b815260040180806020018281038252603681526020018061256c6036913960400191505060405180910390fd5b604080516001600160a01b038416602482015260448082018490528251808303909101815260649091019091526020810180516001600160e01b031663095ea7b360e01b179052611914908490611e31565b505050565b6000610d7083836040518060400160405280601e81526020017f536166654d6174683a207375627472616374696f6e206f766572666c6f770000815250611ee2565b600080836001600160a01b031663313ce5676040518163ffffffff1660e01b815260040160206040518083038186803b15801561199757600080fd5b505afa1580156119ab573d6000803e3d6000fd5b505050506040513d60208110156119c157600080fd5b50519050601260ff82161115611a11576040805162461bcd60e51b815260206004820152601060248201526f696c6c6567616c20646563696d616c7360801b604482015290519081900360640190fd5b60ff811660121415611a265782915050610b7a565b61151d8360ff601284900316600a0a611525565b6000610d708383611f3c565b6000610d70836001600160a01b038416611fa0565b303b1590565b600054610100900460ff1680611a7a5750611a7a611a5b565b80611a88575060005460ff16155b611ac35760405162461bcd60e51b815260040180806020018281038252602e815260200180612454602e913960400191505060405180910390fd5b600054610100900460ff16158015611aee576000805460ff1961ff0019909116610100171660011790555b611b006000611afb6116cb565b610808565b7f6bc9af616991ee5669a4db9fdf1be40cf0f301aaa197206636e2f4b9a3c7af3b6097557f81349814bed7dfa157b76a21259a8d40c0afbebce228b6fa6309925210da2d6d6098557f172d99a02b0e57f8f6fa2be8cb376f24af61ff9401d1c478debdb285b6512b1f6099558015611410576000805461ff001916905550565b600054610100900460ff1680611b995750611b99611a5b565b80611ba7575060005460ff16155b611be25760405162461bcd60e51b815260040180806020018281038252602e815260200180612454602e913960400191505060405180910390fd5b600054610100900460ff16158015611c0d576000805460ff1961ff0019909116610100171660011790555b611c15611fb8565b8015611410576000805461ff001916905550565b600080836001600160a01b031663313ce5676040518163ffffffff1660e01b815260040160206040518083038186803b158015611c6557600080fd5b505afa158015611c79573d6000803e3d6000fd5b505050506040513d6020811015611c8f57600080fd5b50519050601260ff82161115611cdf576040805162461bcd60e51b815260206004820152601060248201526f696c6c6567616c20646563696d616c7360801b604482015290519081900360640190fd5b60ff811660121415611cf45782915050610b7a565b61151d8360ff601284900316600a0a61157e565b604080516001600160a01b038416602482015260448082018490528251808303909101815260649091019091526020810180516001600160e01b031663a9059cbb60e01b179052611914908490611e31565b6000610b7a82612066565b60008183611df15760405162461bcd60e51b81526004018080602001828103825283818151815260200191508051906020019080838360005b83811015611db6578181015183820152602001611d9e565b50505050905090810190601f168015611de35780820380516001836020036101000a031916815260200191505b509250505060405180910390fd5b506000838581611dfd57fe5b0495945050505050565b6000610d70836001600160a01b03841661206a565b6000610d70836001600160a01b0384166120b4565b6060611e86826040518060400160405280602081526020017f5361666545524332303a206c6f772d6c6576656c2063616c6c206661696c6564815250856001600160a01b031661217a9092919063ffffffff16565b80519091501561191457808060200190516020811015611ea557600080fd5b50516119145760405162461bcd60e51b815260040180806020018281038252602a815260200180612542602a913960400191505060405180910390fd5b60008184841115611f345760405162461bcd60e51b8152602060048201818152835160248401528351909283926044909101919085019080838360008315611db6578181015183820152602001611d9e565b505050900390565b81546000908210611f7e5760405162461bcd60e51b81526004018080602001828103825260228152602001806122f86022913960400191505060405180910390fd5b826000018281548110611f8d57fe5b9060005260206000200154905092915050565b60009081526001919091016020526040902054151590565b600054610100900460ff1680611fd15750611fd1611a5b565b80611fdf575060005460ff16155b61201a5760405162461bcd60e51b815260040180806020018281038252602e815260200180612454602e913960400191505060405180910390fd5b600054610100900460ff16158015612045576000805460ff1961ff0019909116610100171660011790555b609a805460ff191660011790558015611410576000805461ff001916905550565b5490565b60006120768383611fa0565b6120ac57508154600181810184556000848152602080822090930184905584548482528286019093526040902091909155610b7a565b506000610b7a565b6000818152600183016020526040812054801561217057835460001980830191908101906000908790839081106120e757fe5b906000526020600020015490508087600001848154811061210457fe5b60009182526020808320909101929092558281526001898101909252604090209084019055865487908061213457fe5b60019003818190600052602060002001600090559055866001016000878152602001908152602001600020600090556001945050505050610b7a565b6000915050610b7a565b606061151d8484600085606061218f856122f1565b6121e0576040805162461bcd60e51b815260206004820152601d60248201527f416464726573733a2063616c6c20746f206e6f6e2d636f6e7472616374000000604482015290519081900360640190fd5b60006060866001600160a01b031685876040518082805190602001908083835b6020831061221f5780518252601f199092019160209182019101612200565b6001836020036101000a03801982511681845116808217855250505050505090500191505060006040518083038185875af1925050503d8060008114612281576040519150601f19603f3d011682016040523d82523d6000602084013e612286565b606091505b5091509150811561229a57915061151d9050565b8051156122aa5780518082602001fd5b60405162461bcd60e51b8152602060048201818152865160248401528651879391928392604401919085019080838360008315611db6578181015183820152602001611d9e565b3b15159056fe456e756d657261626c655365743a20696e646578206f7574206f6620626f756e6473596561726e5632496e746567726174696f6e2e696e766573743a20696e76657374206d7573742062652067726561746572207468616e2030416363657373436f6e74726f6c3a2073656e646572206d75737420626520616e2061646d696e20746f206772616e74596561726e5632496e746567726174696f6e2e696e697469616c697a653a20686f6e657374436f6e66696775726174696f6e2061646472657373206d7573742062652076616c6964596561726e5632496e746567726174696f6e2e636f6c6c6563743a2063726564697473206d7573742062652067726561746572207468616e2030416363657373436f6e74726f6c3a2073656e646572206d75737420626520616e2061646d696e20746f207265766f6b65536166654d6174683a206d756c7469706c69636174696f6e206f766572666c6f77436f6e747261637420696e7374616e63652068617320616c7265616479206265656e20696e697469616c697a6564596561726e5632496e746567726174696f6e2e696e766573743a206163636f756e74206d7573742062652076616c6964596561726e5632496e746567726174696f6e2e636f6c6c6563743a206163636f756e74206d7573742062652076616c6964416363657373436f6e74726f6c3a2063616c6c6572206973206e6f7420746865205661756c7420636f6e7472616374596561726e5632496e746567726174696f6e2e636f6c6c6563743a20696e73756666696369656e742062616c616e63655361666545524332303a204552433230206f7065726174696f6e20646964206e6f7420737563636565645361666545524332303a20617070726f76652066726f6d206e6f6e2d7a65726f20746f206e6f6e2d7a65726f20616c6c6f77616e6365416363657373436f6e74726f6c3a2063616e206f6e6c792072656e6f756e636520726f6c657320666f722073656c66a2646970667358221220fa18a7859535ca2e258c360691869c729db612c26bd2e0ce3739057c6ddd37c264736f6c634300060c0033",
  "devdoc": {
    "kind": "dev",
    "methods": {
      "getRoleAdmin(bytes32)": {
        "details": "Returns the admin role that controls `role`. See {grantRole} and {revokeRole}. To change a role's admin, use {_setRoleAdmin}."
      },
      "getRoleMember(bytes32,uint256)": {
        "details": "Returns one of the accounts that have `role`. `index` must be a value between 0 and {getRoleMemberCount}, non-inclusive. Role bearers are not sorted in any particular way, and their ordering may change at any point. WARNING: When using {getRoleMember} and {getRoleMemberCount}, make sure you perform all queries on the same block. See the following https://forum.openzeppelin.com/t/iterating-over-elements-on-enumerableset-in-openzeppelin-contracts/2296[forum post] for more information."
      },
      "getRoleMemberCount(bytes32)": {
        "details": "Returns the number of accounts that have `role`. Can be used together with {getRoleMember} to enumerate all bearers of a role."
      },
      "grantRole(bytes32,address)": {
        "details": "Grants `role` to `account`. If `account` had not been already granted `role`, emits a {RoleGranted} event. Requirements: - the caller must have ``role``'s admin role."
      },
      "hasRole(bytes32,address)": {
        "details": "Returns `true` if `account` has been granted `role`."
      },
      "renounceRole(bytes32,address)": {
        "details": "Revokes `role` from the calling account. Roles are often managed via {grantRole} and {revokeRole}: this function's purpose is to provide a mechanism for accounts to lose their privileges if they are compromised (such as when a trusted device is misplaced). If the calling account had been granted `role`, emits a {RoleRevoked} event. Requirements: - the caller must be `account`."
      },
      "revokeRole(bytes32,address)": {
        "details": "Revokes `role` from `account`. If `account` had been granted `role`, emits a {RoleRevoked} event. Requirements: - the caller must have ``role``'s admin role."
      }
    },
    "version": 1
  },
  "userdoc": {
    "kind": "user",
    "methods": {},
    "version": 1
  },
  "storageLayout": {
    "storage": [
      {
        "astId": 8128,
        "contract": "contracts/integrations/YearnV2Integration.sol:YearnV2Integration",
        "label": "initialized",
        "offset": 0,
        "slot": "0",
        "type": "t_bool"
      },
      {
        "astId": 8131,
        "contract": "contracts/integrations/YearnV2Integration.sol:YearnV2Integration",
        "label": "initializing",
        "offset": 1,
        "slot": "0",
        "type": "t_bool"
      },
      {
        "astId": 8196,
        "contract": "contracts/integrations/YearnV2Integration.sol:YearnV2Integration",
        "label": "______gap",
        "offset": 0,
        "slot": "1",
        "type": "t_array(t_uint256)50_storage"
      },
      {
        "astId": 8121,
        "contract": "contracts/integrations/YearnV2Integration.sol:YearnV2Integration",
        "label": "__gap",
        "offset": 0,
        "slot": "51",
        "type": "t_array(t_uint256)50_storage"
      },
      {
        "astId": 8241,
        "contract": "contracts/integrations/YearnV2Integration.sol:YearnV2Integration",
        "label": "_roles",
        "offset": 0,
        "slot": "101",
        "type": "t_mapping(t_bytes32,t_struct(RoleData)8237_storage)"
      },
      {
        "astId": 8486,
        "contract": "contracts/integrations/YearnV2Integration.sol:YearnV2Integration",
        "label": "__gap",
        "offset": 0,
        "slot": "102",
        "type": "t_array(t_uint256)49_storage"
      },
      {
        "astId": 11733,
        "contract": "contracts/integrations/YearnV2Integration.sol:YearnV2Integration",
        "label": "_assetManagerRole",
        "offset": 0,
        "slot": "151",
        "type": "t_bytes32"
      },
      {
        "astId": 11735,
        "contract": "contracts/integrations/YearnV2Integration.sol:YearnV2Integration",
        "label": "_vaultRole",
        "offset": 0,
        "slot": "152",
        "type": "t_bytes32"
      },
      {
        "astId": 11737,
        "contract": "contracts/integrations/YearnV2Integration.sol:YearnV2Integration",
        "label": "_governorRole",
        "offset": 0,
        "slot": "153",
        "type": "t_bytes32"
      },
      {
        "astId": 9990,
        "contract": "contracts/integrations/YearnV2Integration.sol:YearnV2Integration",
        "label": "_notEntered",
        "offset": 0,
        "slot": "154",
        "type": "t_bool"
      },
      {
        "astId": 10031,
        "contract": "contracts/integrations/YearnV2Integration.sol:YearnV2Integration",
        "label": "__gap",
        "offset": 0,
        "slot": "155",
        "type": "t_array(t_uint256)49_storage"
      },
      {
        "astId": 15310,
        "contract": "contracts/integrations/YearnV2Integration.sol:YearnV2Integration",
        "label": "_honestConfiguration",
        "offset": 0,
        "slot": "204",
        "type": "t_address"
      }
    ],
    "types": {
      "t_address": {
        "encoding": "inplace",
        "label": "address",
        "numberOfBytes": "20"
      },
      "t_array(t_bytes32)dyn_storage": {
        "base": "t_bytes32",
        "encoding": "dynamic_array",
        "label": "bytes32[]",
        "numberOfBytes": "32"
      },
      "t_array(t_uint256)49_storage": {
        "base": "t_uint256",
        "encoding": "inplace",
        "label": "uint256[49]",
        "numberOfBytes": "1568"
      },
      "t_array(t_uint256)50_storage": {
        "base": "t_uint256",
        "encoding": "inplace",
        "label": "uint256[50]",
        "numberOfBytes": "1600"
      },
      "t_bool": {
        "encoding": "inplace",
        "label": "bool",
        "numberOfBytes": "1"
      },
      "t_bytes32": {
        "encoding": "inplace",
        "label": "bytes32",
        "numberOfBytes": "32"
      },
      "t_mapping(t_bytes32,t_struct(RoleData)8237_storage)": {
        "encoding": "mapping",
        "key": "t_bytes32",
        "label": "mapping(bytes32 => struct AccessControlUpgradeSafe.RoleData)",
        "numberOfBytes": "32",
        "value": "t_struct(RoleData)8237_storage"
      },
      "t_mapping(t_bytes32,t_uint256)": {
        "encoding": "mapping",
        "key": "t_bytes32",
        "label": "mapping(bytes32 => uint256)",
        "numberOfBytes": "32",
        "value": "t_uint256"
      },
      "t_struct(AddressSet)9778_storage": {
        "encoding": "inplace",
        "label": "struct EnumerableSet.AddressSet",
        "members": [
          {
            "astId": 9777,
            "contract": "contracts/integrations/YearnV2Integration.sol:YearnV2Integration",
            "label": "_inner",
            "offset": 0,
            "slot": "0",
            "type": "t_struct(Set)9598_storage"
          }
        ],
        "numberOfBytes": "64"
      },
      "t_struct(RoleData)8237_storage": {
        "encoding": "inplace",
        "label": "struct AccessControlUpgradeSafe.RoleData",
        "members": [
          {
            "astId": 8234,
            "contract": "contracts/integrations/YearnV2Integration.sol:YearnV2Integration",
            "label": "members",
            "offset": 0,
            "slot": "0",
            "type": "t_struct(AddressSet)9778_storage"
          },
          {
            "astId": 8236,
            "contract": "contracts/integrations/YearnV2Integration.sol:YearnV2Integration",
            "label": "adminRole",
            "offset": 0,
            "slot": "2",
            "type": "t_bytes32"
          }
        ],
        "numberOfBytes": "96"
      },
      "t_struct(Set)9598_storage": {
        "encoding": "inplace",
        "label": "struct EnumerableSet.Set",
        "members": [
          {
            "astId": 9593,
            "contract": "contracts/integrations/YearnV2Integration.sol:YearnV2Integration",
            "label": "_values",
            "offset": 0,
            "slot": "0",
            "type": "t_array(t_bytes32)dyn_storage"
          },
          {
            "astId": 9597,
            "contract": "contracts/integrations/YearnV2Integration.sol:YearnV2Integration",
            "label": "_indexes",
            "offset": 0,
            "slot": "1",
            "type": "t_mapping(t_bytes32,t_uint256)"
          }
        ],
        "numberOfBytes": "64"
      },
      "t_uint256": {
        "encoding": "inplace",
        "label": "uint256",
        "numberOfBytes": "32"
      }
    }
  },
  "gasEstimates": {
    "creation": {
      "codeDepositCost": "1946800",
      "executionCost": "2062",
      "totalCost": "1948862"
    },
    "external": {
      "DEFAULT_ADMIN_ROLE()": "243",
      "assetManagerRole()": "1021",
      "balanceOf(address)": "infinite",
      "balances()": "infinite",
      "collect(address,address,uint256)": "infinite",
      "getRoleAdmin(bytes32)": "1180",
      "getRoleMember(bytes32,uint256)": "infinite",
      "getRoleMemberCount(bytes32)": "infinite",
      "governorRole()": "1064",
      "grantRole(bytes32,address)": "infinite",
      "hasRole(bytes32,address)": "infinite",
      "initialize(address)": "infinite",
      "invest(address,address,uint256)": "infinite",
      "priceOf(address)": "infinite",
      "renounceRole(bytes32,address)": "infinite",
      "revokeRole(bytes32,address)": "infinite",
      "shareOf(address)": "infinite",
      "shares()": "infinite",
      "totalBalance()": "infinite",
      "transferOwnership(address)": "infinite",
      "vaultRole()": "1108"
    },
    "internal": {
      "_balanceOf(address)": "infinite",
      "_contractOf(address)": "infinite"
    }
  }
}